:020000040000FA
:100000000C945E000C9486000C9486000C94860080
:100010000C9486000C9486000C9486000C94860048
:100020000C9486000C9486000C9486000C94860038
:100030000C9486000C9486000C9486000C94860028
:100040000C94B9000C9486000C9486000C948600E5
:100050000C9486000C9486000C9486000C94860008
:100060000C9486000C948600000000080002010039
:100070000003040700000000000000000000000072
:10008000250028002B0000000000240027002A0083
:10009000040404040404040402020202020203032E
:1000A0000303030301020408102040800102040836
:1000B00010200102040810204D01FD0111241FBE73
:1000C000CFEFD8E0DEBFCDBF21E0A6E0B1E001C0B8
:1000D0001D92A932B207E1F711E0A0E0B1E0EAE831
:1000E000F6E002C005900D92A630B107D9F710E0F6
:1000F000CDE5D0E004C02197FE010E940D02CC3571
:10010000D107C9F70E9403010C9438030C94000036
:10011000CF93DF9390E0FC01EC55FF4F2491805783
:100120009F4FFC0184918823D1F090E0880F991FA4
:10013000FC01EA57FF4FA591B491FC01E458FF4F31
:10014000C591D49161110EC09FB7F8948C91E22FA4
:10015000E0958E238C932881E223E8839FBFDF9173
:10016000CF9108958FB7F894EC91E22BEC938FBF69
:10017000F6CF1F920F920FB60F9211242F933F9339
:100180008F939F93AF93BF93809121019091220110
:10019000A0912301B09124013091200123E0230F8D
:1001A0002D3758F50196A11DB11D20932001809394
:1001B000210190932201A0932301B0932401809107
:1001C0001C0190911D01A0911E01B0911F0101968B
:1001D000A11DB11D80931C0190931D01A0931E01D0
:1001E000B0931F01BF91AF919F918F913F912F913C
:1001F0000F900FBE0F901F90189526E8230F0296C0
:10020000A11DB11DD2CF789484B5826084BD84B520
:10021000816084BD85B5826085BD85B5816085BD01
:1002200080916E00816080936E00109281008091B9
:100230008100826080938100809181008160809341
:100240008100809180008160809380008091B10066
:1002500084608093B1008091B00081608093B00091
:1002600080917A00846080937A0080917A00826025
:1002700080937A0080917A00816080937A008091E7
:100280007A00806880937A001092C100C0E0D0E0CC
:100290002097F1F30E940000FBCF0F931F93CF93A1
:1002A000DF931092070110920E0110921501109227
:1002B0001601109217011092180183E08093140127
:1002C00081E0809311011092120192E0909313014A
:1002D0008093060180E890E090930B0180930A01DF
:1002E0000E9413029093100180930F01009709F46C
:1002F00059C020E8FC0111922A95E9F780E290E0CC
:10030000909309018093080187E090E090930D019C
:1003100080930C010BEA10E0C7E9D0E0809107015F
:10032000882349F161E087E00E948800EFE6F0E071
:100330008491F8019491FE0124912223E1F0882315
:1003400059F0833009F442C008F035C0813009F417
:1003500043C0823009F444C0E22FF0E0EE0FFF1FEB
:10036000E458FF4FA591B4918FB7F8942C919095D4
:1003700092239C938FBFFE01C491EC2FF0E0EE0F0F
:10038000FF1FE458FF4F8591949190931A01809339
:100390001901F801049100931B01DF91CF911F9186
:1003A0000F91089510920B0110920A011092090109
:1003B00010920801A9CF8730B1F08830D1F0843095
:1003C00009F0CACF809180008F7D03C080918000AA
:1003D0008F7780938000C0CF84B58F7784BDBCCFEA
:1003E00084B58F7DFBCF8091B0008F778093B00074
:1003F000B3CF8091B0008F7DF9CF80910F019091A4
:1004000010010E94AF0280910C0190910D0197FDA7
:1004100003C060E00C9488000895EE0FFF1F059064
:10042000F491E02D09940F931F93CF93DF938230C3
:10043000910510F482E090E0E0912701F09128010D
:1004400030E020E0B0E0A0E0309799F421153105CC
:1004500009F44AC0281B390B24303105D8F58A81AC
:100460009B816115710589F1FB0193838283FE01F4
:1004700011C0408151810281138148175907E0F072
:100480004817590799F4109761F012960C93129738
:1004900013961C933296CF01DF91CF911F910F914C
:1004A00008950093270110932801F4CF21153105F9
:1004B00051F04217530738F0A901DB019A01BD0141
:1004C000DF01F801C1CFEF01F9CF909328018093AC
:1004D0002701CDCFFE01E20FF31F819391932250AC
:1004E000310939832883D7CF209125013091260106
:1004F000232B41F420910201309103013093260116
:100500002093250120910001309101012115310531
:1005100041F42DB73EB74091040150910501241BD1
:10052000350BE0912501F0912601E217F307A0F4C5
:100530002E1B3F0B2817390778F0AC014E5F5F4F39
:100540002417350748F04E0F5F1F50932601409344
:100550002501819391939FCFF0E0E0E09CCFCF9372
:10056000DF930097E9F0FC01329713821282A09189
:100570002701B0912801ED0130E020E01097A1F4AF
:1005800020813181820F931F209125013091260116
:100590002817390709F061C0F0932601E09325017F
:1005A000DF91CF910895EA01CE17DF07E8F54A8180
:1005B0005B819E0141155105B1F7E901FB83EA8397
:1005C00049915991C40FD51FEC17FD0761F4808143
:1005D00091810296840F951FE90199838883828116
:1005E00093819B838A83F0E0E0E012968D919C9149
:1005F00013970097B9F52D913C911197CD01029673
:10060000820F931F20912501309126012817390769
:1006100039F6309751F51092280110922701B093C6
:100620002601A0932501BCCFD383C2834081518191
:10063000840F951FC817D90761F44E5F5F4F8881FB
:100640009981480F591F518340838A819B819383ED
:1006500082832115310509F0B0CFF0932801E09392
:1006600027019ECFFD01DC01C0CF13821282D7CFBC
:1006700010E0CDE5D0E004C0FE010E940D022196FD
:10068000CE35D107C9F7F894FFCF000029018000CB
:107E0000112484B714BE81FFF0D085E080938100F7
:107E100082E08093C00088E18093C10086E0809377
:107E2000C20080E18093C4008EE0C9D0259A86E02C
:107E300020E33CEF91E0309385002093840096BBD3
:107E4000B09BFECF1D9AA8958150A9F7CC24DD24C4
:107E500088248394B5E0AB2EA1E19A2EF3E0BF2EE7
:107E6000A2D0813461F49FD0082FAFD0023811F036
:107E7000013811F484E001C083E08DD089C08234E0
:107E800011F484E103C0853419F485E0A6D080C0E4
:107E9000853579F488D0E82EFF2485D0082F10E0AE
:107EA000102F00270E291F29000F111F8ED06801E7
:107EB0006FC0863521F484E090D080E0DECF843638
:107EC00009F040C070D06FD0082F6DD080E0C81688
:107ED00080E7D80618F4F601B7BEE895C0E0D1E017
:107EE00062D089930C17E1F7F0E0CF16F0E7DF06D8
:107EF00018F0F601B7BEE89568D007B600FCFDCFD4
:107F0000A601A0E0B1E02C9130E011968C91119780
:107F100090E0982F8827822B932B1296FA010C0160
:107F200087BEE89511244E5F5F4FF1E0A038BF0790
:107F300051F7F601A7BEE89507B600FCFDCF97BE46
:107F4000E89526C08437B1F42ED02DD0F82E2BD052
:107F50003CD0F601EF2C8F010F5F1F4F84911BD097
:107F6000EA94F801C1F70894C11CD11CFA94CF0C13
:107F7000D11C0EC0853739F428D08EE10CD085E9AC
:107F80000AD08FE07ACF813511F488E018D01DD067
:107F900080E101D065CF982F8091C00085FFFCCF94
:107FA0009093C60008958091C00087FFFCCF809118
:107FB000C00084FD01C0A8958091C6000895E0E648
:107FC000F0E098E1908380830895EDDF803219F02E
:107FD00088E0F5DFFFCF84E1DECF1F93182FE3DFCA
:107FE0001150E9F7F2DF1F91089580E0E8DFEE27F6
:047FF000FF270994CA
:027FFE00040479
:00000001FF
