:020000040000FA
:100000000C945C000C9479000C9479000C947900A9
:100010000C9479000C9479000C9479000C9479007C
:100020000C9479000C9479000C9479000C9479006C
:100030000C9479000C9479000C9479000C9479005C
:100040000C947B000C9479000C9479000C9479004A
:100050000C9479000C9479000C9479000C9479003C
:100060000C9479000C947900000000002400270013
:100070002A0000000000250028002B0004040404CE
:100080000404040402020202020203030303030342
:10009000010204081020408001020408102001021F
:1000A00004081020000000080002010000030407FB
:1000B000000000000000000011241FBECFEFD8E0B8
:1000C000DEBFCDBF11E0A0E0B1E0ECE6F3E002C09E
:1000D00005900D92A230B107D9F721E0A2E0B1E07E
:1000E00001C01D92AF30B207E1F70E94C5000C9429
:1000F000B4010C9400001F920F920FB60F921124BE
:100100002F933F938F939F93AF93BF9380910B0156
:1001100090910C01A0910D01B0910E0130910A0156
:1001200023E0230F2D3758F50196A11DB11D209313
:100130000A0180930B0190930C01A0930D01B093E1
:100140000E018091060190910701A0910801B091E4
:1001500009010196A11DB11D80930601909307012D
:10016000A0930801B0930901BF91AF919F918F9126
:100170003F912F910F900FBE0F901F90189526E87A
:10018000230F0296A11DB11DD2CF789484B5826051
:1001900084BD84B5816084BD85B5826085BD85B52B
:1001A000816085BD80916E00816080936E001092A9
:1001B0008100809181008260809381008091810024
:1001C00081608093810080918000816080938000B5
:1001D0008091B10084608093B1008091B000816013
:1001E0008093B00080917A00846080937A0080913F
:1001F0007A00826080937A0080917A008160809397
:100200007A0080917A00806880937A001092C10011
:10021000C3E9D0E0FE0124910FE710E0F8018491DA
:10022000882399F090E0880F991FFC01E859FF4F4F
:10023000A591B491FC01EE58FF4F859194918FB731
:10024000F8949C91292B2C938FBFBB24B39427EA5D
:10025000C22E20E0D22E30E0E32E30E0F32E8FB716
:10026000F89440910B0150910C0160910D01709137
:100270000E018FBF8091020190910301A0910401B2
:10028000B09105018C509E4FAF4FBF4F4817590793
:100290006A077B0708F43DC0209100012B252093BD
:1002A0000001F6019491FE018491F8013491332309
:1002B000E9F0992351F0933009F43CC088F591306E
:1002C00009F43EC0923009F43FC0E32FF0E0EE0F96
:1002D000FF1FEE58FF4FA591B4919FB7F8942111DD
:1002E00040C02C91809582238C939FBF2FB7F894A8
:1002F00080910B0190910C01A0910D01B0910E0124
:100300002FBF8093020190930301A0930401B09347
:100310000501E114F10409F4A2CF0E9400009FCF6F
:100320009730A9F09830C9F0943079F69091800018
:100330009F7D03C0909180009F7790938000C5CFF0
:1003400094B59F7794BDC1CF94B59F7DFBCF90911D
:10035000B0009F779093B000B8CF9091B0009F7D90
:0E036000F9CF2C91822BC0CFF894FFCF010073
:107E0000112484B714BE81FFF0D085E080938100F7
:107E100082E08093C00088E18093C10086E0809377
:107E2000C20080E18093C4008EE0C9D0259A86E02C
:107E300020E33CEF91E0309385002093840096BBD3
:107E4000B09BFECF1D9AA8958150A9F7CC24DD24C4
:107E500088248394B5E0AB2EA1E19A2EF3E0BF2EE7
:107E6000A2D0813461F49FD0082FAFD0023811F036
:107E7000013811F484E001C083E08DD089C08234E0
:107E800011F484E103C0853419F485E0A6D080C0E4
:107E9000853579F488D0E82EFF2485D0082F10E0AE
:107EA000102F00270E291F29000F111F8ED06801E7
:107EB0006FC0863521F484E090D080E0DECF843638
:107EC00009F040C070D06FD0082F6DD080E0C81688
:107ED00080E7D80618F4F601B7BEE895C0E0D1E017
:107EE00062D089930C17E1F7F0E0CF16F0E7DF06D8
:107EF00018F0F601B7BEE89568D007B600FCFDCFD4
:107F0000A601A0E0B1E02C9130E011968C91119780
:107F100090E0982F8827822B932B1296FA010C0160
:107F200087BEE89511244E5F5F4FF1E0A038BF0790
:107F300051F7F601A7BEE89507B600FCFDCF97BE46
:107F4000E89526C08437B1F42ED02DD0F82E2BD052
:107F50003CD0F601EF2C8F010F5F1F4F84911BD097
:107F6000EA94F801C1F70894C11CD11CFA94CF0C13
:107F7000D11C0EC0853739F428D08EE10CD085E9AC
:107F80000AD08FE07ACF813511F488E018D01DD067
:107F900080E101D065CF982F8091C00085FFFCCF94
:107FA0009093C60008958091C00087FFFCCF809118
:107FB000C00084FD01C0A8958091C6000895E0E648
:107FC000F0E098E1908380830895EDDF803219F02E
:107FD00088E0F5DFFFCF84E1DECF1F93182FE3DFCA
:107FE0001150E9F7F2DF1F91089580E0E8DFEE27F6
:047FF000FF270994CA
:027FFE00040479
:00000001FF
