:100000000C9461000C947E000C947E000C947E0095
:100010000C947E000C947E000C947E000C947E0068
:100020000C947E000C947E000C947E000C947E0058
:100030000C947E000C947E000C947E000C947E0048
:100040000C942B010C947E000C947E000C947E008A
:100050000C947E000C947E000C947E000C947E0028
:100060000C947E000C947E0000000000230026000B
:10007000290000000008000201000003040700003E
:1000800000000000000000000000250028002B00F8
:1000900000000000240027002A00040404040404D3
:1000A0000404020202020202030303030303010227
:1000B00004081020408001020408102001020408F6
:1000C000102011241FBECFEFD8E0DEBFCDBF11E05E
:1000D000A0E0B1E0E0E4F5E002C005900D92A230AE
:1000E000B107D9F721E0A2E0B1E001C01D92AC3127
:1000F000B207E1F70E9475010C949E020C94000077
:1001000090E0FC01E255FF4F249186569F4FFC0181
:100110008491882399F090E0880F991FFC01E057A3
:10012000FF4FA591B491FC01EA57FF4F859194913F
:100130008FB7F894EC91E22BEC938FBF0895833046
:1001400081F028F4813099F08230A9F00895873049
:10015000A9F08830C9F08430B1F4809180008F7D9F
:1001600003C0809180008F7780938000089584B5CC
:100170008F7784BD089584B58F7DFBCF8091B000CB
:100180008F778093B00008958091B0008F7DF9CF74
:10019000CF93DF93282F30E0F901EE58FF4F849181
:1001A000F901E255FF4FD491F901E656FF4FC49192
:1001B000CC23A1F081110E949F00EC2FF0E0EE0F04
:1001C000FF1FE859FF4FA591B491EC91ED2381E019
:1001D00090E009F480E0DF91CF91089580E090E015
:1001E000FACF1F93CF93DF93282F30E0F901EE5819
:1001F000FF4F8491F901E255FF4FD491F901E65682
:10020000FF4FC491CC23A9F0162F81110E949F00AB
:10021000EC2FF0E0EE0FFF1FEA57FF4FA591B491CE
:100220008FB7F894EC91111108C0D095DE23DC93C0
:100230008FBFDF91CF911F910895DE2BF8CF2FB79D
:10024000F894609118017091190180911A019091B0
:100250001B012FBF08951F920F920FB60F9211240A
:100260002F933F938F939F93AF93BF9380911801E8
:1002700090911901A0911A01B0911B0130911701C1
:1002800023E0230F2D3758F50196A11DB11D2093B2
:1002900017018093180190931901A0931A01B0934C
:1002A0001B018091130190911401A0911501B0914F
:1002B00016010196A11DB11D8093130190931401A5
:1002C000A0931501B0931601BF91AF919F918F91AB
:1002D0003F912F910F900FBE0F901F90189526E819
:1002E000230F0296A11DB11DD2CF789484B58260F0
:1002F00084BD84B5816084BD85B5826085BD85B5CA
:10030000816085BD80916E00816080936E00109247
:1003100081008091810082608093810080918100C2
:100320008160809381008091800081608093800053
:100330008091B10084608093B1008091B0008160B1
:100340008093B00080917A00846080937A008091DD
:100350007A00826080937A0080917A008160809335
:100360007A0080917A00806880937A001092C100B0
:100370008CE00E9480008BE00E9480008DE00E9453
:100380008000D1E000E010E0FF24F3940E941F0100
:10039000AB01BC018091020190910301A091040185
:1003A000B09105018C509E4FAF4FBF4F4817590772
:1003B0006A077B0790F0609100016D276093000150
:1003C0008CE00E94F1000E941F0160930201709373
:1003D0000301809304019093050180910F01811125
:1003E00014C00E941F0160930B0170930C01809355
:1003F0000D0190930E010E941F01609307017093FD
:1004000008018093090190930A0182E00E94C800CC
:10041000019761F4F0920F010E941F0160930701A0
:10042000709308018093090190930A0182E00E9471
:10043000C800892B29F580910F01882309F180914B
:10044000070190910801A0910901B0910A01409122
:100450000B0150910C0160910D0170910E01841BF4
:10046000950BA60BB70B803D9740A105B10540F059
:10047000809106018D278093060110920F0122C002
:1004800082E00E94C800892BE9F480910F01882343
:10049000C9F08091070190910801A0910901B091E4
:1004A0000A0140910B0150910C0160910D01709176
:1004B0000E01841B950BA60BB70B813D9740A10540
:1004C000B105D8F280910601882379F061E08BE0D4
:1004D0000E94F10061E08DE00E94F100011511051C
:1004E00009F454CF0E94000051CF82E00E94C8005E
:1004F000019711F4F092110182E00E94C800892B4B
:1005000059F480911101882339F0809110018D27D1
:100510008093100110921101E0901001C09112011E
:10052000CE15E1F26C2F8BE00E94F1006C2F6D274D
:100530008DE00E94F100E0921201D0CFF894FFCF3D
:020540000100B8
:00000001FF
