:020000040000FA
:100000000C9462000C948A000C948A000C948A0070
:100010000C948A000C948A000C948A000C948A0038
:100020000C948A000C948A000C948A000C948A0028
:100030000C948A000C948A000C948A000C948A0018
:100040000C9438020C948A000C94A8020C9482023E
:100050000C948A000C948A000C948A000C948A00F8
:100060000C948A000C948A000000000023002600F3
:10007000290000000008000201000003040700003E
:1000800000000000000000000000250028002B00F8
:1000900000000000240027002A00040404040404D3
:1000A0000404020202020202030303030303010227
:1000B00004081020408001020408102001020408F6
:1000C0001020CB0311241FBECFEFD8E0DEBFCDBF81
:1000D00011E0A0E0B1E0E0E0F8E002C005900D9290
:1000E000A431B107D9F721E0A4E1B1E001C01D922C
:1000F000A13CB207E1F710E0C2E6D0E004C02197CE
:10010000FE010E94F803C136D107C9F70E94DA0246
:100110000C94FE030C94000090E0FC01E255FF4FAC
:10012000249186569F4FFC018491882399F090E09A
:10013000880F991FFC01E057FF4FA591B491FC0176
:10014000EA57FF4F859194918FB7F894EC91E22B89
:10015000EC938FBF0895833081F028F4813099F0BB
:100160008230A9F008958730A9F08830C9F0843032
:10017000B1F4809180008F7D03C0809180008F77E3
:1001800080938000089584B58F7784BD089584B5E9
:100190008F7DFBCF8091B0008F778093B000089562
:1001A0008091B0008F7DF9CFCF93DF93282F30E07F
:1001B000F901EE58FF4F8491F901E255FF4FD491B8
:1001C000F901E656FF4FC491CC23A1F081110E94A2
:1001D000AB00EC2FF0E0EE0FFF1FE859FF4FA591A9
:1001E000B491EC91ED2381E090E009F480E0DF919F
:1001F000CF91089580E090E0FACF1F93CF93DF93E3
:10020000282F30E0F901EE58FF4F8491F901E255B3
:10021000FF4FD491F901E656FF4FC491CC23A9F0CA
:10022000162F81110E94AB00EC2FF0E0EE0FFF1FA4
:10023000EA57FF4FA591B4918FB7F894EC91111143
:1002400008C0D095DE23DC938FBFDF91CF911F9143
:100250000895DE2BF8CFAF92BF92CF92DF92EF924C
:10026000FF920F931F93CF93DF936C017B018B0160
:10027000040F151FEB015E01AE18BF08C017D107B0
:1002800059F06991D601ED91FC910190F081E02D3A
:10029000C6010995892B79F7C501DF91CF911F918F
:1002A0000F91FF90EF90DF90CF90BF90AF900895A7
:1002B000FC01538D448D252F30E0842F90E0821B6C
:1002C000930B541710F0CF96089501970895FC01F1
:1002D000918D828D981761F0A28DAE0FBF2FB11D49
:1002E0005D968C91928D9F5F9F73928F90E00895A1
:1002F0008FEF9FEF0895FC01918D828D981731F05B
:10030000828DE80FF11D858D90E008958FEF9FEFAE
:100310000895FC01918D228D892F90E0805C9F4F84
:10032000821B91098F739927089584E191E00E94BF
:10033000890121E0892B09F420E0822F089580E0D3
:1003400090E0892B29F00E94950181110C94000006
:100350000895FC01A48DA80FB92FB11DA35ABF4F5A
:100360002C91848D90E001968F739927848FA689B4
:10037000B7892C93A089B1898C91837080648C9308
:10038000938D848D981306C00288F389E02D8081B7
:100390008F7D80830895EF92FF920F931F93CF93E9
:1003A000DF93EC0181E0888F9B8D8C8D98131AC0B0
:1003B000E889F989808185FF15C09FB7F894EE8997
:1003C000FF896083E889F9898081837080648083F4
:1003D0009FBF81E090E0DF91CF911F910F91FF903F
:1003E000EF900895F62E0B8D10E00F5F1F4F0F73E7
:1003F0001127E02E8C8D8E110CC00FB607FCFACFA2
:10040000E889F989808185FFF5CFCE010E94A90195
:10041000F1CFEB8DEC0FFD2FF11DE35AFF4FF08272
:100420009FB7F8940B8FEA89FB8980818062CFCFD8
:10043000CF93DF93EC01888D8823B9F0AA89BB891B
:10044000E889F9898C9185FD03C0808186FD0DC006
:100450000FB607FCF7CF8C9185FFF2CF808185FF27
:10046000EDCFCE010E94A901E9CFDF91CF91089590
:100470001F920F920FB60F9211242F933F938F93D9
:100480009F93AF93BF938091BD019091BE01A091C6
:10049000BF01B091C0013091BC0123E0230F2D3783
:1004A00058F50196A11DB11D2093BC018093BD019B
:1004B0009093BE01A093BF01B093C0018091B80199
:1004C0009091B901A091BA01B091BB010196A11D13
:1004D000B11D8093B8019093B901A093BA01B09374
:1004E000BB01BF91AF919F918F913F912F910F9041
:1004F0000FBE0F901F90189526E8230F0296A11D9E
:10050000B11DD2CF1F920F920FB60F9211242F93CD
:100510003F934F935F936F937F938F939F93AF938B
:10052000BF93EF93FF9384E191E00E94A901FF91B3
:10053000EF91BF91AF919F918F917F916F915F915B
:100540004F913F912F910F900FBE0F901F901895D4
:100550001F920F920FB60F9211242F938F939F9398
:10056000EF93FF93E0912401F09125018081E091C8
:100570002A01F0912B0182FD1BC0908180912D01F9
:100580008F5F8F7320912E01821741F0E0912D0132
:10059000F0E0EC5EFE4F958F80932D01FF91EF917F
:1005A0009F918F912F910F900FBE0F901F901895D4
:1005B0008081F4CF789484B5826084BD84B58160F5
:1005C00084BD85B5826085BD85B5816085BD80911E
:1005D0006E00816080936E00109281008091810096
:1005E000826080938100809181008160809381008E
:1005F000809180008160809380008091B100846050
:100600008093B1008091B00081608093B0008091B0
:100610007A00846080937A0080917A00826080936F
:100620007A0080917A00816080937A0080917A00CC
:10063000806880937A001092C1008CE00E948C0048
:100640008BE00E948C008DE00E948C00E0912401E0
:10065000F091250182E08083E0912001F091210159
:100660001082E0912201F09123018FEC808310929F
:100670002C01E0912801F091290186E08083E0912E
:100680002601F0912701808180618083E09126011D
:10069000F0912701808188608083E0912601F091AC
:1006A0002701808180688083E0912601F0912701F5
:1006B00080818F7D8083D1E000E010E0FF24F394FF
:1006C0008FB7F8944091BD015091BE016091BF0178
:1006D0007091C0018FBF8091B1019091B201A09142
:1006E000B301B091B4018C509E4FAF4FBF4F48172C
:1006F00059076A077B07D8F0609100016D27609366
:1007000000018CE00E94FD002FB7F8948091BD019C
:100710009091BE01A091BF01B091C0012FBF809305
:10072000B1019093B201A093B301B093B40182E000
:100730000E94D400019711F4F092B60182E00E9469
:10074000D400892B59F48091B601882339F0809127
:10075000B5018D278093B5011092B601E090B501E7
:10076000C091B701CE1559F06C2F8BE00E94FD00AF
:100770006C2F6D278DE00E94FD00E092B7010115FE
:10078000110509F49DCF0E949501882309F498CFA3
:100790000E94000095CFE4E1F1E01382128288EE1E
:1007A00093E0A0E0B0E084839583A683B78385E0DF
:1007B00091E09183808385EC90E09587848784EC39
:1007C00090E09787868780EC90E0918B808B81EC1E
:1007D00090E0938B828B82EC90E0958B848B86ECFF
:1007E00090E0978B868B118E128E138E148E089547
:1007F000EE0FFF1F0590F491E02D0994F894FFCFC0
:100800000100000000CB012B01580118028901678B
:04081000017B010067
:107E0000112484B714BE81FFF0D085E080938100F7
:107E100082E08093C00088E18093C10086E0809377
:107E2000C20080E18093C4008EE0C9D0259A86E02C
:107E300020E33CEF91E0309385002093840096BBD3
:107E4000B09BFECF1D9AA8958150A9F7CC24DD24C4
:107E500088248394B5E0AB2EA1E19A2EF3E0BF2EE7
:107E6000A2D0813461F49FD0082FAFD0023811F036
:107E7000013811F484E001C083E08DD089C08234E0
:107E800011F484E103C0853419F485E0A6D080C0E4
:107E9000853579F488D0E82EFF2485D0082F10E0AE
:107EA000102F00270E291F29000F111F8ED06801E7
:107EB0006FC0863521F484E090D080E0DECF843638
:107EC00009F040C070D06FD0082F6DD080E0C81688
:107ED00080E7D80618F4F601B7BEE895C0E0D1E017
:107EE00062D089930C17E1F7F0E0CF16F0E7DF06D8
:107EF00018F0F601B7BEE89568D007B600FCFDCFD4
:107F0000A601A0E0B1E02C9130E011968C91119780
:107F100090E0982F8827822B932B1296FA010C0160
:107F200087BEE89511244E5F5F4FF1E0A038BF0790
:107F300051F7F601A7BEE89507B600FCFDCF97BE46
:107F4000E89526C08437B1F42ED02DD0F82E2BD052
:107F50003CD0F601EF2C8F010F5F1F4F84911BD097
:107F6000EA94F801C1F70894C11CD11CFA94CF0C13
:107F7000D11C0EC0853739F428D08EE10CD085E9AC
:107F80000AD08FE07ACF813511F488E018D01DD067
:107F900080E101D065CF982F8091C00085FFFCCF94
:107FA0009093C60008958091C00087FFFCCF809118
:107FB000C00084FD01C0A8958091C6000895E0E648
:107FC000F0E098E1908380830895EDDF803219F02E
:107FD00088E0F5DFFFCF84E1DECF1F93182FE3DFCA
:107FE0001150E9F7F2DF1F91089580E0E8DFEE27F6
:047FF000FF270994CA
:027FFE00040479
:00000001FF
