:100000000C94D8010C9467100C9440100C941910A7
:100010000C94F20F0C9400020C9400020C94CB0F81
:100020000C9400020C9445160C948E100C94FD1048
:100030000C9400020C9400020C9400020C94000238
:100040000C9400020C9400020C9400020C94000228
:100050000C9400020C9400020C9400020C94810F8A
:100060000C9400020C9400020C9400020C94000208
:100070000C9400020C9400020C9400020C940002F8
:100080000C9400020C9400020C9400020C940002E8
:100090000C942F130C9400020C9400020C94000298
:1000A0000C9400020C944E140C940002000000000A
:1000B0000000004F00000007000700147F147F14A9
:1000C000242A7F2A122313086462364955225000DD
:1000D00000070000001C2241000041221C001408FF
:1000E0003E081408083E08080050300000080808C0
:1000F0000808006060000020100804023E514945D5
:100100003E00427F400042615149462141454B310A
:100110001814127F1027454545393C4A4949300398
:10012000017109073649494936064949291E0036F1
:100130003600000056360000081422410014141442
:100140001414004122140802015109063249794170
:100150003E7E1111117E7F494949363E414141227F
:100160007F4141413E7F494949417F090909013E9B
:100170004149497A7F0808087F00417F41002040BB
:10018000413F017F081422417F404040407F020CE4
:10019000027F7F0408107F3E4141413E7F090909EB
:1001A000063E4151215E7F09192946464949493198
:1001B00001017F01013F4040403F1F2040201F3F81
:1001C0004038403F63140814630708700807615102
:1001D000494543007F41410002040810200041418D
:1001E0007F0004020102044040404040000102043C
:1001F0000020545454787F484444383844444420C0
:10020000384444487F3854545418087E0901020C7D
:100210005252523E7F0804047800447D4000204042
:10022000443D007F1028440000417F40007C0418BA
:1002300004787C0804047838444444387C1414144A
:1002400008081414187C7C080404084854545420EA
:10025000043F4440203C4040207C1C2040201C3C6B
:100260004038403C44281028440C5050503C4464D2
:10027000544C44000836410000007F000000413625
:1002800008000C02040806081C2A080800030C0FCA
:1002900030333C3FC0C3CCCFF0F3FCFF0000000084
:1002A000240027002A002D00300000000000230059
:1002B000260029002C002F00080B0002020200007B
:1002C00009040000010202000005240010010524B9
:1002D000010101042402060524060001070581032B
:1002E00010004009040100020A0000000705020294
:1002F00040000007058302400000040309041201C6
:100300000002EF020140FB1F002300010102030174
:10031000506F6C6F6C7520436F72706F726174698F
:100320006F6E00506F6C6F6C7520412D537461724D
:10033000203332553400202020004779726F20632B
:10034000616C0000000000250028002B002E003109
:10035000000404040404030405020202020403026C
:10036000020202060606060606040402020204044D
:1003700004080201104080401020408040800802A4
:100380000401804020100201108010204040200015
:1003900000000200090F0000030401000C0000002F
:1003A00000000000000000000000000000009016A7
:1003B00011241FBECFEFDAE0DEBFCDBF11E0A0E019
:1003C000B1E0EEEDF6E302C005900D92A238B10760
:1003D000D9F723E0A2E8B1E001C01D92AD3EB2071B
:1003E000E1F711E0C8EDD1E004C02197FE010E94C1
:1003F000171AC73DD107C9F70E94F6160C946D1B5A
:100400000C9400005B9887FD5D9A87FF5D985B9A6E
:100410005B9886FD5D9A86FF5D985B9A5B9885FD8B
:100420005D9A85FF5D985B9A5B9884FD5D9A84FF79
:100430005D985B9A5B9883FD5D9A83FF5D985B9AFC
:100440005B9882FD5D9A82FF5D985B9A5B9881FD67
:100450005D9A81FF5D985B9A5B9880FD5D9A80FF55
:100460005D985B9A0895FC0180910602882311F142
:100470003FB7F89482E08093E9002091F200822F48
:1004800090E01816190614F481E090E0882339F002
:10049000289844E6409305024091F10040832223CE
:1004A00039F02091F200211103C02BE62093E800DF
:1004B0003FBF08958FEF9FEF08952FB7F89483E023
:1004C0008093E9009091E800892F807295FF04C025
:1004D0009091F20080E4891B2FBF08958091FD0167
:1004E00081110DC082E08093F90184E08093FA01CC
:1004F0001092FC011092FB0181E08093FD0189EFD5
:1005000091E0089581508F3008F047C0E82FF0E067
:10051000E457FD4F0C94171AA902AD029B02A102E9
:10052000A502CD02CD02CD02B002B602BA02BE02D1
:10053000C402CD02C802809180008F778093800032
:100540000895809180008F7DF9CF80918000877F12
:10055000F5CF84B58F7784BD089584B58F7DFBCFAB
:10056000809190008F778093900008958091900003
:100570008F7DF9CF80919000877FF5CF8091C0006B
:100580008F778093C00008958091C0008F7DF9CF50
:100590008091C200877F8093C20008951F93CF93FC
:1005A000DF93282F30E0F901E157FC4F8491F901E6
:1005B000E059FC4FD491F901EF5AFC4FC491CC2380
:1005C000A9F0162F81110E948202EC2FF0E0EE0FAD
:1005D000FF1FED5BFC4FA591B4918FB7F894EC91A0
:1005E000111108C0D095DE23DC938FBFDF91CF912E
:1005F0001F910895DE2BF8CF3FB7F8948091F50155
:100600009091F601A091F701B091F80126B5A89B51
:1006100005C02F3F19F00196A11DB11D3FBFBA2F94
:10062000A92F982F8827BC01CD01620F711D811D54
:10063000911D42E0660F771F881F991F4A95D1F7D9
:1006400008958F929F92AF92BF92CF92DF92EF92D6
:10065000FF924B015C010E94FC026B017C010E9435
:10066000FC026C197D098E099F09683E7340810563
:100670009105A8F321E0821A9108A108B10888EE3B
:10068000C80E83E0D81EE11CF11C81149104A10462
:10069000B10429F7FF90EF90DF90CF90BF90AF901B
:1006A0009F908F9008950895089508954091E001D6
:1006B0005091E1012091DE013091DF014217530793
:1006C000B4F49091E8009570E1F39091E80092FD08
:1006D00019C08093F1008091E0019091E1010196B1
:1006E0008F739927892B19F48EEF8093E8008091FE
:1006F000E0019091E10101969093E1018093E00186
:1007000081E0089580E00895EF92FF920F931F9388
:10071000CF93DF93F82E192FE62E042F81E0860F5A
:10072000880F0E94560383E00E945603CF2DD12FDD
:10073000EC0EFD2EF11CCE15DF05B9F007FF13C03E
:10074000FE0184910E945603182F80E00E945603F8
:10075000812321968111EFCFDF91CF911F910F91CE
:10076000FF90EF9008958881EDCF81E0F5CFDF9283
:10077000EF92FF920F931F93CF93DF93D82E8A01AE
:10078000EB017B01E40EF51ECE15DF0559F0D7FE17
:1007900012C0FE0184910E94560321968111F4CF6C
:1007A0000FEF1FEFC801DF91CF911F910F91FF90C5
:1007B000EF90DF9008958881EECF0F931F93CF9332
:1007C000DF931F92CDB7DEB782E0898342E450E029
:1007D00068EB72E080E80E94B7030E946E02DC01C1
:1007E00012960D911C910115110589F0D801ED911A
:1007F000FC910280F381E02DBE016F5F7F4FC80145
:10080000099597FD04C0F80100851185ECCF898119
:100810000F90DF91CF911F910F910895615030F0AB
:100820002091F100FC0120830196F8CF289884E6FE
:100830008093050208958F929F92AF92BF92CF92BC
:10084000DF92EF92FF920F931F93CF93DF936C0190
:100850007B018A0180911501882309F45CC0809195
:100860000602882309F457C08091E40180FF05C087
:100870008091E00082608093E000E801B12C8AEF73
:10088000A82E93E0892E2AE3922E209711F4BB2004
:10089000D9F10E945D0281110AC0AA94AA20D9F15F
:1008A00061E070E080E090E00E942103EECF8C17C1
:1008B0001D0611F00CF08C2F9FB7F8948092E90080
:1008C0002091E80025FD02C09FBFDFCF282F30E038
:1008D000C21BD30BF701815020F041914093F100EE
:1008E000FACFE20EF31EBB2021F09092E800B12C6B
:1008F000EBCF8091E80085FDE7CF9092E800BB2424
:10090000B394209709F3F3CF5D9884E68093E301D5
:10091000101611063CF081E090E0F601938382838B
:1009200010E000E0C801DF91CF911F910F91FF907F
:10093000EF90DF90CF90BF90AF909F908F900895F1
:10094000CF93DF931F92CDB7DEB76983DC01ED91C2
:10095000FC910280F381E02D41E050E0BE016F5F29
:100960007F4F09950F90DF91CF91089583E0809399
:10097000E9008091F200882319F08AE38093E8006F
:1009800008950E945D0290E00895CF93DF931F9237
:10099000CDB7DEB7FC018485958597FD08C02FEFA4
:1009A0003FEF358724870F90DF91CF910895CE01D7
:1009B00001960E943302019719F4898190E0F3CFE8
:1009C0008FEF9FEFF0CF0F931F93CF93DF931F9283
:1009D000CDB7DEB78C01FC018485958597FF0BC0F0
:1009E000CE0101960E943302019771F4898190E053
:1009F000F80195878487F801848595850F90DF91AC
:100A0000CF911F910F9108958FEF9FEFF1CFFC01D0
:100A10008485958597FD0BC09FB7F89482E08093FD
:100A2000E9008091F2009FBF90E0019608959FB782
:100A3000F89482E08093E9008091F2009FBF90E0FB
:100A400008952091BB01260F3327331F2132310532
:100A5000ECF420918702FC0190E080E0243069F002
:100A600082E00895A091BB012191AC0145565E4FF3
:100A7000A40FB52FB11D2C930196861798F3809182
:100A8000BB01680F6093BB0180E0089581E0089589
:100A90001092870281E0809366021092610261E009
:100AA00082E00E94CE0261E083E00E94CE02E9EB88
:100AB000F0E080818E7F808380818D7F808388E4D9
:100AC0008093B80085E48093BC000895CF93DF93B2
:100AD00091E090939A018823B9F0C091B800D09129
:100AE000BA008091BC008A7B8093BC0060E082E009
:100AF0000E94CE0260E083E00E94CE020E94480580
:100B0000D093BA00C093B800DF91CF910895CF92EF
:100B1000DF92EF92FF920F931F93CF93DF93D82F23
:100B2000C62F613208F098C00E94FC026B017C0164
:100B30008091870281116BC081E08093870280934E
:100B400066029FEF90936502109264029C0F90934F
:100B500063028093620280916202DD0FD82BD093F2
:100B6000620280916102813009F078C010926102C6
:100B70000E94FC026B017C01809162028093BB00A9
:100B80008091890290918A02A0918B02B0918C028F
:100B9000892B8A2B8B2BA1F00E94FC0200918902E9
:100BA00010918A0220918B0230918C026C197D0980
:100BB0008E099F09061717072807390708F448C048
:100BC0008091BC0083FDD8CF85EC8093BC000E944F
:100BD000FC026B017C0180918702813009F440C0E6
:100BE000809164028C1710F4C0916402E1E4F2E099
:100BF000A7E6B2E080E08C1355C08C2FDF91CF9137
:100C00001F910F91FF90EF90DF90CF90089580910A
:100C1000890290918A02A0918B02B0918C02892B5B
:100C20008A2B8B2B09F484CF0E94FC02009189024D
:100C300010918A0220918B0230918C026C197D09EF
:100C40008E099F09061717072807390708F070CF84
:100C5000809188020E946605C0E0CFCF85EEB5CFB7
:100C60008091890290918A02A0918B02B0918C02AE
:100C7000892B8A2B8B2B09F4AECF0E94FC020091AA
:100C8000890210918A0220918B0230918C026C199A
:100C90007D098E099F09061717072807390708F0ED
:100CA0009ACFD6CF91919D938F5FA5CF8F929F9230
:100CB000AF92BF92CF92DF92EF92FF920F931F936A
:100CC000CF93DF93D0914002D13208F0D7C0182FD4
:100CD000C0913F020E94FC026B017C01809187025F
:100CE00081116BC082E080938702109366028FEFC0
:100CF0008093650210926402D0936302AFE1B2E088
:100D0000E1E4F2E080E0D81391C010926202809199
:100D10006202CC0FC82BC0936202809161028130C5
:100D200009F088C0109261020E94FC026B017C01F4
:100D3000809162028093BB008091890290918A0227
:100D4000A0918B02B0918C02892B8A2B8B2BA1F066
:100D50000E94FC020091890210918A0220918B026C
:100D600030918C026C197D098E099F0906171707AF
:100D70002807390708F442C08091BC0083FDD8CF12
:100D800085EC8093BC000E94FC026B017C01809189
:100D90008702823009F450C0809165028F3F09F4C8
:100DA0006FC080916502803209F46CC08091650249
:100DB000803309F469C084E026C080918902909153
:100DC0008A02A0918B02B0918C02892B8A2B8B2BEB
:100DD00009F484CF0E94FC028090890290908A02DC
:100DE000A0908B02B0908C026C197D098E099F092E
:100DF00086169706A806B90608F070CF809188027B
:100E00000E94660585E010921E0210924002109228
:100E10001D02DF91CF911F910F91FF90EF90DF9016
:100E2000CF90BF90AF909F908F9008959D91919398
:100E30008F5F69CF85EEA5CF8091890290918A025C
:100E4000A0918B02B0918C02892B8A2B8B2B09F4F9
:100E50009ECF0E94FC020091890210918A0220918B
:100E60008B0230918C026C197D098E099F0906173F
:100E700017072807390708F08ACFC0CF81E0C3CF12
:100E800080E0C1CF82E0BFCF83E0BDCF0895E09185
:100E9000080280910702E81730F4F0E0E959FD4FAD
:100EA000808190E008958FEF9FEF08959091080260
:100EB000809107022FEF3FEF981748F4E92FF0E0F9
:100EC000E959FD4F208130E09F5F90930802C901EE
:100ED00008958091070290910802891B990B08954B
:100EE000CF92DF92EF92FF920F931F93CF93DF93F6
:100EF0007C01CB018A0120911D02222389F0EB01A4
:100F00006B01C40ED51ECC15DD0569F06991D701C2
:100F1000ED91FC910190F081E02DC7010995F3CF8F
:100F2000642F0E942105C801DF91CF911F910F917D
:100F3000FF90EF90DF90CF900895CF93DF931F92B3
:100F4000CDB7DEB7698320911D022223F9F02091ED
:100F50004002203258F021E030E0FC01338322834C
:100F600090E080E00F90DF91CF91089580911E0274
:100F7000E82FF0E0E15EFD4F998190838F5F8093D1
:100F80001E028093400281E090E0ECCF61E0CE0150
:100F900001960E942105F7CFCF93C42F91E0909343
:100FA0001D0280933F0210921E02109240028DEDAE
:100FB00092E00E949D076C2F8DED92E00E949D07AC
:100FC00081E00E94560680931B02CF910895809184
:100FD0009701E0919801F0919901882339F084916B
:100FE0009FEB980F9A3120F4805E08958081F8CFAE
:100FF000803269F42091980130919901A9014F5FE5
:101000005F4F5093990140939801232B01F7089566
:101010001F93CF93DF930E94E707D0E0C0E01AE070
:1010200090ED980F9A30B8F41C9F90011D9F300DE1
:101030001124E901C80FD11D87FDDA95E097809151
:10104000980190919901019690939901809398014C
:101050000E94E707E5CFCE01DF91CF911F91089560
:101060003F924F925F926F927F928F929F92AF9238
:10107000BF92CF92DF92EF92FF920F931F93CF9385
:10108000DF937B01D42E2091940121111BC021E01C
:1010900020939401109272001092C00034E03093BB
:1010A000C10039E03093C2002093C30023E02093B5
:1010B000BF0028EE2093D1001092BF001092D20002
:1010C000579A789410920901CC24C39497FF03C0D7
:1010D0009F77AAE0CA2EC8E2CC9EC02D1124D0E092
:1010E0008C179D0750F021E0EC01C21206C0C131FF
:1010F00087E2D80710F0C0E1D7E24E01B12CA12C55
:101100004C2C512C712C612C9E01AFEFB7E00E944A
:101110001D1A640D751D861D971D969587957795EB
:101120006795A30192010E94D61960E072E18AE7F7
:1011300090E0312C3394621773078407950728F0E9
:101140009695879577956795F5CFA30192010E94B3
:10115000A6199E0136952795620F731F811D911D5B
:10116000A50194010E94D619722E022F132F2AE096
:10117000C21207C0CE0105966AE070E00E94C21953
:10118000EB01C83E83E0D80759F09701DE010E94C9
:101190001D1A28EE33E040E050E00E94F819790172
:1011A000109272008091C100807F83298093C100DA
:1011B0001093BF007092D1004D2D403108F04FE0E8
:1011C00080E190E0841B910902C0169507958A95ED
:1011D000E2F71093BF000093D200F0929601E092E4
:1011E000950189B38FEF89BB84E080937200DF9112
:1011F000CF911F910F91FF90EF90DF90CF90BF9014
:10120000AF909F908F907F906F905F904F903F90A6
:1012100008950F931F93CF93DF93EC01888581117D
:101220002FC0898590E0FC01E059FC4F8F5A9C4FFC
:1012300021E028872A85222309F44CC02491FC014F
:1012400084918823C9F090E0880F991FFC01E4562F
:10125000FD4F45915491FC01ED5BFC4FA591B4917C
:101260009FB7F894FA013081822F80958323808381
:10127000EC91E22BEC939FBF8FE090E00197F1F7A8
:10128000298530E0F901E157FC4F8491F901E059DB
:10129000FC4F0491F901EF5AFC4F1491112309F40A
:1012A00037C081110E948202E12FF0E0EE0FFF1F94
:1012B000E655FD4FA591B491EC910E2331E009F470
:1012C00030E0832F2B8582278170DF91CF911F9192
:1012D0000F9108952491FC018491882309F4CCCFC7
:1012E00090E0880F991FFC01E456FD4F4591549101
:1012F000FC01ED5BFC4FA591B4919FB7F894FA0106
:1013000080812095822380838C91E22FE823B2CFC5
:1013100080E0D8CF2E98269A2D98259A2A98229A3E
:101320002998219A80EA8093800081E1809381004E
:1013300080E991E090938700809386001092890065
:101340001092880010928B0010928A000895CF931B
:10135000DF93EC0180919001811105C081E08093C1
:1013600090010E948A0980E0D7FF04C0D195C19501
:10137000D10981E0D0938B00C0938A00811102C013
:101380002A9801C02A9A229ADF91CF910895CF938B
:10139000DF93EC0180919001811105C081E0809381
:1013A00090010E948A09D0938900C09388002998EF
:1013B000219ADF91CF910895289A209A089528982C
:1013C000209A08955F926F927F928F929F92AF9230
:1013D000BF92CF92DF92EF92FF920F931F93CF9322
:1013E000DF935C01D62FC42FF22E132F0E94DF094A
:1013F0008D2F806B0E9402028C2F82958F708061EE
:101400000E9402028C2F8F700E9402020E94DC094F
:10141000CF2DD12F0C0F1D2F111D95E0692EC01758
:10142000D10709F444C07990872D8052990B9C0113
:10143000629EC001639E900D1124769C4001112490
:10144000F12CE12C9C0124553F4F69013FE13715F8
:1014500008F5F601EE0DFF1DE491F0E084E0F5954E
:10146000E7958A95E1F7E457FD4F5490852D0E944A
:101470000202852D0E9402029FEFE91AF90A25E077
:10148000E216F10419F780E00E94020280E00E9457
:101490000202C5CF87E0E0E08715F8F2F401EE0D17
:1014A000FF1DE254FF4FEA0DFB1DE081D6CFDF9117
:1014B000CF911F910F91FF90EF90DF90CF90BF9051
:1014C000AF909F908F907F906F905F9008955F9204
:1014D0006F927F928F929F92AF92BF92CF92DF9244
:1014E000EF92FF920F931F93CF93DF935C01D62F60
:1014F000C42FF22E132F0E94DF098D2F806B0E94C4
:1015000002028C2F82958F7080610E9402028C2FC4
:101510008F700E9402020E94DC09CF2DD12F0C0F88
:101520001D2F111D85E0682EC017D10709F440C09A
:101530007990872D8052990B9C01629EC001639E19
:10154000900D1124769C40011124F12CE12C9C017A
:1015500024553F4F69013FE13715E8F4F601EE0DE0
:10156000FF1DE491EF70F0E0E457FD4F5490852D9E
:101570000E940202852D0E9402029FEFE91AF90AD9
:1015800025E0E216F10439F780E00E94020280E0D3
:101590000E940202C9CF87E0E0E0871518F3F4014A
:1015A000EE0DFF1DE254FF4FEA0DFB1DE081DACF87
:1015B000DF91CF911F910F91FF90EF90DF90CF902F
:1015C000BF90AF909F908F907F906F905F900895A5
:1015D000282F21FB0EF0209820FB0EF028980EF407
:1015E000289A21FB0EF4209A0895282F21FB0EF053
:1015F000559820FB0EF05D980EF45D9A21FB0EF4D9
:10160000559A08950E94FC027093880160938701A7
:101610001092EC011092ED011092EE011092EF0188
:101620000895CF93DF93EC0188810E94F50A8981A8
:101630000E94E80AE9EEF0E010828C818093F000CD
:101640008B8180838A818093E200DF91CF9108951E
:10165000FC01A2EEB0E08C9182831C92A9EEB0E076
:101660008C9183831C92A0EFB0E08C9184831C92B8
:1016700020E05D99216055992260208320E028991F
:1016800021602099226021835D98559A0895CF9218
:10169000DF92EF92FF920F93CF93DF93EC017C01E7
:1016A00084E0E80EF11CC7010E94280B6E0184E162
:1016B000C80ED11C08E0960143E162E0CE010E9411
:1016C000670A960143E163E0CE010E94E2096E01E0
:1016D00089E2C80ED11C960143E165E0CE010E946B
:1016E000670A960143E166E0CE010E94E209C70164
:1016F000DF91CF910F91FF90EF90DF90CF900C94FE
:10170000110BEF92FF920F931F93CF93DF938C01F6
:101710007C0184E0E80EF11CC7010E94280B0E94A6
:10172000DF0982E00E940202C0E00E94DF098C2FE4
:10173000806B0E94020280E10E9402020E94DC098A
:10174000D0E080E00E940202DF5FD038D1F7CF5FA7
:10175000C83059F7C7010E94110BF8011286DF91BA
:10176000CF911F910F91FF90EF900895AF92BF928C
:10177000CF92DF92EF92FF920F931F93CF93DF935D
:101780007C01122F683008F043C0423008F040C09E
:1017900088E0861B8217D0F12223D1F1C42FCC0F11
:1017A000C40FDCE06D9FD02D1124DD5E670124E1C4
:1017B000C20ED11C862F90E025E1429F800D911D25
:1017C0001124C80ED91E570184E0A80EB11CC50112
:1017D0000E94280B62E06C0F012F96014D2FC7016C
:1017E0000E94670A63E06C0F96014D2FC7010E94AB
:1017F000E209C501DF91CF911F910F91FF90EF900A
:10180000DF90CF90BF90AF900C94110B182FC6CFE4
:10181000DF91CF911F910F91FF90EF90DF90CF90CC
:10182000BF90AF900895089590E080E00895FF92F2
:101830000F931F93CF93DF9391E090931D029BE64C
:1018400090933F0210921E0210924002682F8DED7D
:1018500092E00E949D0781E00E94560680931B0241
:1018600081110DC066E08BE60E9487051092080288
:1018700080930702863049F082E380931B02DF9158
:10188000CF911F910F91FF9008958DED92E00E94EE
:101890005607082F8DED92E00E945607F82E8DED29
:1018A00092E00E945607D82F8DED92E00E945607D5
:1018B000182F8DED92E00E945607C82F8DED92E013
:1018C0000E94560720E03F2D202B309310022093DA
:1018D0000F0220E0312F2D2B3093120220931102A2
:1018E00020E0382F2C2B3093140220931302C7CF03
:1018F00080911C02813019F0823021F0089588EA2D
:101900000C94170C82E2FCCF8F929F92AF92BF9201
:10191000CF92DF92EF92FF920F931F930E94780C69
:10192000E0901302F09014028091EA019091EB0193
:10193000E81AF90AF0928A01E09289010E94FC02F9
:101940002091870130918801AB01421B530B9A0112
:101950007093880160938701D7010E942C1A20E0C0
:1019600030E040EE50E00E943E1AEDE8AE2EF8E383
:10197000BF2EACE0CA2EDD24D394E12CF12C00E084
:1019800010E00E947A1A49015A018091EC0190916D
:10199000ED01A091EE01B091EF01880D991DAA1DF6
:1019A000BB1D8093EC019093ED01A093EE01B093E9
:1019B000EF011F910F91FF90EF90DF90CF90BF90BC
:1019C000AF909F908F900895CF9391E090931D02D8
:1019D0009BE690933F0210921E0210924002682FE5
:1019E0008DED92E00E949D0781E00E945606C82F6F
:1019F00080931B02811116C061E08BE60E9487056F
:101A00001092080280930702813031F082E38093C4
:101A10001B028C2FCF9108958DED92E00E94560706
:101A2000C82FF7CFC0E0F5CFCF93C82F81E08093C8
:101A30001D02C0933F0210921E02109240026FE0FE
:101A40008DED92E00E949D0781E00E945606811173
:101A50000FC061E08C2F0E948705109208028093CE
:101A60000702813029F48DED92E0CF910C94560756
:101A70008FEF9FEFCF9108950E94581B85ED8093C3
:101A8000BC008091890290918A02A0918B02B09152
:101A90008C020796A11DB11D23E0B695A7959795D9
:101AA00087952A95D1F72091BC0024FD03C01092A0
:101AB000870208954091890250918A0260918B02B9
:101AC00070918C02452B462B472B69F30097A1059B
:101AD000B10541F02AE22A95F1F700C00197A1096A
:101AE000B109E1CF809188020C9466050F931F9392
:101AF000CF93DF93EC015B98539A5A98529A85E3FF
:101B00008A95F1F700005A9A529A85E38A95F1F77F
:101B10000000CE010E94810B8E010C5F1F4FC80197
:101B20000E94280B0E94DF0981EA0E94020288ECD1
:101B30000E94020281E80E9402028FEF0E940202CC
:101B40008FEA0E940202C8010E94110B81E089877E
:101B5000DF91CF911F910F910895FF920F931F93E3
:101B6000CF93DF93EC01162F042FF22E898581117C
:101B700003C0CE010E94760D8A85882319F0CE011C
:101B80000E94810B2A893B89C901959587958C0F05
:101B90009D1FE889F98920FF08C0DC012D913C9147
:101BA000E20FF31F0190F081E02D2F2D402F612FC8
:101BB000DF91CF911F910F91FF900994CF93DF9305
:101BC000DC01A354BF4F2C91283008F5EC01C4541C
:101BD000DF4FE881E531D8F4AC0175E1279F400D76
:101BE000511D1124E40FF52FF11D648BFC01238599
:101BF000211105C021E04C9168810E94AD0D8881C2
:101C00008F5F888381E090E0DF91CF91089590E02D
:101C100080E0FACF0F931F93CF93DF938C01D0E036
:101C2000C0E0F801EC0FFD1F6491662341F089EEDE
:101C300092E00E94DE0D892B11F02196F2CFCE01A9
:101C4000DF91CF911F910F91089548EA50E060E233
:101C500070E08DEF92E00E94661B1092A503109237
:101C6000A6038091F40281112AC08091F2028111B1
:101C700004C089EE92E00E94760D8091F3028823E1
:101C800021F089EE92E00E94810B2091F7023091C1
:101C9000F802C9019595879587519D4FE091F5020E
:101CA000F091F60220FF08C0DC012D913C91E20F7B
:101CB000F31F0190F081E02D09951092F402089530
:101CC000AF92BF92CF92DF92EF92FF920F931F934A
:101CD000CF93DF9382EEE82EF12CF7010081108282
:101CE000C9EED0E0B880188290EFC92ED12CF60151
:101CF000A080108220E02899216020992260822F04
:101D00002098289A90E19A95F1F713B10E94E80A79
:101D10001882F601A082B882F7010083812F809596
:101D20008170DF91CF911F910F91FF90EF90DF9025
:101D3000CF90BF90AF900895AF92BF92CF92DF92B5
:101D4000EF92FF920F931F93CF93DF9382EEE82ED3
:101D5000F12CF701D081108209EE10E0F801B0807B
:101D6000108290EFC92ED12CF601A080108220E0C5
:101D70005D99216055992260822F55985D9A90E176
:101D80009A95F1F7C9B10E94F50AF8011082F6019F
:101D9000A082F801B082F701D0838C2F90E025E07B
:101DA000959587952A95E1F7809590958170DF91BB
:101DB000CF911F910F91FF90EF90DF90CF90BF9048
:101DC000AF900895BF92CF92DF92EF92FF920F9360
:101DD0001F93CF93DF938C01EA016C012DEBC20EB0
:101DE000D11CF60130813830D8F57C01FCEBEF0EC8
:101DF000F11CF7018081853198F525E1281B90E0E1
:101E00002417150620F4C5E1D0E0C81BD90BF5E175
:101E10003F9F800D911D1124AE0198012C5E3F4F14
:101E2000820F931F0E945D1BBC2EF80183858111D8
:101E300008C02C2FF6014081F7016081C8010E9483
:101E4000AD0DF70180818B0D8083CE01DF91CF91A5
:101E50001F910F91FF90EF90DF90CF90BF9008956A
:101E6000D0E0C0E0F2CF8F929F92AF92BF920F93DB
:101E70001F93CF93DF93CDB7DEB7A1970FB6F8943A
:101E8000DEBF0FBECDBF19A2423008F44AE08E017A
:101E90000F5D1F4F842E912CB12CA12CA501940114
:101EA0000E94D619E62FB901CA01EA3044F5E05D77
:101EB000D801EE938D01232B242B252B79F790E06D
:101EC00080E0109769F0FD0101900020E9F731975B
:101ED000AF014A1B5B0BBD0189EE92E00E94E20E4E
:101EE000A1960FB6F894DEBF0FBECDBFDF91CF91A4
:101EF0001F910F91BF90AF909F908F900895E95CD4
:101F0000D7CF1F920F920FB60F9211242F933F93AA
:101F10008F939F93AF93BF938091F1019091F201C2
:101F2000A091F301B091F4013091F00123E0230F6F
:101F30002D3758F50196A11DB11D2093F001809316
:101F4000F1019093F201A093F301B093F401809119
:101F5000F5019091F601A091F701B091F801019679
:101F6000A11DB11D8093F5019093F601A093F70197
:101F7000B093F801BF91AF919F918F913F912F91B5
:101F80000F900FBE0F901F90189526E8230F029612
:101F9000A11DB11DD2CF1F920F920FB60F92112427
:101FA0002F933F934F935F936F937F938F939F9361
:101FB000AF93BF93EF93FF93E0911E01F0911F0148
:101FC0000995FF91EF91BF91AF919F918F917F9173
:101FD0006F915F914F913F912F910F900FBE0F9096
:101FE0001F9018951F920F920FB60F9211242F93E6
:101FF0003F934F935F936F937F938F939F93AF9391
:10200000BF93EF93FF93E0911C01F0911D0109959F
:10201000FF91EF91BF91AF919F918F917F916F91C0
:102020005F914F913F912F910F900FBE0F901F9096
:1020300018951F920F920FB60F9211242F933F9372
:102040004F935F936F937F938F939F93AF93BF93C0
:10205000EF93FF93E0911A01F0911B010995FF9115
:10206000EF91BF91AF919F918F917F916F915F9110
:102070004F913F912F910F900FBE0F901F90189589
:102080001F920F920FB60F9211242F933F934F93ED
:102090005F936F937F938F939F93AF93BF93EF93D0
:1020A000FF93E0911801F09119010995FF91EF91CB
:1020B000BF91AF919F918F917F916F915F914F9160
:1020C0003F912F910F900FBE0F901F9018951F9268
:1020D0000F920FB60F9211242F933F934F935F935C
:1020E0006F937F938F939F93AF93BF93EF93FF93E0
:1020F000E0911601F09117010995FF91EF91BF91C1
:10210000AF919F918F917F916F915F914F913F918F
:102110002F910F900FBE0F901F9018951F920F9246
:102120000FB60F9211248F939F938091E1009091AD
:10213000E100937F9093E10083FF0FC01092E900CC
:1021400091E09093EB001092EC0092E39093ED00FD
:102150001092060298E09093F00082FF22C093E074
:102160009093E9009091F200992319F09AE39093EB
:10217000E8009091E301992341F09091E30191509F
:102180009093E301911101C05D9A9091050299230A
:1021900041F090910502915090930502911101C078
:1021A000289A84FF18C08091E2008E7E816080931F
:1021B000E2008091E1008F7E8093E1008091E40154
:1021C0008E7E80618093E4019F918F910F900FBE6E
:1021D0000F901F90189580FFF7CF8091E2008E7EC0
:1021E00080618093E2008091E1008E7E8093E10027
:1021F0008091E4018E7E8160E5CF1F920F920FB631
:102200000F921124CF92DF92EF92FF920F931F93C0
:102210002F933F934F935F936F937F938F939F93EE
:10222000AF93BF93EF93FF93CF93DF93CDB7DEB719
:102230006C97DEBFCDBF1092E9008091E80083FF6C
:1022400025C068E0CE0145960E940E0482EF80937F
:10225000E8008D8987FF39C09091E80090FFFCCF9E
:10226000982F907609F034C19E894F89588D2F8917
:10227000F88C911131C0803861F58091E50180932F
:10228000F1001092F1008EEF8093E8006C960FB68B
:10229000F894DEBF0FBECDBFDF91CF91FF91EF91DC
:1022A000BF91AF919F918F917F916F915F914F916E
:1022B0003F912F911F910F91FF90EF90DF90CF9062
:1022C0000F900FBE0F901F9018959EEF9093E8000F
:1022D000C7CF1092F100D5CF913059F48111D3CFEF
:1022E0004130510581F68091E5018D7F8093E501B4
:1022F000CACF933049F48111C6CF4130510519F648
:102300008091E5018260F2CF953041F48091E80040
:1023100080FFFCCF20682093E300B5CF963009F012
:10232000A9C00B8D1C8D22E01092E9001092E101F2
:102330001092E001F2122EC01092DF011092DE0125
:102340000E94DD031F8299E09983FA8291E09E83C7
:1023500090EA98879AEF99872091E0013091E10106
:10236000275F3F4F3C832B838D831092E9001092AF
:10237000E1011092E0011093DF010093DE0149E0DA
:1023800050E0BE016F5F7F4F80E00E94B7030E9464
:10239000DD0379CF1093DF010093DE010E946E020E
:1023A000DC0112960D911C910115110509F451C122
:1023B000D801ED91FC910480F581E02DBE016B5EAA
:1023C0007F4FC8010995009709F03EC1F8010085CB
:1023D0001185EACFF3E0FF120EC08F89882309F43C
:1023E00040C0823061F440E862E183E293E00E9401
:1023F0008403811148CF81E28093EB0047CF813085
:1024000029F440E862E180E193E0F1CF833099F76D
:102410000E946E02DC011296ED90FC908E010F5F1F
:102420001F4F6801E114F10479F0D701ED91FC919F
:102430000680F781E02DB801C7010995080F111D2D
:10244000F701E084F184EECFD8011C92F6010190EF
:102450000020E9F73197BF016C197D0940E0C60102
:10246000C6CF6AEF72E0FB01449150E080E80E9421
:10247000B70309CF973009F4BECF983021F481E03B
:102480008093F10000CF993009F0FDCE837009F000
:10249000B2CFE9E3F1E081E031E096E3219122233C
:1024A00071F08093E9003093EB00DF0111972C91DC
:1024B0002093EC009093ED008F5F873079F78EE7E3
:1024C0008093EA001092EA008F8980930602DBCEA7
:1024D0008B8D9C8D1092E9001092E1011092E00129
:1024E0009093DF018093DE01898D811192C08E89E6
:1024F0009D89913A49F4813209F07DCF47E050E05F
:102500006EE071E080E0B3CF913209F074CF833296
:1025100069F48F89988DB0E0A0E080930A019093D0
:102520000B01A0930C01B0930D01ADCE803269F484
:102530008091E80082FFFCCF67E08EE091E00E948E
:102540000E048BEF8093E8009ECE823209F09BCE82
:102550008F8980931501EEEFFFE7859194918B3F72
:102560009C4D51F1E0E0F8E080910E0190910F0157
:10257000A0911001B0911101803B9440A105B105DB
:10258000F1F48091150180FD1AC0EE3F8AE0F80752
:1025900089F587E797E79183808380916000809336
:1025A000E20188E19BE00FB6F894A8958093600063
:1025B0000FBE9093600067CEEEEFFAE0D5CF80813A
:1025C00091818737974709F05ECEA895809160008A
:1025D0008861809360008091E20180936000EE3F0B
:1025E0002AE0F20789F08091FE0A9091FF0A918318
:1025F000808349CE808191818737980751F29093EB
:10260000FF0A8093FE0AC5CF1092FF0A1092FE0ABD
:102610003ACE0E946E02DC0112960D911C910115BA
:10262000110509F4E8CED801ED91FC910190F081FB
:10263000E02DBE016B5E7F4FC8010995811123CE4D
:10264000F80100851185EBCF181619060CF41BCE86
:10265000D2CEF1E0FF12BECE6EEF72E004CF1F9239
:102660000F920FB60F9211242F933F934F935F93C6
:102670006F937F938F939F93AF93BF93EF93FF934A
:102680008091B900887F803609F44AC0F0F588321D
:1026900009F4A7C018F5803109F49BC0B8F4882369
:1026A00009F4F9C0883009F494C0FF91EF91BF910B
:1026B000AF919F918F917F916F915F914F913F91DA
:1026C0002F910F900FBE0F901F901895883109F42D
:1026D00088C0803251F78093650214C0803409F4B9
:1026E0009DC040F48033B9F38833F9F680936502D6
:1026F00085ECB0C0803509F485C0883509F496C0F2
:10270000883499F60E943E0DD0CF883909F48CC0E8
:1027100038F5883729F050F4883611F0803729F6DB
:1027200083E0809387021092DD0157C0883809F456
:102730007BC0803919F0803809F0B7CF8091DD0176
:10274000803208F071C0E091DD0181E08E0F80934E
:10275000DD018091BB00F0E0E354FE4F80833DC07B
:10276000803B39F0E0F4803A09F479C0883A09F006
:102770009CCF84E0809387021092BC011092BB0131
:10278000E091E801F091E90109958091BB01811187
:102790000FC081E08093BB0110929B0109C0803C77
:1027A00009F4A6CF883C09F4A3CF883B09F07DCF7C
:1027B000E091BC0181E08E0F8093BC01F0E0E55612
:1027C000FE4F80818093BB009091BC018091BB0142
:1027D00029C0809162028093BB0085EC8093BC008D
:1027E00064CF9091640280916302981758F5E0914C
:1027F000640281E08E0F80936402F0E0EF5BFD4F96
:102800008081E9CFE091640281E08E0F80936402C1
:102810008091BB00F0E0EF5BFD4F808390916402FC
:10282000809163029817C8F285E8D8CFE0916402DE
:1028300081E08E0F809364028091BB00F0E0EF5B3B
:10284000FD4F80838091660281115CCF81E080938F
:10285000610284EA8093BC001092870226CF85EC47
:102860008093BC00109287028091DD01803230F4A9
:10287000E091DD01F0E0E354FE4F10826091DD0154
:1028800070E0E091E601F091E7018DEB91E00995B0
:102890001092DD010ACF1092650234CF1F920F9281
:1028A0000FB60F9211244F925F926F927F928F9288
:1028B0009F92AF92BF92CF92DF92EF92FF920F93CF
:1028C0001F932F933F934F935F936F937F938F93B8
:1028D0009F93AF93BF93CF93DF93EF93FF93C091F9
:1028E0009501D0919601CE01019790939601809326
:1028F00095012097A1F51092720078948091C10003
:10290000807F84608093C10083E08093BF0088EE65
:102910008093D1001092BF001092D20081E080938A
:1029200009018091980190919901892BC1F08091C2
:102930009301811114C07090080180919201882345
:1029400079F180919101882359F16091910170E0B2
:1029500040E088EE93E00E94300810929101FF91D0
:10296000EF91DF91CF91BF91AF919F918F917F9127
:102970006F915F914F913F912F911F910F91FF9018
:10298000EF90DF90CF90BF90AF909F908F907F900F
:102990006F905F904F900F900FBE0F901F90189503
:1029A0005524539470ECA72E7DE5B72EEAE04E2E09
:1029B000F4E06F2EA0EDCA2EA7E0DA2EB4E0EB2EE5
:1029C000F12C04EF11E08FE0882E912C0E94E70794
:1029D00020919801309199012F5F3F4F30939901D9
:1029E00020939801853609F473C00CF047C08136F6
:1029F00009F4B4C024F58C3309F468C08E3309F4AB
:102A000063C0813209F043C060920801D092050191
:102A1000C0920401F0920701E092060110930301B5
:102A200000930201909201018092000110929201A4
:102A3000709008018091020190910301C7CF833605
:102A400009F48FC010E00BE0843614F010E002E0CF
:102A50004CE0749E000D11240E94E707982F977F89
:102A6000933209F080C0809198019091990101966C
:102A700090939901809398010F5FEECF8D3609F402
:102A800045C054F4873651F134F18C3651F110922F
:102A900099011092980163CF823709F44CC044F435
:102AA0008F36A9F70E940808782E809308018ECFF0
:102AB000843709F443C0863751F70E940808909381
:102AC00001018093000182CF739480CF7A947ECFEE
:102AD00010E004E0BDCF10E005E0BACF10E007E061
:102AE000B7CF0E9408089093070180930601809158
:102AF00004019091050160910601709107010E9407
:102B0000C219709303016093020160CF0E94E7072E
:102B10008C3661F410929201809198019091990104
:102B20000196909399018093980150CF5092920111
:102B300010929101F1CF11E000E08ACF0E940808C5
:102B4000BC01C5010E94C219469EC001479E900D5E
:102B500011249093050180930401C9CF10E009E08E
:102B600077CF10E0E9CF8D3269F480919801909190
:102B700099010196909399018093980101500E94C8
:102B8000E707F1CFE0900201F09003018153883014
:102B900058F4E0900401F09005010E940808BC017F
:102BA000C7010E94C2197B016701D694C7940E9495
:102BB000E7078E3261F48091980190919901019616
:102BC0009093990180939801EC0CFD1CEECF8091BD
:102BD0009201882349F0C7019695879580939101CA
:102BE00080919101E81AF108C0900001D090010194
:102BF000111104C00F3F11F0C11007C040E0B70130
:102C000088EE93E00E943008AACE013128F010EF40
:102C1000100F103608F01FE5812F6CE00E94B619E6
:102C2000582F44EF450390011124210F311D2C3002
:102C3000310538F4220F331FF901E05EFE4FC081E9
:102C4000D1818730C1F0082E02C0CC0FDD1F0A945D
:102C5000E2F7823040F0CE0105966AE070E00E9413
:102C6000C219CB0102C0CE0190584C2D403108F062
:102C70004FE0B701C7CFCE0126E0880F991F2A95F4
:102C8000E1F7029665E070E0EACF1F920F920FB66F
:102C90000F9211242F933F934F936F937F938F93B2
:102CA0009F938CB1282F30E0359527953595279542
:102CB000422F417083B190E064E0959587956A95C5
:102CC000E1F78227817020918F0190918E016091B0
:102CD0008C0170918D0128279427291B330B260F17
:102CE000371F30938D0120938C0120918E0190919C
:102CF0008F01281729F0941719F091E090938B0118
:102D000080938E0140938F019F918F917F916F915E
:102D10004F913F912F910F900FBE0F901F901895DC
:102D20001F93CF93DF93EDE8F2E01382128288EED7
:102D300093E0A0E0B0E084839583A683B78323E487
:102D400031E0318320832FEF3FEF35872487EDED8E
:102D5000F2E01382128284839583A683B78385E58C
:102D600091E091838083E1EEF3E012821582108678
:102D70008EE0818711E0128713878FE791E09183BE
:102D80008083E9EDF3E01282158289E791E0918377
:102D90008083E1EDF3E01282158283E791E0918375
:102DA0008083C9EED2E01B821A8248EA50E060E2DA
:102DB00070E08DEF92E00E94661B1092D00310929B
:102DC000CF0387E49BE09D878C871F861E8686EB5A
:102DD0009BE0998B888B1B8A1A8A1A8787E691E079
:102DE00099838883DF91CF911F910895789484B55A
:102DF000826084BD84B5816084BD85B5826085BDF7
:102E000085B5816085BD80916E00816080936E0084
:102E10001092810080918100826080938100809176
:102E20008100816080938100809180008160809327
:102E30008000809191008260809391008091910048
:102E400081608093910080919000816080939000D8
:102E50008091C10084608093C1008091C100826034
:102E60008093C1008091C10081608093C1008091F6
:102E7000C30081608093C3008091C0008260809312
:102E8000C0008091C20081608093C20080917A006E
:102E9000846080937A0080917A00826080937A00C7
:102EA00080917A00816080937A0080917A008068B6
:102EB00080937A00109206021092E5011092E401CC
:102EC0008091D70081608093D70080EA8093D800FA
:102ED00089B5806189BD89B5826089BD09B400FE6C
:102EE000FDCF61E070E080E090E00E9421038091DE
:102EF000D8008F7C80618093D8008091E000807F33
:102F00008093E0008091E1008E7E8093E1008DE06F
:102F10008093E200559A209A8FEF9FEF90939A0248
:102F200080939902109208021092070210921E02DA
:102F3000109240020E94480583E593E09093E901D6
:102F40008093E80184E593E09093E7018093E601A4
:102F50008DE10E94140D8934910509F039C08BE68A
:102F60000E94140D873D910599F581E080931C0224
:102F700080911C02813009F439C0823009F472C09A
:102F800080911C02813009F4A7C0823009F4B3C0DB
:102F90000E94250E8AE393E00E940A0E479A3F9A08
:102FA00064EF71E080E090E00E942103C0E0D4E093
:102FB000C12CD12C760180911C02813009F49EC075
:102FC0008230D9F78EE10E94E40C869581709CC016
:102FD0008BE60E94140D8936910551F68EE10E9410
:102FE000140DCD9709F0C4CF82E0C0CF47E560E271
:102FF0008DE10E94CC0780911B028111C1CF40E07E
:1030000061E28DE10E94CC0780911B028111B8CF53
:1030100044E664E28DE10E94CC0780911B0281119D
:10302000AFCF40E265E28DE10E94CC0780911B02A8
:103030008111A6CF40E066E28DE10E94CC0780912D
:103040001B0281119DCF4FE760E28BE60E94CC0707
:1030500080911B02811194CF40E063E28BE60E94D5
:10306000CC078ECF40E360E18BE60E94CC078091D5
:103070001B02811185CF40E561E18BE60E94CC0700
:1030800080911B0281117CCF44E062E18BE60E94BB
:10309000CC0780911B02811173CF40E760E28EE183
:1030A0000E94CC0780911B0281116ACF40E061E24F
:1030B0008EE10E94CC0780911B02811161CF40E01C
:1030C00062E28EE10E94CC0780911B02811158CFF1
:1030D0004CE063E28EE1C3CF4FEF60E28BE60E94EB
:1030E000CC0780911B0240E263E2811151CF8BE655
:1030F0000E94CC074DCF4CE761E1F9CF87E20E94F7
:10310000E40C83FB882780F9882309F454CF0E94BC
:10311000780C8091130290911402092E000CAA0BD6
:10312000BB0BC80ED91EEA1EFB1E219709F043CF28
:1031300047983F9AC701B60120E034E040E050E0F4
:103140000E94F8193093EB012093EA010E94250EAA
:103150000E94020BC1E0D2E013E081EE93E00E94F6
:1031600009098C279FB7F8944091F1015091F20121
:103170006091F3017091F4019FBF9091E60391304B
:1031800009F445C0D8F1923009F453C0933009F4E2
:103190005AC00E94840C1092A5031092A60320919D
:1031A000EC013091ED014091EE015091EF019A0157
:1031B000552737FD5095452FA8E6B1E00E94331AF8
:1031C0006C01FF24D7FCF094EF2C4AE0C701B60154
:1031D000F7FE0DC06DE289EE92E00E94DE0D6627DB
:1031E0007727CB016C197D098E099F094AE00E945F
:1031F000330F86E393E00E940A0EAFCF8111C9CF4F
:103200005093E8034093E703C093E603C2CF8823BB
:1032100019F01092E603BDCF8091E7039091E80387
:10322000481B590B4F30510508F4B3CFD093E60338
:10323000B0CF882309F4ADCF5093E8034093E70360
:103240001093E603A6CF882389F38091E70390913A
:10325000E803481B590B4F30510508F49ACF1092E0
:10326000E6030E94250E00E010E08FB7F894C090AE
:10327000F101D090F201E090F301F090F4018FBFE2
:10328000D0E0C0E0C530D10509F459C086E990E02E
:103290000E94A70986E990E00E94C7092FB7F89419
:1032A0008091F1019091F201A091F301B091F401AC
:1032B0002FBF845C9940A109B109C816D906EA0656
:1032C000FB0600F790E080E00E94A70990E080E014
:1032D0000E94C70964E670E080E090E00E9421034C
:1032E0008CE99FEF0E94A70984E690E00E94C7093D
:1032F0008091EC019091ED01A091EE01B091EF0170
:103300008835994EA349BE431CF40E94840CF0CF2B
:103310000E94020B90E080E00E94A70990E080E00C
:103320000E94C7098FB7F894C090F101D090F201C4
:10333000E090F301F090F4018FBF2196A3CF011527
:10334000110509F492CF0E9400008FCFDB018F930B
:103350009F930E94331ABF91AF91A29F800D911D40
:10336000A39F900DB29F900D11240895991B79E0B1
:1033700004C0991F961708F0961B881F7A95C9F705
:1033800080950895AA1BBB1B51E107C0AA1FBB1F54
:10339000A617B70710F0A61BB70B881F991F5A95E1
:1033A000A9F780959095BC01CD010895A1E21A2E50
:1033B000AA1BBB1BFD010DC0AA1FBB1FEE1FFF1FD9
:1033C000A217B307E407F50720F0A21BB30BE40B29
:1033D000F50B661F771F881F991F1A9469F7609570
:1033E0007095809590959B01AC01BD01CF0108952A
:1033F000052E97FB1EF400940E940F1A57FD07D06C
:103400000E94D61907FC03D04EF40C940F1A509565
:103410004095309521953F4F4F4F5F4F08959095C0
:103420008095709561957F4F8F4F9F4F0895EE0F58
:10343000FF1F0590F491E02D0994A29FB001B39F66
:10344000C001A39F700D811D1124911DB29F700DAD
:10345000811D1124911D08950E941D1AB7FF089522
:10346000821B930B08950E941D1AA59F900DB49F77
:10347000900DA49F800D911D1124089597FB57FF77
:103480000C944E1A9F938F930E944E1A6E1B7F0BC3
:10349000AF91BF918A0B9B0B0895E894DF93CF9374
:1034A000FC01DB010E941D1A7F936F93E9019A01D1
:1034B000AC01BF93AF933F932F93DF010E941D1A7E
:1034C00026F46C1B7D0B820B930B9E01EB01FC0120
:1034D0000E944F1BAF91BF912F913F910E944F1BB4
:1034E000BE01CF01F9012F913F91CF91DF91089556
:1034F000689401C0E894F92FF12B12F00C94AC1AE7
:10350000A0E0B0E0E6E8FAE10C941E1B092E059459
:1035100022F40E94081B112392F4F0E80F26FFEF1B
:10352000E094F09400951095B094C094D094A19438
:10353000BF0ACF0ADF0AEF0AFF0A0F0B1F0B0E9418
:10354000B71A07FC0E94081BCDB7DEB7ECE00C945D
:103550003A1B689401C0E8948F929F92CF93DF93B7
:103560000E94B71ADF91CF919F908F900895882481
:103570009924F401E401B0E49F93AA279A158B04DF
:103580009C04ED05FE05CF05D007A10798F4AD2FEB
:10359000DC2FCF2FFE2FE92D982C892E982F872FE7
:1035A000762F652F542F432F322F2227B85031F713
:1035B000BF9127C01B2EBF91BB27220F331F441F73
:1035C000551F661F771F881F991F881C991CEE1FA7
:1035D000FF1FCC1FDD1FAA1FBB1F8A149B04EC0515
:1035E000FD05CE05DF05A007B10748F08A189B0846
:1035F000EC09FD09CE09DF09A00BB10B21601A947B
:10360000E1F62EF49401AF01BE01CD01000C089546
:103610006095709580959095309540955095219541
:103620003F4F4F4F5F4F6F4F7F4F8F4F9F4F0895CB
:103630002F923F924F925F926F927F928F929F92C2
:10364000AF92BF92CF92DF92EF92FF920F931F93B0
:10365000CF93DF93CDB7DEB7CA1BDB0B0FB6F89461
:10366000DEBF0FBECDBF09942A88398848885F84A1
:103670006E847D848C849B84AA84B984C884DF8012
:10368000EE80FD800C811B81AA81B981CE0FD11DF6
:103690000FB6F894DEBF0FBECDBFED0108950E94B6
:1036A0001D1A460F571FC81FD91F08F431960895D9
:1036B00081E090E0F8940C946D1BFB01DC0102C0EA
:1036C00001900D9241505040D8F70895DC0101C09F
:0E36D0006D9341505040E0F70895F894FFCFFD
:1036DE000F00F401D00704000401FFFFFFFF00E11B
:1036EE000000000000005503550355035503550314
:1036FE009C01B501CF01EA010702260247026902C9
:10370E008E02B502DE020A0300C1808100000000B5
:10371E00000000A0041B04C104B6040705C504E3A1
:10372E0004000000009D077007140C460769075639
:10373E0007470700000000DE0DE20E140C130C000C
:10374E00000000600E000000009C0E00000000094A
:02375E00090060
:00000001FF
