:020000040000FA
:100000000C945D000C9485000C9485000C94850084
:100010000C9485000C9485000C9485000C9485004C
:100020000C9485000C9485000C9485000C945A0364
:100030000C9485000C9485000C9485000C9485002C
:100040000C94B8020C9485000C9428030C940203C1
:100050000C9485000C9485000C9485000C9485000C
:100060000C9485000C9485000000000024002700FB
:100070002A0000000000250028002B0004040404CE
:100080000404040402020202020203030303030342
:10009000010204081020408001020408102001021F
:1000A00004081020000000080002010000030407FB
:1000B0000000000000000000160411241FBECFEF56
:1000C000D8E0DEBFCDBF11E0A0E0B1E0ECEDFCE098
:1000D00002C005900D92A631B107D9F721E0A6E143
:1000E000B1E001C01D92A23FB207E1F710E0CDE5FB
:1000F000D0E004C02197FE010E946606CC35D107EE
:10010000C9F70E948D040C946C060C94000090E0DA
:10011000FC01EC55FF4F2491FC01E057FF4F349157
:10012000FC01E458FF4FE491EE23C9F0222339F09B
:10013000233001F1A8F4213019F1223029F1F0E047
:10014000EE0FFF1FEE58FF4FA591B4918FB7F894B3
:10015000EC91611126C030953E233C938FBF0895EA
:100160002730A9F02830C9F0243049F78091800069
:100170008F7D03C0809180008F7780938000DFCFD8
:1001800084B58F7784BDDBCF84B58F7DFBCF809125
:10019000B0008F778093B000D2CF8091B0008F7D78
:1001A000F9CF3E2BDACFCF93DF9390E0FC01E057FD
:1001B000FF4F249184589F4FFC0184918823D1F0F4
:1001C00090E0880F991FFC01E859FF4FA591B49169
:1001D000FC01EE58FF4FC591D49161110EC09FB73D
:1001E000F8948C91E22FE0958E238C932881E22362
:1001F000E8839FBFDF91CF9108958FB7F894EC917A
:10020000E22BEC938FBFF6CF1F93CF93DF93EC01DC
:10021000162F88818C3008F050C061E0812F0E9439
:10022000D3008881282F30E0F901EE0FFF1FE20F85
:10023000F31FE953FE4F1F736081607C612B608365
:1002400095EB99839BE29A832CE0622F0E945A06D9
:10025000829FB001112430E020E0AB01420F531F18
:10026000FA01EE0FFF1FE40FF51FE953FE4F9081D7
:1002700096FD16C02F5F3F4F2C30310571F781116D
:100280000FC01092800082E0809381001092850060
:1002900010928400B19A80916F00826080936F0009
:1002A000E8818E2F90E0FC01EE0FFF1FE80FF91F91
:1002B000E953FE4F8081806480838881DF91CF91F4
:1002C0001F9108958E50806480937C0080917A0005
:1002D000806480937A0080917A0086FDFCCF8091C3
:1002E0007800909179000895AF92BF92CF92DF92FB
:1002F000EF92FF920F931F93CF93DF936C017B01DB
:100300008B01040F151FEB015E01AE18BF08C0176B
:10031000D10759F06991D601ED91FC910190F081DE
:10032000E02DC6010995892B79F7C501DF91CF91A1
:100330001F910F91FF90EF90DF90CF90BF90AF9003
:100340000895FC01538D448D252F30E0842F90E0DB
:10035000821B930B541710F0CF96089501970895C0
:10036000FC01918D828D981761F0A28DAE0FBF2F89
:10037000B11D5D968C91928D9F5F9F73928F90E0DF
:1003800008958FEF9FEF0895FC01918D828D98174E
:1003900031F0828DE80FF11D858D90E008958FEF8B
:1003A0009FEF0895FC01918D228D892F90E0805C54
:1003B0009F4F821B91098F73992708958AE291E0DC
:1003C0000E94D20121E0892B09F420E0822F0895B8
:1003D00080E090E0892B29F00E94DE0181110C94CD
:1003E00000000895FC01A48DA80FB92FB11DA35AD8
:1003F000BF4F2C91848D90E001968F739927848F45
:10040000A689B7892C93A089B1898C918370806467
:100410008C93938D848D981306C00288F389E02D08
:1004200080818F7D80830895EF92FF920F931F93B9
:10043000CF93DF93EC0181E0888F9B8D8C8D981397
:100440001AC0E889F989808185FF15C09FB7F894A3
:10045000EE89FF896083E889F989808183708064EF
:1004600080839FBF81E090E0DF91CF911F910F913A
:10047000FF90EF900895F62E0B8D10E00F5F1F4F49
:100480000F731127E02E8C8D8E110CC00FB607FC58
:10049000FACFE889F989808185FFF5CFCE010E94E6
:1004A000F201F1CFEB8DEC0FFD2FF11DE35AFF4F61
:1004B000F0829FB7F8940B8FEA89FB898081806274
:1004C000CFCFCF93DF93EC01888D8823B9F0AA8931
:1004D000BB89E889F9898C9185FD03C0808186FDFF
:1004E0000DC00FB607FCF7CF8C9185FFF2CF80814E
:1004F00085FFEDCFCE010E94F201E9CFDF91CF91D0
:100500000895DC01EC91EC3090F511968C911197E7
:1005100028E830E0281B310987FD3395220F331F6F
:10052000220F331F6217730784F012968C9128E50F
:1005300032E0281B310987FD3395220F331F220F2C
:10054000331F621773070CF49B0122503109220FED
:10055000331F4FB7F8948E2F90E0FC01EE0FFF1F72
:10056000E80FF91FE953FE4F328321834FBF0895EF
:100570001F920F920FB60F9211242F933F938F93D8
:100580009F93AF93BF938091260190912701A091F3
:100590002801B09129013091250123E0230F2D3747
:1005A00058F50196A11DB11D2093250180932601C8
:1005B00090932701A0932801B093290180912101F4
:1005C00090912201A0912301B09124010196A11DD7
:1005D000B11D8093210190932201A0932301B09338
:1005E0002401BF91AF919F918F913F912F910F90D7
:1005F0000FBE0F901F90189526E8230F0296A11D9D
:10060000B11DD2CF1F920F920FB60F9211242F93CC
:100610003F934F935F936F937F938F939F93AF938A
:10062000BF93EF93FF938AE291E00E94F201FF9162
:10063000EF91BF91AF919F918F917F916F915F915A
:100640004F913F912F910F900FBE0F901F901895D3
:100650001F920F920FB60F9211242F938F939F9397
:10066000EF93FF93E0913A01F0913B018081E0919B
:100670004001F091410182FD1BC0908180914301B6
:100680008F5F8F7320914401821741F0E091430105
:10069000F0E0E65DFE4F958F80934301FF91EF916F
:1006A0009F918F912F910F900FBE0F901F901895D3
:1006B0008081F4CF1F920F920FB60F9211242F93C7
:1006C0003F934F935F936F937F938F939F93AF93DA
:1006D000BF93CF93DF93EF93FF9380911601C09167
:1006E000EB01D0E087FF24C01092850010928400B7
:1006F000809116018F5F8093160180911601082E5C
:10070000000C990B8C179D0724F4809116018C30F6
:10071000C4F18091840090918500049680349C49B6
:1007200008F47AC08091840090918500049676C088
:1007300080911601082E000C990B8C179D07C4F6AA
:10074000E09116018E2FEE0F990BFC01EE0FFF1FAB
:10075000E80FF91FE953FE4F808186FFC9CFE09172
:1007600016018E2FEE0F990BFC01EE0FFF1FE80F05
:10077000F91FE953FE4F808160E08F730E9487006C
:10078000B7CF2091840030918500E09116018E2F23
:10079000EE0F990BFC01EE0FFF1FE80FF91FE95355
:1007A000FE4F81819281820F931F909389008093E5
:1007B0008800E09116018E2FEE0F990BFC01EE0FD1
:1007C000FF1FE80FF91FE953FE4F808186FF11C01C
:1007D000E09116018E2FEE0F990BFC01EE0FFF1F1B
:1007E000E80FF91FE953FE4F808161E08F730E948B
:1007F0008700FF91EF91DF91CF91BF91AF919F91D2
:100800008F917F916F915F914F913F912F910F90B9
:100810000FBE0F901F90189580E49CE9909389007B
:10082000809388008FEF80931601E3CF10922D0103
:1008300010922C0188EE93E0A0E0B0E080932E01AE
:1008400090932F01A0933001B093310184E091E0A7
:1008500090932B0180932A0185EC90E090933701CF
:100860008093360184EC90E09093390180933801B5
:1008700080EC90E090933B0180933A0181EC90E012
:1008800090933D0180933C0182EC90E090933F0176
:1008900080933E0186EC90E090934101809340016B
:1008A00010924301109244011092450110924601AA
:1008B0008091EB018C3048F591E0980F9093EB011B
:1008C0008093EF0190E0FC01EE0FFF1FE80FF91F8E
:1008D000E953FE4F88EB9BE0928381838091EB018B
:1008E0008C30B8F491E0980F9093EB018093EC0179
:1008F00090E0FC01EE0FFF1FE80FF91FE953FE4FD8
:1009000088EB9BE09283818308958FEF8093EF01C2
:10091000E5CF8FEF8093EC010895CF93DF93CDB7B0
:10092000DEB7A1970FB6F894DEBF0FBECDBF7894A7
:1009300084B5826084BD84B5816084BD85B58260E4
:1009400085BD85B5816085BD80916E008160809395
:100950006E001092810080918100826080938100FE
:10096000809181008160809381008091800081600E
:10097000809380008091B10084608093B100809169
:10098000B00081608093B00080917A008460809391
:100990007A0080917A00826080937A0080917A0058
:1009A000816080937A0080917A00806880937A00D9
:1009B0001092C100E0913A01F0913B0182E0808306
:1009C000E0913601F09137011082E0913801F09109
:1009D00039018FEC808310924201E0913E01F09149
:1009E0003F0186E08083E0913C01F0913D018081F0
:1009F00080618083E0913C01F0913D0180818860BD
:100A00008083E0913C01F0913D018081806880838A
:100A1000E0913C01F0913D0180818F7D808368E011
:100A200070E08FEE91E00E94040167E070E08CEED0
:100A300091E00E94040160E081E10E94D30060E047
:100A400080E10E94D30060E08FE00E94D30060E06C
:100A500080E10E94D30078E8E72EF12CE8E5CE2E65
:100A6000E2E0DE2EF4EB4F2E512C612C712C8E0126
:100A7000005E1F4F8091F001B701681B710987FD6F
:100A80007395660F771F660F771F4B01770FAA08C4
:100A9000BB088091F1019601281B310987FD339530
:100AA000220F331F220F331F032E000C440B550B54
:100AB000281939094A095B09AEE1B0E00E941E0617
:100AC000A30192010E94FF05CA01B901680D791DB9
:100AD0008A1D9B1D8FEE91E00E9481028091ED01A5
:100AE000B701681B710987FD7395660F771F660F45
:100AF000771F4B01770FAA08BB088091EE01960182
:100B0000281B310987FD3395220F331F220F331F16
:100B1000032E000C440B550B281939094A095B09AF
:100B2000A8E7B0E00E941E06A30192010E94FF0503
:100B3000CA01B901680D791D8A1D9B1D8CEE91E0DB
:100B40000E94810281E10E94620190931A018093C8
:100B5000190180E10E94620190931C0180931B01A6
:100B60008FE00E94620190931E0180931D018EE030
:100B70000E9462019093200180931F01109218013E
:100B80001092170159E1A52E51E0B52E60E3362EE3
:100B900019A238A2F80101900020E9F73197AF01BE
:100BA000401B510BB8018AE291E00E94740142E0BF
:100BB00050E062E171E08AE291E00E947401F50187
:100BC000819191915F0120911701309118012817AF
:100BD000390724F490931801809317013394F4E3B8
:100BE0003F12D6CF80E090E0892B09F443CF0E94DA
:100BF000DE01882309F43ECF0E9400003BCF052E82
:100C000097FB1EF400940E94160657FD07D00E9421
:100C1000290607FC03D04EF40C9416065095409517
:100C2000309521953F4F4F4F5F4F08959095809598
:100C3000709561957F4F8F4F9F4F08950E944B068F
:100C4000A59F900DB49F900DA49F800D911D112420
:100C50000895A1E21A2EAA1BBB1BFD010DC0AA1FFD
:100C6000BB1FEE1FFF1FA217B307E407F50720F015
:100C7000A21BB30BE40BF50B661F771F881F991F90
:100C80001A9469F760957095809590959B01AC01D9
:100C9000BD01CF010895A29FB001B39FC001A39FE2
:100CA000700D811D1124911DB29F700D811D1124A5
:100CB000911D0895991B79E004C0991F961708F0BB
:100CC000961B881F7A95C9F780950895EE0FFF1F30
:100CD0000590F491E02D0994F894FFCF00000000F6
:100CE00014027401A1016102D201B001C4010D0A14
:020CF000000002
:107E0000112484B714BE81FFF0D085E080938100F7
:107E100082E08093C00088E18093C10086E0809377
:107E2000C20080E18093C4008EE0C9D0259A86E02C
:107E300020E33CEF91E0309385002093840096BBD3
:107E4000B09BFECF1D9AA8958150A9F7CC24DD24C4
:107E500088248394B5E0AB2EA1E19A2EF3E0BF2EE7
:107E6000A2D0813461F49FD0082FAFD0023811F036
:107E7000013811F484E001C083E08DD089C08234E0
:107E800011F484E103C0853419F485E0A6D080C0E4
:107E9000853579F488D0E82EFF2485D0082F10E0AE
:107EA000102F00270E291F29000F111F8ED06801E7
:107EB0006FC0863521F484E090D080E0DECF843638
:107EC00009F040C070D06FD0082F6DD080E0C81688
:107ED00080E7D80618F4F601B7BEE895C0E0D1E017
:107EE00062D089930C17E1F7F0E0CF16F0E7DF06D8
:107EF00018F0F601B7BEE89568D007B600FCFDCFD4
:107F0000A601A0E0B1E02C9130E011968C91119780
:107F100090E0982F8827822B932B1296FA010C0160
:107F200087BEE89511244E5F5F4FF1E0A038BF0790
:107F300051F7F601A7BEE89507B600FCFDCF97BE46
:107F4000E89526C08437B1F42ED02DD0F82E2BD052
:107F50003CD0F601EF2C8F010F5F1F4F84911BD097
:107F6000EA94F801C1F70894C11CD11CFA94CF0C13
:107F7000D11C0EC0853739F428D08EE10CD085E9AC
:107F80000AD08FE07ACF813511F488E018D01DD067
:107F900080E101D065CF982F8091C00085FFFCCF94
:107FA0009093C60008958091C00087FFFCCF809118
:107FB000C00084FD01C0A8958091C6000895E0E648
:107FC000F0E098E1908380830895EDDF803219F02E
:107FD00088E0F5DFFFCF84E1DECF1F93182FE3DFCA
:107FE0001150E9F7F2DF1F91089580E0E8DFEE27F6
:047FF000FF270994CA
:027FFE00040479
:00000001FF
