:020000040000FA
:100000000C945D000C9485000C9485000C94850084
:100010000C9485000C9485000C9485000C9485004C
:100020000C9485000C9485000C9485000C94480376
:100030000C9485000C9485000C9485000C9485002C
:100040000C94A6020C9485000C9416030C94F002F8
:100050000C9485000C9485000C9485000C9485000C
:100060000C9485000C9485000000000024002700FB
:100070002A0000000000250028002B0004040404CE
:100080000404040402020202020203030303030342
:10009000010204081020408001020408102001021F
:1000A00004081020000000080002010000030407FB
:1000B0000000000000000000040411241FBECFEF68
:1000C000D8E0DEBFCDBF11E0A0E0B1E0EEEFFBE095
:1000D00002C005900D92A231B107D9F721E0A2E14B
:1000E000B1E001C01D92A43EB207E1F710E0CDE5FA
:1000F000D0E004C02197FE010E94F705CC35D1075E
:10010000C9F70E947B040C94FD050C94000090E05C
:10011000FC01EC55FF4F2491FC01E057FF4F349157
:10012000FC01E458FF4FE491EE23C9F0222339F09B
:10013000233001F1A8F4213019F1223029F1F0E047
:10014000EE0FFF1FEE58FF4FA591B4918FB7F894B3
:10015000EC91611126C030953E233C938FBF0895EA
:100160002730A9F02830C9F0243049F78091800069
:100170008F7D03C0809180008F7780938000DFCFD8
:1001800084B58F7784BDDBCF84B58F7DFBCF809125
:10019000B0008F778093B000D2CF8091B0008F7D78
:1001A000F9CF3E2BDACFCF93DF9390E0FC01E057FD
:1001B000FF4F249184589F4FFC0184918823D1F0F4
:1001C00090E0880F991FFC01E859FF4FA591B49169
:1001D000FC01EE58FF4FC591D49161110EC09FB73D
:1001E000F8948C91E22FE0958E238C932881E22362
:1001F000E8839FBFDF91CF9108958FB7F894EC917A
:10020000E22BEC938FBFF6CF1F93CF93DF93EC01DC
:10021000162F88818C3008F050C061E0812F0E9439
:10022000D3008881282F30E0F901EE0FFF1FE20F85
:10023000F31FE754FE4F1F736081607C612B608366
:1002400095EB99839BE29A832CE0622F0E94EB0549
:10025000829FB001112430E020E0AB01420F531F18
:10026000FA01EE0FFF1FE40FF51FE754FE4F9081D8
:1002700096FD16C02F5F3F4F2C30310571F781116D
:100280000FC01092800082E0809381001092850060
:1002900010928400B19A80916F00826080936F0009
:1002A000E8818E2F90E0FC01EE0FFF1FE80FF91F91
:1002B000E754FE4F8081806480838881DF91CF91F5
:1002C0001F910895AF92BF92CF92DF92EF92FF926B
:1002D0000F931F93CF93DF936C017B018B01040F6E
:1002E000151FEB015E01AE18BF08C017D10759F00A
:1002F0006991D601ED91FC910190F081E02DC6014C
:100300000995892B79F7C501DF91CF911F910F9145
:10031000FF90EF90DF90CF90BF90AF900895FC01D9
:10032000538D448D252F30E0842F90E0821B930B5A
:10033000541710F0CF96089501970895FC01918D00
:10034000828D981761F0A28DAE0FBF2FB11D5D9603
:100350008C91928D9F5F9F73928F90E008958FEFA5
:100360009FEF0895FC01918D828D981731F0828D59
:10037000E80FF11D858D90E008958FEF9FEF0895B0
:10038000FC01918D228D892F90E0805C9F4F821B14
:1003900091098F73992708958CE191E00E94C00123
:1003A00021E0892B09F420E0822F089580E090E07D
:1003B000892B29F00E94CC0181110C940000089532
:1003C000FC01A48DA80FB92FB11DA35ABF4F2C91CA
:1003D000848D90E001968F739927848FA689B789C1
:1003E0002C93A089B1898C91837080648C93938DB8
:1003F000848D981306C00288F389E02D80818F7D5B
:1004000080830895EF92FF920F931F93CF93DF9312
:10041000EC0181E0888F9B8D8C8D98131AC0E88940
:10042000F989808185FF15C09FB7F894EE89FF890F
:100430006083E889F98980818370806480839FBFAD
:1004400081E090E0DF91CF911F910F91FF90EF90AD
:100450000895F62E0B8D10E00F5F1F4F0F731127BD
:10046000E02E8C8D8E110CC00FB607FCFACFE889F8
:10047000F989808185FFF5CFCE010E94E001F1CF9F
:10048000EB8DEC0FFD2FF11DE35AFF4FF0829FB76C
:10049000F8940B8FEA89FB8980818062CFCFCF935C
:1004A000DF93EC01888D8823B9F0AA89BB89E8899C
:1004B000F9898C9185FD03C0808186FD0DC00FB642
:1004C00007FCF7CF8C9185FFF2CF808185FFEDCFC0
:1004D000CE010E94E001E9CFDF91CF910895DC01C8
:1004E000EC91EC3090F511968C91119728E830E062
:1004F000281B310987FD3395220F331F220F331F2D
:100500006217730784F012968C9128E532E0281B5D
:10051000310987FD3395220F331F220F331F6217D6
:1005200073070CF49B0122503109220F331F4FB780
:10053000F8948E2F90E0FC01EE0FFF1FE80FF91FDB
:10054000E754FE4F328321834FBF08951F920F92CD
:100550000FB60F9211242F933F938F939F93AF93D6
:10056000BF938091180190911901A0911A01B09147
:100570001B013091170123E0230F2D3758F5019609
:10058000A11DB11D209317018093180190931901AB
:10059000A0931A01B0931B01809113019091140153
:1005A000A0911501B09116010196A11DB11D809376
:1005B000130190931401A0931501B0931601BF91FC
:1005C000AF919F918F913F912F910F900FBE0F9000
:1005D0001F90189526E8230F0296A11DB11DD2CFBA
:1005E0001F920F920FB60F9211242F933F934F93A8
:1005F0005F936F937F938F939F93AF93BF93EF938B
:10060000FF938CE191E00E94E001FF91EF91BF9197
:10061000AF919F918F917F916F915F914F913F919A
:100620002F910F900FBE0F901F9018951F920F9251
:100630000FB60F9211242F938F939F93EF93FF93F5
:10064000E0912C01F0912D018081E0913201F09137
:10065000330182FD1BC09081809135018F5F8F73C4
:1006600020913601821741F0E0913501F0E0E45E1F
:10067000FE4F958F80933501FF91EF919F918F9160
:100680002F910F900FBE0F901F9018958081F4CF7F
:100690001F920F920FB60F9211242F933F934F93F7
:1006A0005F936F937F938F939F93AF93BF93CF93FA
:1006B000DF93EF93FF9380911201C091DD01D0E0B1
:1006C00087FF24C01092850010928400809112014F
:1006D0008F5F8093120180911201082E000C990BFC
:1006E0008C179D0724F4809112018C30C4F1809105
:1006F000840090918500049680349C4908F47AC067
:100700008091840090918500049676C080911201BA
:10071000082E000C990B8C179D07C4F6E09112016E
:100720008E2FEE0F990BFC01EE0FFF1FE80FF91F44
:10073000E754FE4F808186FFC9CFE09112018E2FD2
:10074000EE0F990BFC01EE0FFF1FE80FF91FE754A6
:10075000FE4F808160E08F730E948700B7CF2091A9
:10076000840030918500E09112018E2FEE0F990BDD
:10077000FC01EE0FFF1FE80FF91FE754FE4F8181C8
:100780009281820F931F9093890080938800E0915B
:1007900012018E2FEE0F990BFC01EE0FFF1FE80FD9
:1007A000F91FE754FE4F808186FF11C0E0911201CE
:1007B0008E2FEE0F990BFC01EE0FFF1FE80FF91FB4
:1007C000E754FE4F808161E08F730E948700FF91A4
:1007D000EF91DF91CF91BF91AF919F918F917F91D9
:1007E0006F915F914F913F912F910F900FBE0F909E
:1007F0001F90189580E49CE990938900809388006D
:100800008FEF80931201E3CF10921F0110921E010F
:1008100088EE93E0A0E0B0E0809320019093210166
:10082000A0932201B093230184E091E090931D01F5
:1008300080931C0185EC90E090932901809328011E
:1008400084EC90E090932B0180932A0180EC90E05F
:1008500090932D0180932C0181EC90E090932F01D7
:1008600080932E0182EC90E09093310180933001CF
:1008700086EC90E090933301809332011092350121
:100880001092360110923701109238018091DD01EB
:100890008C3048F591E0980F9093DD018093E10151
:1008A00090E0FC01EE0FFF1FE80FF91FE754FE4F29
:1008B00088EB9BE0928381838091DD018C30B8F4DA
:1008C00091E0980F9093DD018093DE0190E0FC01B0
:1008D000EE0FFF1FE80FF91FE754FE4F88EB9BE078
:1008E0009283818308958FEF8093E101E5CF8FEFAD
:1008F0008093DE010895789484B5826084BD84B5C8
:10090000816084BD85B5826085BD85B5816085BD0A
:1009100080916E00816080936E00109281008091C2
:10092000810082608093810080918100816080934A
:100930008100809180008160809380008091B1006F
:1009400084608093B1008091B00081608093B0009A
:1009500080917A00846080937A0080917A0082602E
:1009600080937A0080917A00816080937A008091F0
:100970007A00806880937A001092C100E0912C0187
:10098000F0912D0182E08083E0912801F09129010E
:100990001082E0912A01F0912B018FEC808310925C
:1009A0003401E0913001F091310186E08083E091E3
:1009B0002E01F0912F01808180618083E0912E01D2
:1009C000F0912F01808188608083E0912E01F09169
:1009D0002F01808180688083E0912E01F0912F01AA
:1009E00080818F7D808368E070E081EE91E00E94DD
:1009F000040167E070E08EED91E00E94040160E088
:100A000081E10E94D30060E080E10E94D30060E0B9
:100A10008FE00E94D30060E080E10E94D300C8E82C
:100A2000D0E008E512E054EB452E512C612C712CDE
:100A300060E0A62E60E0B62E8091E2016E01C81A39
:100A4000D10887FDD394CC0CDD1CCC0CDD1C0D2C07
:100A5000000CEE08FF088091E3019801281B310982
:100A600087FD3395220F331F220F331F032E000CF7
:100A7000440B550B2C193D094E095F09AEE1B0E05E
:100A80000E94AF05A30192010E949005CA01B9011D
:100A90006C0D7D1D8E1D9F1D81EE91E00E946F02E9
:100AA0008091DF016E01C81AD10887FDD394CC0C68
:100AB000DD1CCC0CDD1C0D2C000CEE08FF08809119
:100AC000E0019801281B310987FD3395220F331F60
:100AD000220F331F032E000C440B550B2C193D091C
:100AE0004E095F09A8E7B0E00E94AF05A30192019B
:100AF0000E949005CA01B9016C0D7D1D8E1D9F1DC0
:100B00008EED91E00E946F02A114B10409F494CF1C
:100B10000E94CC01882309F48FCF0E9400008CCF63
:100B2000052E97FB1EF400940E94A70557FD07D0E1
:100B30000E94BA0507FC03D04EF40C94A70550950B
:100B40004095309521953F4F4F4F5F4F08959095B9
:100B50008095709561957F4F8F4F9F4F08950E94AC
:100B6000DC05A59F900DB49F900DA49F800D911D55
:100B700011240895A1E21A2EAA1BBB1BFD010DC072
:100B8000AA1FBB1FEE1FFF1FA217B307E407F5073D
:100B900020F0A21BB30BE40BF50B661F771F881F19
:100BA000991F1A9469F760957095809590959B01AF
:100BB000AC01BD01CF010895A29FB001B39FC00158
:100BC000A39F700D811D1124911DB29F700D811D79
:100BD0001124911D0895991B79E004C0991F96175F
:100BE00008F0961B881F7A95C9F780950895EE0F37
:100BF000FF1F0590F491E02D0994F894FFCF0000B9
:100C00000000020262018F014F02C0019E01B20189
:107E0000112484B714BE81FFF0D085E080938100F7
:107E100082E08093C00088E18093C10086E0809377
:107E2000C20080E18093C4008EE0C9D0259A86E02C
:107E300020E33CEF91E0309385002093840096BBD3
:107E4000B09BFECF1D9AA8958150A9F7CC24DD24C4
:107E500088248394B5E0AB2EA1E19A2EF3E0BF2EE7
:107E6000A2D0813461F49FD0082FAFD0023811F036
:107E7000013811F484E001C083E08DD089C08234E0
:107E800011F484E103C0853419F485E0A6D080C0E4
:107E9000853579F488D0E82EFF2485D0082F10E0AE
:107EA000102F00270E291F29000F111F8ED06801E7
:107EB0006FC0863521F484E090D080E0DECF843638
:107EC00009F040C070D06FD0082F6DD080E0C81688
:107ED00080E7D80618F4F601B7BEE895C0E0D1E017
:107EE00062D089930C17E1F7F0E0CF16F0E7DF06D8
:107EF00018F0F601B7BEE89568D007B600FCFDCFD4
:107F0000A601A0E0B1E02C9130E011968C91119780
:107F100090E0982F8827822B932B1296FA010C0160
:107F200087BEE89511244E5F5F4FF1E0A038BF0790
:107F300051F7F601A7BEE89507B600FCFDCF97BE46
:107F4000E89526C08437B1F42ED02DD0F82E2BD052
:107F50003CD0F601EF2C8F010F5F1F4F84911BD097
:107F6000EA94F801C1F70894C11CD11CFA94CF0C13
:107F7000D11C0EC0853739F428D08EE10CD085E9AC
:107F80000AD08FE07ACF813511F488E018D01DD067
:107F900080E101D065CF982F8091C00085FFFCCF94
:107FA0009093C60008958091C00087FFFCCF809118
:107FB000C00084FD01C0A8958091C6000895E0E648
:107FC000F0E098E1908380830895EDDF803219F02E
:107FD00088E0F5DFFFCF84E1DECF1F93182FE3DFCA
:107FE0001150E9F7F2DF1F91089580E0E8DFEE27F6
:047FF000FF270994CA
:027FFE00040479
:00000001FF
