:020000040000FA
:100000000C945D000C9485000C9485000C94850084
:100010000C9485000C9485000C9485000C9485004C
:100020000C9485000C9485000C9485000C9485003C
:100030000C9485000C9485000C9485000C9485002C
:100040000C94D3000C9485000C9485000C948500CE
:100050000C9485000C9485000C9485000C9485000C
:100060000C9485000C9485000000000024002700FB
:100070002A0000000000250028002B0004040404CE
:100080000404040402020202020203030303030342
:10009000010204081020408001020408102001021F
:1000A00004081020000000080002010000030407FB
:1000B00000000000000000006D0211241FBECFEF01
:1000C000D8E0DEBFCDBF11E0A0E0B1E0E4EDF7E0A5
:1000D00002C005900D92A830B107D9F721E0A8E041
:1000E000B1E001C01D92A532B207E1F710E0CDE505
:1000F000D0E004C02197FE010E94BD02CC35D1079B
:10010000C9F70E941D010C94E8030C94000090E0D4
:10011000FC01EC55FF4F2491FC01E057FF4F349157
:10012000FC01E458FF4FE491EE23C9F0222339F09B
:10013000233001F1A8F4213019F1223029F1F0E047
:10014000EE0FFF1FEE58FF4FA591B4918FB7F894B3
:10015000EC91611126C030953E233C938FBF0895EA
:100160002730A9F02830C9F0243049F78091800069
:100170008F7D03C0809180008F7780938000DFCFD8
:1001800084B58F7784BDDBCF84B58F7DFBCF809125
:10019000B0008F778093B000D2CF8091B0008F7D78
:1001A000F9CF3E2BDACF1F920F920FB60F92112488
:1001B0002F933F938F939F93AF93BF9380911D0194
:1001C00090911E01A0911F01B091200130911C015E
:1001D00023E0230F2D3758F50196A11DB11D209363
:1001E0001C0180931D0190931E01A0931F01B093E9
:1001F00020018091180190911901A0911A01B091EC
:100200001B010196A11DB11D809318019093190146
:10021000A0931A01B0931B01BF91AF919F918F9151
:100220003F912F910F900FBE0F901F90189526E8C9
:10023000230F0296A11DB11DD2CF789484B58260A0
:1002400084BD84B5816084BD85B5826085BD85B57A
:10025000816085BD80916E00816080936E001092F8
:100260008100809181008260809381008091810073
:100270008160809381008091800081608093800004
:100280008091B10084608093B1008091B000816062
:100290008093B00080917A00846080937A0080918E
:1002A0007A00826080937A0080917A0081608093E6
:1002B0007A0080917A00806880937A001092C10061
:1002C0008091080190910901811520E4920708F0BE
:1002D000F3C0880F991F009709F4F1C00E94C30270
:1002E0009093130180931201E7E9F0E02491E3E891
:1002F000F0E08491882399F090E0880F991FFC0129
:10030000E859FF4FA591B491FC01EE58FF4F85913C
:1003100094918FB7F894EC91E22BEC938FBF61E04E
:1003200087E00E94870005E411E0C0E0D0E08FB7CD
:10033000F894C0901D01D0901E01E0901F01F09034
:1003400020018FBF00937C0080917A0080648093AD
:100350007A0080917A0086FDFCCF40917800509120
:10036000790020910A0130910B0180910C0190914C
:100370000D01A0910E01B0910F01E0911001F091DB
:100380001101EE0FFF1F6091120170911301E60F32
:10039000F71F4A01052E000CAA08BB08609108014E
:1003A00070910901261737070CF08CC02F5F3F4F63
:1003B00030930B0120930A01880D991DAA1DBB1DC6
:1003C00080930C0190930D01A0930E01B0930F0147
:1003D0005183408380911001909111010196909377
:1003E00011018093100120910801309109018217B9
:1003F000930724F0109211011092100120910A012C
:1004000030910B01B90137FF02C06F5F7F4F7595C7
:100410006795072E000C880B990B80900C0190902B
:100420000D01A0900E01B0900F01680D791D8A1D7D
:100430009B1D032E000C440B550B0E947C0284E68E
:1004400090E02436310514F084EF91E0092E000C81
:10045000AA0BBB0B4091140150911501609116013C
:1004600070911701840F951FA61FB71FC816D906D4
:10047000EA06FB06D8F06091000161276093000155
:1004800087E00E9487002FB7F89480911D0190911A
:100490001E01A0911F01B09120012FBF8093140174
:1004A00090931501A0931601B0931701209709F4BA
:1004B0003ECF0E9400003BCF8FEF9FEF0FCF81E038
:1004C00090E00CCF40805180052C000C6608770826
:1004D00084199509A609B7096FCFE8E0F1E085E036
:1004E00090E0918380831382128214821582168297
:1004F0001782118610860895052E97FB1EF400942E
:100500000E94930257FD07D00E949B0207FC03D074
:100510004EF40C94930250954095309521953F4FA1
:100520004F4F5F4F089590958095709561957F4FDF
:100530008F4F9F4F0895A1E21A2EAA1BBB1BFD01EE
:100540000DC0AA1FBB1FEE1FFF1FA217B307E407B2
:10055000F50720F0A21BB30BE40BF50B661F771F0A
:10056000881F991F1A9469F76095709580959095EA
:100570009B01AC01BD01CF010895EE0FFF1F059057
:10058000F491E02D09940F931F93CF93DF93823062
:10059000910510F482E090E0E0912301F0912401B4
:1005A00030E020E0B0E0A0E0309799F4211531056B
:1005B00009F44AC0281B390B24303105D8F58A814B
:1005C0009B816115710589F1FB0193838283FE0193
:1005D00011C0408151810281138148175907E0F011
:1005E0004817590799F4109761F012960C931297D7
:1005F00013961C933296CF01DF91CF911F910F91EB
:1006000008950093230110932401F4CF211531059F
:1006100051F04217530738F0A901DB019A01BD01DF
:10062000DF01F801C1CFEF01F9CF9093240180934E
:100630002301CDCFFE01E20FF31F8193919322504E
:10064000310939832883D7CF2091210130912201AC
:10065000232B41F4209103013091040130932201B6
:1006600020932101209101013091020121153105D2
:1006700041F42DB73EB74091050150910601241B6E
:10068000350BE0912101F0912201E217F307A0F46C
:100690002E1B3F0B2817390778F0AC014E5F5F4FD8
:1006A0002417350748F04E0F5F1F509322014093E7
:1006B0002101819391939FCFF0E0E0E09CCFCF9315
:1006C000DF930097E9F0FC01329713821282A09128
:1006D0002301B0912401ED0130E020E01097A1F456
:1006E00020813181820F931F2091210130912201BD
:1006F0002817390709F061C0F0932201E093210126
:10070000DF91CF910895EA01CE17DF07E8F54A811E
:100710005B819E0141155105B1F7E901FB83EA8335
:1007200049915991C40FD51FEC17FD0761F48081E1
:1007300091810296840F951FE901998388838281B4
:1007400093819B838A83F0E0E0E012968D919C91E7
:1007500013970097B9F52D913C911197CD01029611
:10076000820F931F20912101309122012817390710
:1007700039F6309751F51092240110922301B0936D
:100780002201A0932101BCCFD383C2834081518138
:10079000840F951FC817D90761F44E5F5F4F88819A
:1007A0009981480F591F518340838A819B8193838C
:1007B00082832115310509F0B0CFF0932401E09335
:1007C00023019ECFFD01DC01C0CF13821282D7CF5F
:0C07D000F894FFCF01000025018000001C
:107E0000112484B714BE81FFF0D085E080938100F7
:107E100082E08093C00088E18093C10086E0809377
:107E2000C20080E18093C4008EE0C9D0259A86E02C
:107E300020E33CEF91E0309385002093840096BBD3
:107E4000B09BFECF1D9AA8958150A9F7CC24DD24C4
:107E500088248394B5E0AB2EA1E19A2EF3E0BF2EE7
:107E6000A2D0813461F49FD0082FAFD0023811F036
:107E7000013811F484E001C083E08DD089C08234E0
:107E800011F484E103C0853419F485E0A6D080C0E4
:107E9000853579F488D0E82EFF2485D0082F10E0AE
:107EA000102F00270E291F29000F111F8ED06801E7
:107EB0006FC0863521F484E090D080E0DECF843638
:107EC00009F040C070D06FD0082F6DD080E0C81688
:107ED00080E7D80618F4F601B7BEE895C0E0D1E017
:107EE00062D089930C17E1F7F0E0CF16F0E7DF06D8
:107EF00018F0F601B7BEE89568D007B600FCFDCFD4
:107F0000A601A0E0B1E02C9130E011968C91119780
:107F100090E0982F8827822B932B1296FA010C0160
:107F200087BEE89511244E5F5F4FF1E0A038BF0790
:107F300051F7F601A7BEE89507B600FCFDCF97BE46
:107F4000E89526C08437B1F42ED02DD0F82E2BD052
:107F50003CD0F601EF2C8F010F5F1F4F84911BD097
:107F6000EA94F801C1F70894C11CD11CFA94CF0C13
:107F7000D11C0EC0853739F428D08EE10CD085E9AC
:107F80000AD08FE07ACF813511F488E018D01DD067
:107F900080E101D065CF982F8091C00085FFFCCF94
:107FA0009093C60008958091C00087FFFCCF809118
:107FB000C00084FD01C0A8958091C6000895E0E648
:107FC000F0E098E1908380830895EDDF803219F02E
:107FD00088E0F5DFFFCF84E1DECF1F93182FE3DFCA
:107FE0001150E9F7F2DF1F91089580E0E8DFEE27F6
:047FF000FF270994CA
:027FFE00040479
:00000001FF
