:020000040000FA
:100000000C945E000C9486000C9486000C94860080
:100010000C9486000C9486000C9486000C94860048
:100020000C9486000C9486000C9486000C94860038
:100030000C9486000C9486000C9486000C94860028
:100040000C940E020C9486000C947E020C945802C0
:100050000C9486000C9486000C9486000C94860008
:100060000C9486000C9486000000000024002700F9
:100070002A0000000008000201000003040700003D
:10008000000000000000010204081020408001026E
:1000900004081020010204081020000000002500C0
:1000A00028002B00040404040404040402020202D5
:1000B0000202030303030303B002E40311241FBE7F
:1000C000CFEFD8E0DEBFCDBF11E0A0E0B1E0E8E5C2
:1000D000FAE002C005900D92A831B107D9F721E0EE
:1000E000A8E1B1E001C01D92A83DB207E1F710E020
:1000F000CDE5D0E004C02197FE010E94F403CC3589
:10010000D107C9F70E9451030C941F050C940000FD
:1001100090E0FC01EE58FF4F2491FC01EA57FF4F9D
:100120003491FC01EC55FF4FE491EE23B9F022230A
:1001300039F02330F1F098F4213009F1223019F12F
:10014000F0E0EE0FFF1FE656FF4FA591B4918FB779
:10015000F894EC9130953E233C938FBF089527305F
:10016000A9F02830C9F0243059F7809180008F7DA4
:1001700003C0809180008F7780938000E1CF84B5A9
:100180008F7784BDDDCF84B58F7DFBCF8091B000AC
:100190008F778093B000D4CF8091B0008F7DF9CF5E
:1001A000CF93DF9390E0FC01EA57FF4F24918C55E9
:1001B0009F4FFC0184918823D1F090E0880F991F14
:1001C000FC01E859FF4FA591B491FC01E656FF4FA1
:1001D000C591D49161110EC09FB7F8948C91E22F14
:1001E000E0958E238C932881E223E8839FBFDF91E3
:1001F000CF9108958FB7F894EC91E22BEC938FBFD9
:10020000F6CFAF92BF92CF92DF92EF92FF920F9311
:100210001F93CF93DF936C017B018B01040F151F9C
:10022000EB015E01AE18BF08C017D10759F0699104
:10023000D601ED91FC910190F081E02DC601099568
:10024000892B79F7C501DF91CF911F910F91FF9015
:10025000EF90DF90CF90BF90AF900895FC01538D49
:10026000448D252F30E0842F90E0821B930B541790
:1002700010F0CF96089501970895FC01918D828D1D
:10028000981761F0A28DAE0FBF2FB11D5D968C91B6
:10029000928D9F5F9F73928F90E008958FEF9FEFF5
:1002A0000895FC01918D828D981731F0828DE80FB1
:1002B000F11D858D90E008958FEF9FEF0895FC016B
:1002C000918D228D892F90E0805C9F4F821B910938
:1002D0008F739927089581E291E00E945F0121E0E8
:1002E000892B09F420E0822F089580E090E0892B8B
:1002F00029F00E946B0181110C9400000895FC010B
:10030000A48DA80FB92FB11DA35ABF4F2C91848D76
:1003100090E001968F739927848FA689B7892C93D3
:10032000A089B1898C91837080648C93938D848D26
:10033000981306C00288F389E02D80818F7D808329
:100340000895EF92FF920F931F93CF93DF93EC01E9
:1003500081E0888F9B8D8C8D98131AC0E889F9896C
:10036000808185FF15C09FB7F894EE89FF8960836F
:10037000E889F98980818370806480839FBF81E0F0
:1003800090E0DF91CF911F910F91FF90EF90089532
:10039000F62E0B8D10E00F5F1F4F0F731127E02E0D
:1003A0008C8D8E110CC00FB607FCFACFE889F98945
:1003B000808185FFF5CFCE010E947F01F1CFEB8DCB
:1003C000EC0FFD2FF11DE35AFF4FF0829FB7F89419
:1003D0000B8FEA89FB8980818062CFCFCF93DF9337
:1003E000EC01888D8823B9F0AA89BB89E889F9894D
:1003F0008C9185FD03C0808186FD0DC00FB607FC82
:10040000F7CF8C9185FFF2CF808185FFEDCFCE01B4
:100410000E947F01E9CFDF91CF9108951F920F9243
:100420000FB60F9211242F933F938F939F93AF9307
:10043000BF9380911D0190911E01A0911F01B09169
:10044000200130911C0123E0230F2D3758F5019630
:10045000A11DB11D20931C0180931D0190931E01CD
:10046000A0931F01B0932001809118019091190170
:10047000A0911A01B0911B010196A11DB11D80939D
:10048000180190931901A0931A01B0931B01BF9119
:10049000AF919F918F913F912F910F900FBE0F9031
:1004A0001F90189526E8230F0296A11DB11DD2CFEB
:1004B0001F920F920FB60F9211242F933F934F93D9
:1004C0005F936F937F938F939F93AF93BF93EF93BC
:1004D000FF9381E291E00E947F01FF91EF91BF9134
:1004E000AF919F918F917F916F915F914F913F91CC
:1004F0002F910F900FBE0F901F9018951F920F9283
:100500000FB60F9211242F938F939F93EF93FF9326
:10051000E0913101F09132018081E0913701F09159
:10052000380182FD1BC0908180913A018F5F8F73EB
:1005300020913B01821741F0E0913A01F0E0EF5D3C
:10054000FE4F958F80933A01FF91EF919F918F918C
:100550002F910F900FBE0F901F9018958081F4CFB0
:10056000109224011092230188EE93E0A0E0B0E005
:100570008093250190932601A0932701B093280131
:100580008AE091E0909322018093210185EC90E034
:1005900090932E0180932D0184EC90E09093300194
:1005A00080932F0180EC90E0909332018093310191
:1005B00081EC90E0909334018093330182EC90E0E1
:1005C000909336018093350186EC90E0909338014A
:1005D0008093370110923A0110923B0110923C0136
:1005E00010923D011092BF011092C6011092CD01F0
:1005F0001092CE011092CF011092D00181E0809331
:10060000CC018093C9011092CA0192E09093CB0172
:100610008093BE0180E690E09093C3018093C20175
:100620000E94FA039093C8018093C701009781F15B
:1006300020E6FC0111922A95E9F780E290E0909380
:10064000C1018093C00182E090E09093C501809346
:10065000C4018091BF01882339F061E082E00E94EB
:10066000D00082E00E948800E6EAF0E0E491F0E049
:10067000EE0FFF1FE656FF4F859194919093D201A4
:100680008093D101E8E8F0E0E491E093D30108958C
:100690001092C3011092C2011092C1011092C001C8
:1006A000D2CF789484B5826084BD84B5816084BDE6
:1006B00085B5826085BD85B5816085BD80916E0000
:1006C000816080936E001092810080918100826031
:1006D000809381008091810081608093810080916E
:1006E00080008160809380008091B100846080935D
:1006F000B1008091B00081608093B00080917A0059
:10070000846080937A0080917A00826080937A007E
:1007100080917A00816080937A0080917A0080686D
:1007200080937A001092C1008091C4019091C5011C
:1007300097FD07C061E00E94D0008091C4010E9433
:10074000880081E08093BF01E0913101F091320196
:1007500082E08083E0912D01F0912E011082E091E2
:100760002F01F09130018FEC808310923901E091DC
:100770003501F091360186E08083E0913301F091FC
:100780003401808180618083E0913301F0913401F4
:10079000808188608083E0913301F0913401808111
:1007A00080688083E0913301F091340180818F7DF6
:1007B0008083C0E0D0E02097F1F30E946B01882392
:1007C000D1F30E940000F7CF8091C7019091C8013A
:1007D0000E9496048091C4019091C50197FD03C0C9
:1007E00060E00C94D0000895EE0FFF1F0590F49187
:1007F000E02D09940F931F93CF93DF9382309105DF
:1008000010F482E090E0E091D601F091D70130E061
:1008100020E0B0E0A0E0309799F42115310509F40B
:100820004AC0281B390B24303105D8F58A819B81B9
:100830006115710589F1FB0193838283FE0111C06B
:10084000408151810281138148175907E0F0481710
:10085000590799F4109761F012960C93129713961A
:100860001C933296CF01DF91CF911F910F91089584
:100870000093D6011093D701F4CF2115310551F023
:100880004217530738F0A901DB019A01BD01DF01CE
:10089000F801C1CFEF01F9CF9093D7018093D60132
:1008A000CDCFFE01E20FF31F8193919322503109C6
:1008B00039832883D7CF2091D4013091D501232BC0
:1008C00041F420910201309103013093D50120932E
:1008D000D40120910001309101012115310541F42D
:1008E0002DB73EB74091040150910501241B350BF3
:1008F000E091D401F091D501E217F307A0F42E1B8B
:100900003F0B2817390778F0AC014E5F5F4F241773
:10091000350748F04E0F5F1F5093D5014093D40127
:10092000819391939FCFF0E0E0E09CCFCF93DF9352
:100930000097E9F0FC01329713821282A091D60150
:10094000B091D701ED0130E020E01097A1F42081B3
:100950003181820F931F2091D4013091D501281746
:10096000390709F061C0F093D501E093D401DF911C
:10097000CF910895EA01CE17DF07E8F54A815B8140
:100980009E0141155105B1F7E901FB83EA834991C5
:100990005991C40FD51FEC17FD0761F48081918137
:1009A0000296840F951FE901998388838281938140
:1009B0009B838A83F0E0E0E012968D919C911397DF
:1009C0000097B9F52D913C911197CD010296820FB8
:1009D000931F2091D4013091D5012817390739F69A
:1009E000309751F51092D7011092D601B093D501EE
:1009F000A093D401BCCFD383C28340815181840FA3
:100A0000951FC817D90761F44E5F5F4F88819981A0
:100A1000480F591F518340838A819B81938382832E
:100A20002115310509F0B0CFF093D701E093D6013D
:100A30009ECFFD01DC01C0CF13821282D7CF10E020
:100A4000CDE5D0E004C0FE010E94F4032196CE352E
:100A5000D107C9F7F894FFCF0000D801800000004B
:100A60000000A10101012E01EE015F013D015101D4
:107E0000112484B714BE81FFF0D085E080938100F7
:107E100082E08093C00088E18093C10086E0809377
:107E2000C20080E18093C4008EE0C9D0259A86E02C
:107E300020E33CEF91E0309385002093840096BBD3
:107E4000B09BFECF1D9AA8958150A9F7CC24DD24C4
:107E500088248394B5E0AB2EA1E19A2EF3E0BF2EE7
:107E6000A2D0813461F49FD0082FAFD0023811F036
:107E7000013811F484E001C083E08DD089C08234E0
:107E800011F484E103C0853419F485E0A6D080C0E4
:107E9000853579F488D0E82EFF2485D0082F10E0AE
:107EA000102F00270E291F29000F111F8ED06801E7
:107EB0006FC0863521F484E090D080E0DECF843638
:107EC00009F040C070D06FD0082F6DD080E0C81688
:107ED00080E7D80618F4F601B7BEE895C0E0D1E017
:107EE00062D089930C17E1F7F0E0CF16F0E7DF06D8
:107EF00018F0F601B7BEE89568D007B600FCFDCFD4
:107F0000A601A0E0B1E02C9130E011968C91119780
:107F100090E0982F8827822B932B1296FA010C0160
:107F200087BEE89511244E5F5F4FF1E0A038BF0790
:107F300051F7F601A7BEE89507B600FCFDCF97BE46
:107F4000E89526C08437B1F42ED02DD0F82E2BD052
:107F50003CD0F601EF2C8F010F5F1F4F84911BD097
:107F6000EA94F801C1F70894C11CD11CFA94CF0C13
:107F7000D11C0EC0853739F428D08EE10CD085E9AC
:107F80000AD08FE07ACF813511F488E018D01DD067
:107F900080E101D065CF982F8091C00085FFFCCF94
:107FA0009093C60008958091C00087FFFCCF809118
:107FB000C00084FD01C0A8958091C6000895E0E648
:107FC000F0E098E1908380830895EDDF803219F02E
:107FD00088E0F5DFFFCF84E1DECF1F93182FE3DFCA
:107FE0001150E9F7F2DF1F91089580E0E8DFEE27F6
:047FF000FF270994CA
:027FFE00040479
:00000001FF
