:100000000C9463000C948B000C948B000C948B006C
:100010000C948B000C948B000C948B000C948B0034
:100020000C948B000C948B000C948B000C948B0024
:100030000C948B000C948B000C948B000C948B0014
:100040000C945E040C948B000C94CE040C94A804C5
:100050000C948B000C948B000C948B000C948B00F4
:100060000C948B000C948B000000000024002700EF
:100070002A000000000023002600290000000008DC
:10008000000201000003040700000000000000005F
:10009000010204081020408001020408102001021F
:1000A0000408102000000000250028002B00040494
:1000B0000404040404040202020202020303030310
:1000C00003030005690711241FBECFEFD8E0DEBF90
:1000D000CDBF11E0A0E0B1E0E6EAF1E102C0059099
:1000E0000D92A237B107D9F722E0A2E7B1E001C033
:1000F0001D92AA33B207E1F710E0C2E6D0E004C0D7
:100100002197FE010E949B07C136D107C9F70E94C3
:10011000A1050C94C6080C9400008F929F92AF9298
:10012000BF92CF92DF92EF92FF920F931F93FC0149
:100130004B01AA24BB24C52ED62EE72EFF24BC2DAE
:10014000A42F90912802B82C992391F0A92FB0E008
:10015000A89D9001A99D300DB89D300D1124B32E9E
:100160009C9D60011124BD2D949F80011124A12F1D
:1001700040912E022091290230912A0280912B0277
:10018000481324C0CF01880F991F8E0F9F1F820F25
:10019000931FE0912B02E80FF92FF11DB082E0913F
:1001A0002C02E80FF92FF11DB08320912D02820F50
:1001B000911DFC01A0831F910F91FF90EF90DF90A4
:1001C000CF90BF90AF909F908F900895CF01880FF0
:1001D000991F880F991F820F931FFC01E40FF11DD7
:1001E0001082D7CF833081F028F4813099F08230AB
:1001F000A9F008958730A9F08830C9F08430B1F4AF
:10020000809180008F7D03C0809180008F778093E4
:100210008000089584B58F7784BD089584B58F7D5F
:10022000FBCF8091B0008F778093B00008958091CC
:10023000B0008F7DF9CFCF93DF93282F30E0F90105
:10024000E458FF4F8491F901E057FF4FD491F90131
:10025000E255FF4FC491CC2391F081110E94F2002E
:10026000EC2FF0E0EE0FFF1FEC55FF4FA591B4917E
:100270008FB7F894EC91D095DE23DC938FBFDF919C
:10028000CF910895CF93DF93282F30E0F901E45800
:10029000FF4F8491F901E057FF4FD491F901E255E6
:1002A000FF4FC491CC23A1F081110E94F200EC2FEA
:1002B000F0E0EE0FFF1FEE58FF4FA591B491EC91C7
:1002C000ED2381E090E009F480E0DF91CF91089583
:1002D00080E090E0FACFCF93DF9390E0FC01E0570D
:1002E000FF4F249182559F4FFC0184918823D1F0C8
:1002F00090E0880F991FFC01E859FF4FA591B49138
:10030000FC01EC55FF4FC591D49161110EC09FB710
:10031000F8948C91E22FE0958E238C932881E22330
:10032000E8839FBFDF91CF9108958FB7F894EC9148
:10033000E22BEC938FBFF6CF3FB7F89480917F010B
:1003400090918001A0918101B091820126B5A89B76
:1003500005C02F3F19F00196A11DB11D3FBFBA2F57
:10036000A92F982F8827BC01CD01620F711D811D17
:10037000911D42E0660F771F881F991F4A95D1F79C
:1003800008950F931F93CF93DF93CDB7DEB72997CF
:100390000FB6F894DEBF0FBECDBF809129029091B9
:1003A0002A02892B09F47CC00E949C0100912F0233
:1003B00010913002209131023091320260177107A2
:1003C0008207930740F460932F027093300280936A
:1003D00031029093320200912F021091300220914D
:1003E000310230913202601B710B820B930B6C3225
:1003F000714081059105C0F2F8948091240290919A
:1004000025029A838983E0912902F0912A02DF0173
:1004100011968081898790912002E0913302F091BA
:10042000340280913502992309F445C09081982BBC
:1004300098879081809589238F838F818C8388E032
:100440008B8358856F8149853B812C8189819A8175
:10045000508347FD252F3A952083262F39F0441FDE
:1004600000C000006083000000C0F2CF38E04D9172
:1004700060830000019761F7F0933402E093330248
:1004800049873B832C839A83898378940E949C01BB
:1004900060932F0270933002809331029093320266
:1004A00029960FB6F894DEBF0FBECDBFDF91CF9176
:1004B0001F910F9108959081982B98879081809536
:1004C00089238F838F818E8388E08D8358856F8108
:1004D00049853D812E8189819A81508347FD252F51
:1004E00000C000C0208300C000C000C000C000C029
:1004F00060830000262F3A9541F0441F000000C0A1
:1005000000C000C000C000C0E8CF38E04D9100C07E
:10051000608300C0019709F7F0933402E09333023F
:1005200049873D832E83AFCF8F929F92AF92BF9228
:10053000CF92DF92EF92FF926B017C010E949C01AF
:100540004B015C01C114D104E104F104B9F00E9433
:100550009C01681979098A099B09683E73408105E5
:10056000910580F321E0C21AD108E108F10888EE74
:10057000880E83E0981EA11CB11CE4CFFF90EF9081
:10058000DF90CF90BF90AF909F908F900895AF92E3
:10059000BF92CF92DF92EF92FF920F931F93CF9370
:1005A000DF936C017B018B01040F151FEB015E01D2
:1005B000AE18BF08C017D10759F06991D601ED9167
:1005C000FC910190F081E02DC6010995892B79F706
:1005D000C501DF91CF911F910F91FF90EF90DF90B8
:1005E000CF90BF90AF900895FC01538D448D252F7F
:1005F00030E0842F90E0821B930B541710F0CF96BD
:10060000089501970895FC01918D828D981761F0EE
:10061000A28DAE0FBF2FB11D5D968C91928D9F5F05
:100620009F73928F90E008958FEF9FEF0895FC01E4
:10063000918D828D981731F0828DE80FF11D858D97
:1006400090E008958FEF9FEF0895FC01918D228D2A
:10065000892F90E0805C9F4F821B91098F739927AF
:10066000089583E891E00E94250321E0892B09F495
:1006700020E0822F089580E090E0892B29F00E94ED
:10068000310381110C9400000895FC01A48DA80F82
:10069000B92FB11DA35ABF4F2C91848D90E00196C4
:1006A0008F739927848FA689B7892C93A089B189E4
:1006B0008C91837080648C93938D848D981306C085
:1006C0000288F389E02D80818F7D80830895EF92E9
:1006D000FF920F931F93CF93DF93EC0181E0888FFC
:1006E0009B8D8C8D98131AC0E889F989808185FFCC
:1006F00015C09FB7F894EE89FF896083E889F9896E
:1007000080818370806480839FBF81E090E0DF916F
:10071000CF911F910F91FF90EF900895F62E0B8DC2
:1007200010E00F5F1F4F0F731127E02E8C8D8E117D
:100730000CC00FB607FCFACFE889F989808185FFE4
:10074000F5CFCE010E944503F1CFEB8DEC0FFD2FCD
:10075000F11DE35AFF4FF0829FB7F8940B8FEA899F
:10076000FB8980818062CFCFCF93DF93EC01888DAE
:100770008823B9F0AA89BB89E889F9898C9185FD1C
:1007800003C0808186FD0DC00FB607FCF7CF8C91AA
:1007900085FFF2CF808185FFEDCFCE010E9445031A
:1007A000E9CFDF91CF910895FC0101900020E9F796
:1007B0003197AF01481B590BBC0183E891E00C94C1
:1007C000C7028F929F92AF92BF92CF92DF92EF9229
:1007D000FF920F931F93CF93DF93CDB7DEB7A1970F
:1007E0000FB6F894DEBF0FBECDBF6C01990FEE08B7
:1007F000FF08F7FE41C06DE283E891E00E946703C5
:100800008C0122273327A9012C193D094E095F09C4
:1008100019A2CE0181967C019AE0892E912CA12CFF
:10082000B12CCA01B901A50194010E947907605D4C
:10083000F70162937F01211531054105510589F7C3
:1008400090E080E0309719F0CF010E94D403800F30
:10085000911FA1960FB6F894DEBF0FBECDBFDF91FA
:10086000CF911F910F91FF90EF90DF90CF90BF90AD
:10087000AF909F908F900895A701960119A28E01C5
:100880000F5D1F4F8AE0C82ED12CE12CF12CCA013C
:10089000B901A70196010E947907605DF801629392
:1008A0008F01211531054105510589F790E080E060
:1008B000309779F2CF010E94D403CBCF1F920F92D1
:1008C0000FB60F9211242F933F938F939F93AF9363
:1008D000BF9380917B0190917C01A0917D01B091AB
:1008E0007E0130917A0123E0230F2D3758F50196D0
:1008F000A11DB11D20937A0180937B0190937C010F
:10090000A0937D01B0937E0180917F019091800141
:10091000A0918101B09182010196A11DB11D80932A
:100920007F0190938001A0938101B0938201BF91D8
:10093000AF919F918F913F912F910F900FBE0F908C
:100940001F90189526E8230F0296A11DB11DD2CF46
:100950001F920F920FB60F9211242F933F934F9334
:100960005F936F937F938F939F93AF93BF93EF9317
:10097000FF9383E891E00E944503FF91EF91BF91BF
:10098000AF919F918F917F916F915F914F913F9127
:100990002F910F900FBE0F901F9018951F920F92DE
:1009A0000FB60F9211242F938F939F93EF93FF9382
:1009B000E0919301F09194018081E0919901F0918F
:1009C0009A0182FD1BC0908180919C018F5F8F7383
:1009D00020919D01821741F0E0919C01F0E0ED57DC
:1009E000FE4F958F80939C01FF91EF919F918F9186
:1009F0002F910F900FBE0F901F9018958081F4CF0C
:100A0000109286011092850188EE93E0A0E0B0E09C
:100A10008093870190938801A0938901B0938A0104
:100A20008EE491E0909384018093830185EC90E0C3
:100A30009093900180938F0184EC90E090939201C9
:100A40008093910180EC90E09093940180939301C6
:100A500081EC90E0909396018093950182EC90E078
:100A6000909398018093970186EC90E090939A017F
:100A70008093990110929C0110929D0110929E0109
:100A800010929F01109221021092280210922F02C0
:100A900010923002109231021092320281E0809363
:100AA0002E0280932B0210922C0292E090932D0242
:100AB0008093200280E690E09093250280932402A8
:100AC0000E94A10790932A0280932902009781F146
:100AD00020E6FC0111922A95E9F780E290E09093DC
:100AE00023028093220282E090E090932702809379
:100AF000260280912102882339F061E082E00E9481
:100B00006B0182E00E941B01E0EBF0E0E491F0E079
:100B1000EE0FFF1FEC55FF4F859194919093340297
:100B200080933302E2E9F0E0E491E0933502089526
:100B30001092250210922402109223021092220297
:100B4000D2CF789484B5826084BD84B5816084BD41
:100B500085B5826085BD85B5816085BD80916E005B
:100B6000816080936E00109281008091810082608C
:100B700080938100809181008160809381008091C9
:100B800080008160809380008091B10084608093B8
:100B9000B1008091B00081608093B00080917A00B4
:100BA000846080937A0080917A00826080937A00DA
:100BB00080917A00816080937A0080917A008068C9
:100BC00080937A001092C1008091260290912702B2
:100BD00097FD07C061E00E946B01809126020E9490
:100BE0001B0181E080932102E0919301F091940137
:100BF00082E08083E0918F01F09190011082E0917A
:100C00009101F09192018FEC808310929B01E09111
:100C10009701F091980186E08083E0919501F09131
:100C20009601808180618083E0919501F091960129
:100C3000808188608083E0919501F09196018081A8
:100C400080688083E0919501F091960180818F7D8D
:100C5000808360E084E00E946B0160E086E00E9497
:100C60006B0120E2222E312C3FE1432E512C41E436
:100C7000642E712C5AE0852E912C64E1E62EF12C25
:100C8000CC24CA94DC2CCAE0D1E0899199912091BE
:100C90002202309123028217930730F44CE350E094
:100CA00064EB70E00E948D000E94C10141E0CA34F3
:100CB000D40759F7109279011092780198E2A92E81
:100CC000B12C809178019091790104970CF0D4C0F7
:100CD00080917701882309F4B0C084E00E9442012A
:100CE000C0917501D0917601892B09F059C000910E
:100CF0000201109103012091220230912302FE0192
:100D0000EE0FFF1FE65FFE4F8081918101301105DC
:100D100009F58217930730F440E05BE960E070E08A
:100D20000E948D000E94C10160910001709101013B
:100D3000072E000C880B990B0E9494022196D093E9
:100D40007601C0937501A09741F6D0920301C0923D
:100D50000201C3CF8217930730F44CE350E064EBF9
:100D600070E00E948D000E94C101609100017091AD
:100D70000101072E000C880B990B0E949402C00FF2
:100D8000D11FD0937601C0937501219609F0A5CFAC
:100D900011950195110910930301009302019DCF54
:100DA00080910001909101018134910569F5B09223
:100DB0000101A0920001C032D105A1F08091730120
:100DC0009091740120910201309103012F3F3F4F18
:100DD00091F592012C1B3D0B820F931F9093740190
:100DE0008093730180917301909174010E94E103DB
:100DF00010927701809178019091790101969093FA
:100E00007901809378015DCF8832910529F4F092C1
:100E10000101E0920001CFCF8431910529F4909235
:100E2000010180920001C7CF0A9729F67092010153
:100E300060920001C0CF9101CDCF64E670E080E008
:100E400090E00E94940286E00E944201019719F40A
:100E500081E08093720186E00E944201892B09F0B3
:100E600030CF80917201882309F42BCF41E0409369
:100E700077011092720125CF8CE591E00E94D40396
:100E800080917301909174010E94E10387E691E0E3
:100E90000E94D4038EE691E00E94D403109279015F
:100EA000109278016CED75E080E090E00E94940271
:100EB000109274011092730180E090E0892B09F484
:100EC000E2CE0E943103882309F4DDCE0E940000A7
:100ED000DACE8091290290912A020E943D088091E9
:100EE00026029091270297FD03C060E00C946B01ED
:100EF0000895A1E21A2EAA1BBB1BFD010DC0AA1F5B
:100F0000BB1FEE1FFF1FA217B307E407F50720F072
:100F1000A21BB30BE40BF50B661F771F881F991FED
:100F20001A9469F760957095809590959B01AC0136
:100F3000BD01CF010895EE0FFF1F0590F491E02D44
:100F400009940F931F93CF93DF938230910510F490
:100F500082E090E0E0913802F091390230E020E048
:100F6000B0E0A0E0309799F42115310509F44AC0AA
:100F7000281B390B24303105D8F58A819B816115F6
:100F8000710589F1FB0193838283FE0111C04081C9
:100F900051810281138148175907E0F0481759071A
:100FA00099F4109761F012960C93129713961C9374
:100FB0003296CF01DF91CF911F910F910895009349
:100FC000380210933902F4CF2115310551F0421740
:100FD000530738F0A901DB019A01BD01DF01F801D7
:100FE000C1CFEF01F9CF9093390280933802CDCF72
:100FF000FE01E20FF31F819391932250310939834F
:101000002883D7CF2091360230913702232B41F429
:101010002091060130910701309337022093360268
:1010200020910401309105012115310541F42DB7BE
:101030003EB74091080150910901241B350BE09106
:101040003602F0913702E217F307A0F42E1B3F0B94
:101050002817390778F0AC014E5F5F4F241735072A
:1010600048F04E0F5F1F5093370240933602819332
:1010700091939FCFF0E0E0E09CCFCF93DF93009778
:10108000E9F0FC01329713821282A0913802B091EC
:101090003902ED0130E020E01097A1F42081318188
:1010A000820F931F2091360230913702281739079B
:1010B00009F061C0F0933702E0933602DF91CF91DF
:1010C0000895EA01CE17DF07E8F54A815B819E01AA
:1010D00041155105B1F7E901FB83EA834991599123
:1010E000C40FD51FEC17FD0761F480819181029632
:1010F000840F951FE90199838883828193819B8363
:101100008A83F0E0E0E012968D919C91139700970E
:10111000B9F52D913C911197CD010296820F931F45
:1011200020913602309137022817390739F6309767
:1011300051F51092390210923802B0933702A09301
:101140003602BCCFD383C28340815181840F951F67
:10115000C817D90761F44E5F5F4F88819981480FA6
:10116000591F518340838A819B81938382832115F8
:10117000310509F0B0CFF0933902E09338029ECFE9
:10118000FD01DC01C0CF13821282D7CF10E0C2E68E
:10119000D0E004C0FE010E949B072196C336D10710
:0611A000C9F7F894FFCF2F
:1011A6004100010000003A02800000000100020038
:1011B60003000400050006000700080009000A00F5
:1011C6000B000C000D000E000F00100011001200A5
:1011D60013001400150016001700180019001A0055
:1011E6001B001C001D001E001F00000000006703FE
:1011F600C702F402B4032503030317034475206DE5
:101206006973746574200020706F656E67000D0A3F
:021216000000D6
:00000001FF
