:100000000C94C7010C947B0D0C94540D0C942D0D85
:100010000C94060D0C94EF010C94EF010C94DF0C82
:100020000C94EF010C9455130C94A20D0C94110E2A
:100030000C94EF010C94EF010C94EF010C94EF0180
:100040000C94EF010C94EF010C94EF010C94EF0170
:100050000C94EF010C94EF010C94EF010C94950CAF
:100060000C94EF010C94EF010C94EF010C94EF0150
:100070000C94EF010C94EF010C94EF010C94EF0140
:100080000C94EF010C94EF010C94EF010C94EF0130
:100090000C9443100C94EF010C94EF010C94EF01BD
:1000A0000C94EF010C945E110C94EF010000000021
:1000B0000000004F00000007000700147F147F14A9
:1000C000242A7F2A122313086462364955225000DD
:1000D00000070000001C2241000041221C001408FF
:1000E0003E081408083E08080050300000080808C0
:1000F0000808006060000020100804023E514945D5
:100100003E00427F400042615149462141454B310A
:100110001814127F1027454545393C4A4949300398
:10012000017109073649494936064949291E0036F1
:100130003600000056360000081422410014141442
:100140001414004122140802015109063249794170
:100150003E7E1111117E7F494949363E414141227F
:100160007F4141413E7F494949417F090909013E9B
:100170004149497A7F0808087F00417F41002040BB
:10018000413F017F081422417F404040407F020CE4
:10019000027F7F0408107F3E4141413E7F090909EB
:1001A000063E4151215E7F09192946464949493198
:1001B00001017F01013F4040403F1F2040201F3F81
:1001C0004038403F63140814630708700807615102
:1001D000494543007F41410002040810200041418D
:1001E0007F0004020102044040404040000102043C
:1001F0000020545454787F484444383844444420C0
:10020000384444487F3854545418087E0901020C7D
:100210005252523E7F0804047800447D4000204042
:10022000443D007F1028440000417F40007C0418BA
:1002300004787C0804047838444444387C1414144A
:1002400008081414187C7C080404084854545420EA
:10025000043F4440203C4040207C1C2040201C3C6B
:100260004038403C44281028440C5050503C4464D2
:10027000544C44000836410000007F000000413625
:1002800008000C02040806081C2A080800030C0FCA
:1002900030333C3FC0C3CCCFF0F3FCFF080B00026F
:1002A000020200000904000001020200000524000F
:1002B00010010524010101042402060524060001A1
:1002C0000705810310004009040100020A00000034
:1002D00007050202400000070583024000000403F6
:1002E000090412010002EF020140FB1F002300017C
:1002F00001020301506F6C6F6C7520436F72706F59
:10030000726174696F6E00506F6C6F6C7520412D57
:100310005374617220333255340053706565643A0A
:100320000000000000250028002B002E00310004F2
:10033000040404040304050202020204030202028C
:100340000206060606060604040202020404040865
:1003500002011040804010204080408008020401CB
:10036000804020100201108010204040200000003A
:100370000200090F0000030401000C00000000004F
:10038000000000000000000000000000D313112452
:100390001FBECFEFDAE0DEBFCDBF11E0A0E0B1E0DD
:1003A000EAECF1E302C005900D92A638B107D9F747
:1003B00023E0A6E8B1E001C01D92A737B207E1F73C
:1003C00011E0C7ECD1E004C02197FE010E94B318F0
:1003D000C63CD107C9F70E940E140C94E3180C9484
:1003E00000005B9887FD5D9A87FF5D985B9A5B983C
:1003F00086FD5D9A86FF5D985B9A5B9885FD5D9AA8
:1004000085FF5D985B9A5B9884FD5D9A84FF5D989B
:100410005B9A5B9883FD5D9A83FF5D985B9A5B981E
:1004200082FD5D9A82FF5D985B9A5B9881FD5D9A83
:1004300081FF5D985B9A5B9880FD5D9A80FF5D9877
:100440005B9A0895FC0180913E02882311F13FB729
:10045000F89482E08093E9002091F200822F90E0EE
:100460001816190614F481E090E0882339F02898D2
:1004700044E640933D024091F1004083222339F04D
:100480002091F200211103C02BE62093E8003FBF2A
:1004900008958FEF9FEF08952FB7F89483E080932E
:1004A000E9009091E800892F807295FF04C0909137
:1004B000F20080E4891B2FBF0895809135028111DD
:1004C0000DC082E08093310284E08093320210926A
:1004D00034021092330281E08093350281E392E08E
:1004E0000895282F30E0F901E359FC4F9491F90168
:1004F000E25BFC4F8491215D3C4FF9012491222362
:1005000009F430C09923E9F091509F30D0F4E92FDD
:10051000F0E0E357FD4F0C94B318BB02BF029C02FE
:10052000B302B702A102A102A102C202C802CC0218
:10053000D002D602A102DA02909180009F779093B8
:100540008000E22FF0E0EE0FFF1FEF5DFC4FA59162
:10055000B4919FB7F894EC91611132C080958E23CD
:100560008C939FBF0895909180009F7DE8CF9091DC
:100570008000977FE4CF94B59F7794BDE2CF94B588
:100580009F7DFBCF909190009F7790939000D9CF63
:10059000909190009F7DF9CF90919000977FF5CF3B
:1005A0009091C0009F779093C000CBCF9091C000F6
:1005B0009F7DF9CF9091C200977F9093C200C1CFE9
:1005C0008E2BCECF3FB7F89480912D0290912E02C2
:1005D000A0912F02B091300226B5A89B05C02F3FF5
:1005E00019F00196A11DB11D3FBFBA2FA92F982F59
:1005F0008827BC01CD01620F711D811D911D42E054
:10060000660F771F881F991F4A95D1F70895CF92DB
:10061000DF92EF92FF920E94E2026B017C010E9446
:10062000E2026C197D098E099F09683E73408105BD
:100630009105A8F3FF90EF90DF90CF9008952FB72A
:10064000F8946091290270912A0280912B02909176
:100650002C022FBF089508954091190250911A025B
:10066000209117023091180242175307B4F4909169
:10067000E8009570E1F39091E80092FD19C0809335
:10068000F1008091190290911A0201968F739927B7
:10069000892B19F48EEF8093E800809119029091D4
:1006A0001A02019690931A028093190281E008952C
:1006B00080E00895DF92EF92FF920F931F93CF9304
:1006C000DF93D82E8A01EB017B01E40EF51ECE15D7
:1006D000DF0559F0D7FE12C0FE0184910E942C0361
:1006E00021968111F4CF0FEF1FEFC801DF91CF9159
:1006F0001F910F91FF90EF90DF9008958881EECFCA
:100700000F931F93CF93DF931F92CDB7DEB782E095
:10071000898342E450E06CE972E080E80E945A0369
:100720000E945D02DC0112960D911C9101151105CC
:1007300089F0D801ED91FC910280F381E02DBE019A
:100740006F5F7F4FC801099597FD04C0F8010085D0
:100750001185ECCF89810F90DF91CF911F910F917F
:100760000895615030F02091F100FC012083019642
:10077000F8CF289884E680933D0208958F929F9247
:10078000AF92BF92CF92DF92EF92FF920F931F939F
:10079000CF93DF936C017B018A018091160188233E
:1007A00009F458C080913E02882309F453C0809117
:1007B0001D0280FF05C08091E00082608093E00010
:1007C000E801B12C8AEFA82E93E0892E2AE3922E1D
:1007D000209711F4BB20B9F10E944C02811106C090
:1007E000AA94AA20B9F10E940703F2CF8C171D0624
:1007F00011F00CF08C2F9FB7F8948092E9002091B3
:10080000E80025FD02C09FBFE3CF282F30E0C21BC8
:10081000D30BF701815020F041914093F100FACFC2
:10082000E20EF31EBB2021F09092E800B12CEBCF3A
:100830008091E80085FDE7CF9092E800BB24B39457
:10084000209709F3F3CF5D9884E680931C0210167D
:1008500011063CF081E090E0F6019383828310E082
:1008600000E0C801DF91CF911F910F91FF90EF90B1
:10087000DF90CF90BF90AF909F908F900895CF93CF
:10088000DF931F92CDB7DEB76983DC01ED91FC9158
:100890000280F381E02D41E050E0BE016F5F7F4FA9
:1008A00009950F90DF91CF91089583E08093E9003F
:1008B0008091F200882319F08AE38093E80008957C
:1008C0000E944C0290E00895CF93DF931F92CDB722
:1008D000DEB7FC018485958597FD08C02FEF3FEFBB
:1008E000358724870F90DF91CF910895CE0101962F
:1008F0000E942202019719F4898190E0F3CF8FEFD3
:100900009FEFF0CF0F931F93CF93DF931F92CDB73D
:10091000DEB78C01FC018485958597FF0BC0CE0165
:1009200001960E942202019771F4898190E0F801FA
:1009300095878487F801848595850F90DF91CF9105
:100940001F910F9108958FEF9FEFF1CFFC018485E8
:10095000958597FD0BC09FB7F89482E08093E900DE
:100960008091F2009FBF90E0019608959FB7F894A0
:1009700082E08093E9008091F2009FBF90E00895AB
:100980002091CD01260F3327331F21323105ECF49E
:100990002091F101FC0190E080E0243069F082E0D8
:1009A0000895A091CD012191AC0143555E4FA40F54
:1009B000B52FB11D2C930196861798F38091CD0128
:1009C000680F6093CD0180E0089581E00895089557
:1009D0008FEF9FEF08958FEF9FEF08958091A6010D
:1009E00090E09195819591090895CF93DF93CB0184
:1009F000EA01642F0E94C004CE01DF91CF910895D7
:100A0000CF93DF931F92CDB7DEB7698361E0CE014C
:100A100001960E94C00481E090E00F90DF91CF9199
:100A200008958091A301E091A401F091A50188238C
:100A300039F084919FEB980F9A3120F4805E0895ED
:100A40008081F8CF803269F42091A4013091A50112
:100A5000A9014F5F5F4F5093A5014093A401232B41
:100A600001F708951F93CF93DF930E941105D0E003
:100A7000C0E01AE090ED980F9A30B8F41C9F9001F6
:100A80001D9F300D1124E901C80FD11D87FDDA9596
:100A9000E0978091A4019091A50101969093A50102
:100AA0008093A4010E941105E5CFCE01DF91CF9183
:100AB0001F9108953F924F925F926F927F928F9213
:100AC0009F92AF92BF92CF92DF92EF92FF920F93DD
:100AD0001F93CF93DF937B01D42E2091A00121118E
:100AE0001BC021E02093A001109272001092C00060
:100AF00034E03093C10039E03093C2002093C3004A
:100B000023E02093BF0028EE2093D1001092BF0075
:100B10001092D200579A789410920A01CC24C39470
:100B200097FF03C09F77AAE0CA2EC8E2CC9EC02DD3
:100B30001124D0E08C179D0750F021E0EC01C21287
:100B400006C0C13187E2D80710F0C0E1D7E24E01FC
:100B5000B12CA12C4C2C512C712C612C9E01AFEF8F
:100B6000B7E00E94B918640D751D861D971D9695F6
:100B7000879577956795A30192010E94721860E0AE
:100B800072E18AE790E0312C33946217730784078F
:100B9000950728F09695879577956795F5CFA301EA
:100BA00092010E9442189E0136952795620F731F8D
:100BB000811D911DA50194010E947218722E022FB1
:100BC000132F2AE0C21207C0CE0105966AE070E03A
:100BD0000E945E18EB01C83E83E0D80759F09701E8
:100BE000DE010E94B91828EE33E040E050E00E9498
:100BF00094187901109272008091C100807F83293E
:100C00008093C1001093BF007092D1004D2D4031F0
:100C100008F04FE080E190E0841B910902C0169536
:100C200007958A95E2F71093BF000093D200F092E7
:100C3000A201E092A10189B38FEF89BB84E0809388
:100C40007200DF91CF911F910F91FF90EF90DF9095
:100C5000CF90BF90AF909F908F907F906F905F905C
:100C60004F903F9008952E98269A2D98259A2A986D
:100C7000229A2998219A80EA8093800081E18093CA
:100C8000810080E991E09093870080938600109224
:100C900089001092880010928B0010928A000895AB
:100CA0009FB191708CB186FB882780F989272091AC
:100CB0009701309196014091940150919501282718
:100CC0003927231B330B240F351F309395012093B5
:100CD00094013091960120919701381729F0291736
:100CE00019F021E02093930180939601909397014E
:100CF000089524982C9A6A98729A6E98769A809899
:100D0000889A81E08093680090E190936B008BBBA0
:100D100080E596E09093200180931F01EAE6F0E0E1
:100D200080818F7C80618083EE9A8CB182FB8827E2
:100D300080F980939C0193B180919C019295917070
:100D4000892780939B0110929A0110929901109229
:100D500098018FB18170809397019CB18091970128
:100D600096FB992790F98927809396011092950117
:100D700010929401109293010895289A209A089550
:100D80002898209A08955F926F927F928F929F92F7
:100D9000AF92BF92CF92DF92EF92FF920F931F9389
:100DA000CF93DF935C01D62FC42FF22E132F0E9416
:100DB000C0068D2F806B0E94F1018C2F82958F7061
:100DC00080610E94F1018C2F8F700E94F1010E94BE
:100DD000BD06CF2DD12F0C0F1D2F111D95E0692EB3
:100DE000C017D10709F444C07990872D8052990B20
:100DF0009C01629EC001639E900D1124769C40016F
:100E00001124F12CE12C9C0124553F4F69013FE155
:100E1000371508F5F601EE0DFF1DE491F0E084E0D2
:100E2000F595E7958A95E1F7E457FD4F5490852DA8
:100E30000E94F101852D0E94F1019FEFE91AF90A44
:100E400025E0E216F10419F780E00E94F10180E04C
:100E50000E94F101C5CF87E0E0E08715F8F2F401C8
:100E6000EE0DFF1DE254FF4FEA0DFB1DE081D6CFD2
:100E7000DF91CF911F910F91FF90EF90DF90CF9076
:100E8000BF90AF909F908F907F906F905F900895EC
:100E90005F926F927F928F929F92AF92BF92CF920A
:100EA000DF92EF92FF920F931F93CF93DF935C013A
:100EB000D62FC42FF22E132F0E94C0068D2F806BC9
:100EC0000E94F1018C2F82958F7080610E94F10148
:100ED0008C2F8F700E94F1010E94BD06CF2DD12F63
:100EE0000C0F1D2F111D85E0682EC017D10709F4C6
:100EF00040C07990872D8052990B9C01629EC00161
:100F0000639E900D1124769C40011124F12CE12C5C
:100F10009C0124553F4F69013FE13715E8F4F60184
:100F2000EE0DFF1DE491EF70F0E0E457FD4F54909B
:100F3000852D0E94F101852D0E94F1019FEFE91A94
:100F4000F90A25E0E216F10439F780E00E94F10188
:100F500080E00E94F101C9CF87E0E0E0871518F337
:100F6000F401EE0DFF1DE254FF4FEA0DFB1DE08181
:100F7000DACFDF91CF911F910F91FF90EF90DF902B
:100F8000CF90BF90AF909F908F907F906F905F9029
:100F90000895FC01208121FB0EF0559820FB0EF0F6
:100FA0005D980EF45D9A21FB0EF4559A218121FB88
:100FB0000EF0209820FB0EF028980EF4289A21FBC2
:100FC0000EF4209AA9EEB0E01C9284818093F00088
:100FD00083818C9382818093E2000895FC01A2EECC
:100FE000B0E08C9182831C92A9EEB0E08C91838357
:100FF0001C92A0EFB0E08C9184831C9220E05D995C
:10100000216055992260208320E028992160209951
:10101000226021835D98559A0895CF92DF92EF92D6
:10102000FF920F93CF93DF93EC017C0184E0E80EF5
:10103000F11CC7010E94EE076E0184E1C80ED11CAD
:1010400008E0960143E162E0CE010E944807960164
:1010500043E163E0CE010E94C3066E0189E2C80E3F
:10106000D11C960143E165E0CE010E94480796013C
:1010700043E166E0CE010E94C306C701DF91CF9134
:101080000F91FF90EF90DF90CF900C94C907EF92F3
:10109000FF920F931F93CF93DF938C017C0184E029
:1010A000E80EF11CC7010E94EE070E94C00682E014
:1010B0000E94F101C0E00E94C0068C2F806B0E944C
:1010C000F10180E10E94F1010E94BD06D0E080E0C4
:1010D0000E94F101DF5FD038D1F7CF5FC83059F7F8
:1010E000C7010E94C907F8011286DF91CF911F91B5
:1010F0000F91FF90EF900895AF92BF92CF92DF9241
:10110000EF92FF920F931F93CF93DF937C01122FE7
:10111000683008F043C0423008F040C088E0861BC9
:101120008217D0F12223D1F1C42FCC0FC40FDCE001
:101130006D9FD02D1124DD5E670124E1C20ED11C0C
:10114000862F90E025E1429F800D911D1124C80E4D
:10115000D91E570184E0A80EB11CC5010E94EE07FC
:1011600062E06C0F012F96014D2FC7010E944807C6
:1011700063E06C0F96014D2FC7010E94C306C501A5
:10118000DF91CF911F910F91FF90EF90DF90CF9063
:10119000BF90AF900C94C907182FC6CFDF91CF91A5
:1011A0001F910F91FF90EF90DF90CF90BF90AF9085
:1011B0000895089590E080E00895FB0101900020DB
:1011C000E9F73197AF01461B570BDC01ED91FC911C
:1011D0000280F381E02D09948F929F92AF92BF928B
:1011E000EF92FF920F931F93CF93DF93CDB7DEB7AC
:1011F000A1970FB6F894DEBF0FBECDBF7C01FA01F8
:10120000CB0119A2223008F42AE08E010F5D1F4F96
:10121000822E912CB12CA12CBF01A50194010E941A
:101220007218F901CA016A300CF5605DD8016E933D
:101230008D01232B242B252B79F790E080E010974C
:1012400021F0BD01C7010E94DD08A1960FB6F894F8
:10125000DEBF0FBECDBFDF91CF911F910F91FF90E9
:10126000EF90BF90AF909F908F900895695CDECF14
:101270002F923F924F925F926F927F928F929F92A6
:10128000AF92BF92CF92DF92EF92FF921F93CF93D4
:10129000DF93EC016A017B01722EAB019601CB0159
:1012A000B6010E94281860E671E0811126C046014F
:1012B0005701E894B7F82FEF3FEF4FE75FE7C5011D
:1012C000B4010E94281881110CC02FEF3FEF4FE7A7
:1012D0005FE7C501B4010E94181664E671E01816B4
:1012E00064F02FEF3FEF4FE75FE4C701B6010E94C4
:1012F00070171816B4F468E671E0CE01DF91CF9153
:101300001F91FF90EF90DF90CF90BF90AF909F9094
:101310008F907F906F905F904F903F902F900C94A4
:10132000DD082FEF3FEF4FE75FECC701B6010E94EA
:10133000181687FDE0CF20E030E0A901C701B60113
:101340000E941816312C212C87FF0DC0E881F981ED
:101350000190F081E02D6DE2CE0109951C01F7FAB4
:10136000F094F7F8F09410E060E070E080E09FE324
:10137000711641F020E030E040E251E40E941D1679
:101380001F5FF6CFA70196010E94AC152B013C010F
:101390000E948F164B015C012AE0BC01A401CE0122
:1013A0000E94EC087C01E20CF31C1123E1F1C50161
:1013B000B4010E94BE169B01AC01C301B2010E94A0
:1013C000AB154B015C01E881F9810190F081E02DC2
:1013D0006EE2CE010995E80EF91E115020F120E0D1
:1013E00030E040E251E4C501B4010E9475172B01C1
:1013F0003C010E948F164B01B12CA12C2AE0B501B3
:10140000A401CE010E94EC08E80EF91EC501B4014A
:101410000E94BE169B01AC01C301B2010E94AB1534
:101420004B015C01DACFC701DF91CF911F91FF9093
:10143000EF90DF90CF90BF90AF909F908F907F9074
:101440006F905F904F903F902F9008951F93CF9390
:10145000DF9385ED8093BC008091A9019091AA0152
:10146000A091AB01B091AC010796A11DB11D23E085
:10147000B695A795979587952A95D1F72091BC00A9
:1014800024FD03C01092F10152C04091A901509176
:10149000AA016091AB017091AC01452B462B472B03
:1014A00069F30097A105B10541F02AE22A95F1F709
:1014B00000C00197A109B109E1CF8091A801C1E065
:1014C000C093A701882399F1D091B8001091BA0078
:1014D0008091BC008A7B8093BC0060E082E00E9427
:1014E000710260E083E00E9471021092F101C093EA
:1014F000F3011092F20161E082E00E94710261E06A
:1015000083E00E9471028091B9008E7F8093B900C0
:101510008091B9008D7F8093B90088E48093B800F2
:1015200085E48093BC001093BA00D093B800DF919B
:10153000CF911F9108950F931F93CF93DF93EC01E9
:101540005B98539A5A98529A85E38A95F1F700006E
:101550005A9A529A85E38A95F1F70000CE010E94CB
:1015600047088E010C5F1F4FC8010E94EE070E94C2
:10157000C00681EA0E94F10188EC0E94F10181E835
:101580000E94F1018FEF0E94F1018FEA0E94F101A8
:10159000C8010E94C90781E08987DF91CF911F911F
:1015A0000F910895FF920F931F93CF93DF93EC0158
:1015B000162F042FF22E8985811103C0CE010E94BF
:1015C0009B0A8A85882319F0CE010E9447082A8940
:1015D0003B89C901959587958C0F9D1FE889F989ED
:1015E00020FF08C0DC012D913C91E20FF31F019018
:1015F000F081E02D2F2D402F612FDF91CF911F9192
:101600000F91FF900994CF93DF93DC01A354BF4F58
:101610002C91283008F5EC01C454DF4FE881E53106
:10162000D8F4AC0175E1279F400D511D1124E40F42
:10163000F52FF11D648BFC012385211105C021E0EC
:101640004C9168810E94D20A88818F5F888381E0F3
:1016500090E0DF91CF91089590E080E0FACF48EAE2
:1016600050E060E270E083EA92E00E94DC181092A1
:101670004B0310924C0380919A0281112AC08091F1
:101680009802811104C08FE892E00E949B0A809129
:101690009902882321F08FE892E00E944708209168
:1016A0009D0230919E02C9019595879581579D4F66
:1016B000E0919B02F0919C0220FF08C0DC012D917B
:1016C0003C91E20FF31F0190F081E02D09951092FB
:1016D0009A020895BF92CF92DF92EF92FF920F93FA
:1016E0001F93CF93DF938C01EA016C012DEBC20EA7
:1016F000D11CF60130813830D8F57C01FCEBEF0EBF
:10170000F11CF7018081853198F525E1281B90E0D7
:101710002417150620F4C5E1D0E0C81BD90BF5E16C
:101720003F9F800D911D1124AE0198012C5E3F4F0B
:10173000820F931F0E94D318BC2EF801838581115C
:1017400008C02C2FF6014081F7016081C8010E947A
:10175000D20AF70180818B0D8083CE01DF91CF917A
:101760001F910F91FF90EF90DF90CF90BF90089561
:10177000D0E0C0E0F2CF4F925F926F927F928F9253
:101780009F92AF92BF92CF92DF92EF92FF920F9310
:101790001F9380918601811105C081E080938601AD
:1017A0000E947906F8946091990170919A01789459
:1017B000072E000C880B990B0E94C0164B015C0190
:1017C00080918601811105C081E0809386010E948D
:1017D0007906F89460919401709195017894072EA0
:1017E000000C880B990B0E94C0166B017C01809144
:1017F0000001882351F1A5019401C501B4010E94A3
:1018000075172B013C01A7019601C701B6010E9483
:1018100075179B01AC01C301B2010E94AC150E9477
:10182000E81760938F0170939001809391019093DA
:101830009201109200010E941F0360938B0170932C
:101840008C0180938D0190938E010E941F03009163
:101850008B0110918C0120918D0130918E01601BC4
:10186000710B820B930B6A3F71058105910508F19D
:10187000A5019401C501B4010E9475174B015C01DB
:10188000A7019601C701B6010E9475179B01AC0123
:10189000C501B4010E94AC150E94E817609387014E
:1018A000709388018093890190938A0181E08093ED
:1018B0000001209187013091880140918901509168
:1018C0008A0160918F0170919001809191019091B6
:1018D00092010E94AB1520E030E843E654E40E94F8
:1018E0001D1620E030E040E451E40E9475176B01C2
:1018F0007C0120E030E0A9010E947017181624F046
:10190000F7FAF094F7F8F094C701B6011F910F9120
:10191000FF90EF90DF90CF90BF90AF909F908F900F
:101920007F906F905F904F9008951F920F920FB627
:101930000F9211242F933F938F939F93AF93BF9355
:101940008091290290912A02A0912B02B0912C0241
:101950003091280223E0230F2D3758F50196A11D61
:10196000B11D209328028093290290932A02A0930C
:101970002B02B0932C0280912D0290912E02A09107
:101980002F02B09130020196A11DB11D80932D024E
:1019900090932E02A0932F02B0933002BF91AF918B
:1019A0009F918F913F912F910F900FBE0F901F909D
:1019B000189526E8230F0296A11DB11DD2CF1F92C4
:1019C0000F920FB60F9211242F933F934F935F9373
:1019D0006F937F938F939F93AF93BF93EF93FF93F7
:1019E000E0911F01F09120010995FF91EF91BF91C6
:1019F000AF919F918F917F916F915F914F913F91A7
:101A00002F910F900FBE0F901F9018951F920F925D
:101A10000FB60F9211242F933F934F935F936F93C1
:101A20007F938F939F93AF93BF93EF93FF93E09137
:101A30001D01F0911E010995FF91EF91BF91AF91AA
:101A40009F918F917F916F915F914F913F912F91D6
:101A50000F900FBE0F901F9018951F920F920FB608
:101A60000F9211242F933F934F935F936F937F9324
:101A70008F939F93AF93BF93EF93FF93E0911B01DD
:101A8000F0911C010995FF91EF91BF91AF919F914A
:101A90008F917F916F915F914F913F912F910F9017
:101AA0000FBE0F901F9018951F920F920FB60F92B6
:101AB00011242F933F934F935F936F937F938F9353
:101AC0009F93AF93BF93EF93FF93E0911901F09130
:101AD0001A010995FF91EF91BF91AF919F918F915D
:101AE0007F916F915F914F913F912F910F900FBE1A
:101AF0000F901F9018951F920F920FB60F921124FE
:101B00002F933F934F935F936F937F938F939F9305
:101B1000AF93BF93EF93FF93E0911701F0911801FA
:101B20000995FF91EF91BF91AF919F918F917F9117
:101B30006F915F914F913F912F910F900FBE0F903A
:101B40001F9018951F920F920FB60F9211248F932A
:101B50009F938091E1009091E100937F9093E10049
:101B600083FF0FC01092E90091E09093EB00109278
:101B7000EC0092E39093ED0010923E0298E0909377
:101B8000F00082FF22C093E09093E9009091F20070
:101B9000992319F09AE39093E80090911C029923FD
:101BA00041F090911C02915090931C02911101C040
:101BB0005D9A90913D02992341F090913D029150A0
:101BC00090933D02911101C0289A84FF18C0809122
:101BD000E2008E7E81608093E2008091E1008F7E42
:101BE0008093E10080911D028E7E806180931D02B2
:101BF0009F918F910F900FBE0F901F90189580FFAF
:101C0000F7CF8091E2008E7E80618093E200809128
:101C1000E1008E7E8093E10080911D028E7E8160C6
:101C2000E5CF1F920F920FB60F921124CF92DF9241
:101C3000EF92FF920F931F932F933F934F935F93D6
:101C40006F937F938F939F93AF93BF93EF93FF9384
:101C5000CF93DF93CDB7DEB76C97DEBFCDBF1092C9
:101C6000E9008091E80083FF25C068E0CE01459639
:101C70000E94B10382EF8093E8008D8987FF39C00D
:101C80009091E80090FFFCCF982F907609F034C136
:101C90009E894F89588D2F89F88C911131C08038D9
:101CA00061F580911E028093F1001092F1008EEF99
:101CB0008093E8006C960FB6F894DEBF0FBECDBFE0
:101CC000DF91CF91FF91EF91BF91AF919F918F9154
:101CD0007F916F915F914F913F912F911F910F9144
:101CE000FF90EF90DF90CF900F900FBE0F901F905E
:101CF00018959EEF9093E800C7CF1092F100D5CFD2
:101D0000913059F48111D3CF4130510581F6809142
:101D10001E028D7F80931E02CACF933049F4811139
:101D2000C6CF4130510519F680911E028260F2CF74
:101D3000953041F48091E80080FFFCCF206820932B
:101D4000E300B5CF963009F0A9C00B8D1C8D22E0C1
:101D50001092E90010921A0210921902F2122EC08B
:101D600010921802109217020E9480031F8299E0BD
:101D70009983FA8291E09E8390EA98879AEF9987F7
:101D80002091190230911A02275F3F4F3C832B8329
:101D90008D831092E90010921A021092190210938A
:101DA00018020093170249E050E0BE016F5F7F4FB9
:101DB00080E00E945A030E94800379CF109318029A
:101DC000009317020E945D02DC0112960D911C9196
:101DD0000115110509F451C1D801ED91FC91048060
:101DE000F581E02DBE016B5E7F4FC801099500971C
:101DF00009F03EC1F80100851185EACFF3E0FF123A
:101E00000EC08F89882309F440C0823061F440E815
:101E100062E187E093E00E94A013811148CF81E244
:101E20008093EB0047CF813029F440E862E184EFF2
:101E300092E0F1CF833099F70E945D02DC011296A7
:101E4000ED90FC908E010F5F1F4F6801E114F104CB
:101E500079F0D701ED91FC910680F781E02DB80172
:101E6000C7010995080F111DF701E084F184EECF39
:101E7000D8011C92F60101900020E9F73197BF01CB
:101E80006C197D0940E0C601C6CF6EED72E0FB0122
:101E9000449150E080E80E945A0309CF973009F43A
:101EA000BECF983021F481E08093F10000CF9930CB
:101EB00009F0FDCE837009F0B2CFECE3F1E081E0F0
:101EC00031E096E32191222371F08093E900309371
:101ED000EB00DF0111972C912093EC009093ED0023
:101EE0008F5F873079F78EE78093EA001092EA00DF
:101EF0008F8980933E02DBCE8B8D9C8D1092E90002
:101F000010921A02109219029093180280931702ED
:101F1000898D811192C08E899D89913A49F48132CF
:101F200009F07DCF47E050E06FE071E080E0B3CF93
:101F3000913209F074CF833269F48F89988DB0E0C3
:101F4000A0E080930B0190930C01A0930D01B0933E
:101F50000E01ADCE803269F48091E80082FFFCCFA3
:101F600067E08FE091E00E94B1038BEF8093E8007F
:101F70009ECE823209F09BCE8F8980931601EEEFC0
:101F8000FFE7859194918B3F9C4D51F1E0E0F8E0A3
:101F900080910F0190911001A0911101B091120157
:101FA000803B9440A105B105F1F48091160180FDBC
:101FB0001AC0EE3F8AE0F80789F587E797E7918333
:101FC00080838091600080931B0288E19BE00FB6C4
:101FD000F894A895809360000FBE9093600067CE40
:101FE000EEEFFAE0D5CF808191818737974709F0EE
:101FF0005ECEA8958091600088618093600080919A
:102000001B0280936000EE3F2AE0F20789F0809186
:10201000FE0A9091FF0A9183808349CE808191814D
:102020008737980751F29093FF0A8093FE0AC5CF35
:102030001092FF0A1092FE0A3ACE0E945D02DC0165
:1020400012960D911C910115110509F4E8CED801E5
:10205000ED91FC910190F081E02DBE016B5E7F4F10
:10206000C8010995811123CEF80100851185EBCFB8
:10207000181619060CF41BCED2CEF1E0FF12BECE1C
:1020800062EE72E004CF1F920F920FB60F921124EE
:102090002F933F934F935F936F937F938F939F9370
:1020A000AF93BF93EF93FF938091B900887F803601
:1020B00009F44AC0F0F5883209F4A5C018F580315A
:1020C00009F499C0B8F4882309F4F5C0883009F4FC
:1020D00092C0FF91EF91BF91AF919F918F917F91AE
:1020E0006F915F914F913F912F910F900FBE0F9085
:1020F0001F901895883109F486C0803251F780937B
:10210000F00114C0803409F49BC040F48033B9F36B
:102110008833F9F68093F00185ECAEC0803509F480
:1021200083C0883509F494C0883499F60E94260A41
:10213000D0CF883909F48AC038F5883729F050F4AF
:10214000883611F0803729F683E08093F1011092F0
:10215000EF0155C0883809F479C0803919F080380A
:1021600009F0B7CF8091EF01803208F06FC0E091A5
:10217000EF0181E08E0F8093EF018091BB00F0E0D2
:10218000E153FE4F80833BC0803B39F0D0F4803A6E
:1021900009F477C0883A09F09CCF84E08093F1017C
:1021A0001092CE011092CD01F0E0E0E0099580910F
:1021B000CD0181110FC081E08093CD011092AD015E
:1021C00009C0803C09F4A8CF883C09F4A5CF883B1E
:1021D00009F07FCFE091CE0181E08E0F8093CE0198
:1021E000F0E0E355FE4F80818093BB009091CE01DB
:1021F0008091CD0129C0809116028093BB0085ECAF
:102200008093BC0066CF90911502809114029817BC
:1022100058F5E091150281E08E0F80931502F0E0F1
:10222000EC50FE4F8081E9CFE091150281E08E0FE6
:10223000809315028091BB00F0E0EC50FE4F80834C
:1022400090911502809114029817C8F285E8D8CFB2
:10225000E091150281E08E0F809315028091BB0002
:10226000F0E0EC50FE4F80838091F30181115ECF4E
:1022700081E08093F20184EA8093BC001092F10126
:1022800028CF85EC8093BC001092F1018091EF0182
:10229000803230F4E091EF01F0E0E153FE4F108224
:1022A0006091EF0170E08FEC91E0F0E0E0E00995E3
:1022B0001092EF010ECF1092F00138CF1F920F92C3
:1022C0000FB60F9211244F925F926F927F928F926E
:1022D0009F92AF92BF92CF92DF92EF92FF920F93B5
:1022E0001F932F933F934F935F936F937F938F939E
:1022F0009F93AF93BF93CF93DF93EF93FF93C091DF
:10230000A101D091A201CE0101979093A2018093E7
:10231000A1012097A1F51092720078948091C100DC
:10232000807F84608093C10083E08093BF0088EE4B
:102330008093D1001092BF001092D20081E0809370
:102340000A018091A4019091A501892BC1F080918F
:102350009F01811114C07090090180919E01882312
:1023600079F180919D01882359F160919D0170E080
:1023700040E088EE93E00E945A0510929D01FF9183
:10238000EF91DF91CF91BF91AF919F918F917F910D
:102390006F915F914F913F912F911F910F91FF90FE
:1023A000EF90DF90CF90BF90AF909F908F907F90F5
:1023B0006F905F904F900F900FBE0F901F901895E9
:1023C0005524539470ECA72E7DE5B72EEAE04E2EEF
:1023D000F4E06F2EA0EDCA2EA7E0DA2EB4E0EB2ECB
:1023E000F12C04EF11E08FE0882E912C0E94110552
:1023F0002091A4013091A5012F5F3F4F3093A5019B
:102400002093A401853609F473C00CF047C08136CF
:1024100009F4B4C024F58C3309F468C08E3309F490
:1024200063C0813209F043C060920901D092060175
:10243000C0920501F0920801E09207011093040197
:1024400000930301909202018092010110929E017B
:10245000709009018091030190910401C7CF8336E8
:1024600009F48FC010E00BE0843614F010E002E0B5
:102470004CE0749E000D11240E941105982F977F47
:10248000933209F080C08091A4019091A50101963A
:102490009093A5018093A4010F5FEECF8D3609F4D0
:1024A00045C054F4873651F134F18C3651F1109215
:1024B000A5011092A40163CF823709F44CC044F403
:1024C0008F36A9F70E943205782E809309018ECFAE
:1024D000843709F443C0863751F70E943205909340
:1024E00002018093010182CF739480CF7A947ECFD2
:1024F00010E004E0BDCF10E005E0BACF10E007E047
:10250000B7CF0E9432059093080180930701809114
:1025100005019091060160910701709108010E94E8
:102520005E18709304016093030160CF0E9411054F
:102530008C3661F410929E018091A4019091A501C6
:1025400001969093A5018093A40150CF50929E01D3
:1025500010929D01F1CF11E000E08ACF0E94320578
:10256000BC01C5010E945E18469EC001479E900DA9
:1025700011249093060180930501C9CF10E009E072
:1025800077CF10E0E9CF8D3269F48091A40190916A
:10259000A50101969093A5018093A40101500E948A
:1025A0001105F1CFE0900301F090040181538830D0
:1025B00058F4E0900501F09006010E943205BC013C
:1025C000C7010E945E187B016701D694C7940E94E0
:1025D00011058E3261F48091A4019091A5010196BC
:1025E0009093A5018093A401EC0CFD1CEECF80918B
:1025F0009E01882349F0C7019695879580939D0198
:1026000080919D01E81AF108C0900101D09002016B
:10261000111104C00F3F11F0C11007C040E0B70115
:1026200088EE93E00E945A05AACE013128F010EFFF
:10263000100F103608F01FE5812F6CE00E94521831
:10264000582F44EF450390011124210F311D2C30E8
:10265000310538F4220F331FF901ED5DFE4FC081C3
:10266000D1818730C1F0082E02C0CC0FDD1F0A9443
:10267000E2F7823040F0CE0105966AE070E00E94F9
:102680005E18CB0102C0CE0190584C2D403108F0AD
:102690004FE0B701C7CFCE0126E0880F991F2A95DA
:1026A000E1F7029665E070E0EACF1F920F920FB655
:1026B0000F9211242F933F934F936F937F938F9398
:1026C0009F938CB1282F30E0359527953595279528
:1026D000422F417083B190E064E0959587956A95AB
:1026E000E1F78227817020919C0190919B0160917C
:1026F000990170919A0128279427291B330B260FE3
:10270000371F30939A012093990120919B0190915A
:102710009C01281729F0941719F091E090939801E3
:1027200080939B0140939C019F918F917F916F912A
:102730004F913F912F910F900FBE0F901F901895C2
:10274000EF92FF920F931F93CF93DF93F82E192FE1
:10275000E62E042F81E0860F880F0E942C0383E071
:102760000E942C03CF2DD12FEC0EFD2EF11CCE1587
:10277000DF05B9F007FF13C0FE0184910E942C030E
:10278000182F80E00E942C03812321968111EFCF26
:10279000DF91CF911F910F91FF90EF900895888165
:1027A000EDCF81E0F5CFCF93DF93EFE3F2E013823B
:1027B000128288EE93E0A0E0B0E084839583A68344
:1027C000B78386E491E0918380838FEF9FEF9587B5
:1027D0008487CFE8D2E01B821A8248EA50E060E2A8
:1027E00070E083EA92E00E94DC1810927603109267
:1027F00075038DE098E09D878C871F861E868CE789
:1028000098E0998B888B1B8A1A8A81E08A8788E5F1
:1028100091E099838883DF91CF910895789484B56E
:10282000826084BD84B5816084BD85B5826085BDCC
:1028300085B5816085BD80916E00816080936E005A
:10284000109281008091810082608093810080914C
:1028500081008160809381008091800081608093FD
:10286000800080919100826080939100809191001E
:1028700081608093910080919000816080939000AE
:102880008091C10084608093C1008091C10082600A
:102890008093C1008091C10081608093C1008091CC
:1028A000C30081608093C3008091C00082608093E8
:1028B000C0008091C20081608093C20080917A0044
:1028C000846080937A0080917A00826080937A009D
:1028D00080917A00816080937A0080917A0080688C
:1028E00080937A0010923E0210921E0210921D02F6
:1028F0008091D70081608093D70080EA8093D800D0
:1029000089B5806189BD89B5826089BD09B400FE41
:10291000FDCF0E9407038091D8008F7C8061809357
:10292000D8008091E000807F8093E0008091E100FA
:102930008E7E8093E1008DE08093E200559A209A8C
:102940008FEF9FEF90934C0280934B020E942F0BCE
:10295000C8ECD0E000E010E090E2C92EDD24D39472
:102960000E941F03683873418105910548F08091EA
:1029700021019091220101969093220180932101DF
:1029800080912101909122018130910509F0ADC023
:102990000E942F0B10924B0310924C038AE1E82EF9
:1029A00083E0F82EF7016491662349F08FE892E006
:1029B0000E94030BFFEFEF1AFF0A892B99F70E9481
:1029C000BB0B20E030E040E850E40E947517AB01FB
:1029D000BC0122E08FE892E00E94380980911F023A
:1029E000811104C0D0921F020E943306D0938B0045
:1029F000C0938A002A98229A80911F02811104C0F4
:102A0000D0921F020E943306D0938900C0938800A1
:102A10002998219A0E941F038090240290902502F9
:102A2000A0902602B0902702681979098A099B09AB
:102A30006A3F71058105910508F450C00E94BB0BE7
:102A40004B015C010E941F036093240270932502D6
:102A500080932602909327020E94BB0B20E030E077
:102A600040E850E40E947517AB01BC0122E08FE3FF
:102A700092E00E94380969E771E08FE392E00E94DA
:102A8000DD086CE771E08FE392E00E94DD082091A1
:102A90002002309121024091220250912302C5016F
:102AA000B4010E94AC1520E030E048EC52E40E94F2
:102AB0001D16AB01BC01409320025093210260938C
:102AC00022027093230222E08FE392E00E943809F1
:102AD00069E771E08FE392E00E94DD0801151105BE
:102AE00009F43ECF0E9400003BCF029779F50E9487
:102AF0002F0B10924B03C0924C036CE671E08FE8F1
:102B000092E00E94DD0866E771E08FE892E00E94A3
:102B1000DD080E94BB0B20912002309121024091E0
:102B20002202509123020E94AC1520E030E048ECD4
:102B300052E40E941D16AB01BC0140932002509349
:102B40002102609322027093230243CF109222014C
:102B50001092210143CF5058BB27AA270E94C315CA
:102B60000C9436170E94281738F00E942F1720F077
:102B700039F49F3F19F426F40C9425170EF4E095D0
:102B8000E7FB0C941F17E92F0E94471758F3BA1759
:102B9000620773078407950720F079F4A6F50C9473
:102BA00069170EF4E0950B2EBA2FA02D0B01B90179
:102BB00090010C01CA01A0011124FF27591B99F0B3
:102BC000593F50F4503E68F11A16F040A22F232FBF
:102BD000342F4427585FF3CF469537952795A7950F
:102BE000F0405395C9F77EF41F16BA0B620B730BB6
:102BF000840BBAF09150A1F0FF0FBB1F661F771F27
:102C0000881FC2F70EC0BA0F621F731F841F48F4DB
:102C1000879577956795B795F7959E3F08F0B0CF64
:102C20009395880F08F09927EE0F9795879508954B
:102C30000E94FB1608F481E008950E9431160C945E
:102C400036170E942F1758F00E94281740F029F4D9
:102C50005F3F29F00C941F1751110C946A170C94C4
:102C600025170E94471768F39923B1F3552391F371
:102C7000951B550BBB27AA2762177307840738F0EB
:102C80009F5F5F4F220F331F441FAA1FA9F335D048
:102C90000E2E3AF0E0E832D091505040E695001CFC
:102CA000CAF72BD0FE2F29D0660F771F881FBB1FB6
:102CB000261737074807AB07B0E809F0BB0B802D94
:102CC000BF01FF2793585F4F3AF09E3F510578F0C0
:102CD0000C941F170C946A175F3FE4F3983ED4F3EB
:102CE000869577956795B795F7959F5FC9F7880F94
:102CF000911D9695879597F90895E1E0660F771FE6
:102D0000881FBB1F621773078407BA0720F0621B76
:102D1000730B840BBA0BEE1F88F7E09508950E94A1
:102D20004F1788F09F5798F0B92F9927B751B0F0F7
:102D3000E1F0660F771F881F991F1AF0BA95C9F73F
:102D400014C0B13091F00E946917B1E008950C945D
:102D50006917672F782F8827B85F39F0B93FCCF310
:102D6000869577956795B395D9F73EF490958095BC
:102D7000709561957F4F8F4F9F4F0895E89409C0DC
:102D800097FB3EF490958095709561957F4F8F4F9E
:102D90009F4F9923A9F0F92F96E9BB279395F695B4
:102DA000879577956795B795F111F8CFFAF4BB0F32
:102DB00011F460FF1BC06F5F7F4F8F4F9F4F16C096
:102DC000882311F096E911C0772321F09EE8872F20
:102DD000762F05C0662371F096E8862F70E060E0DC
:102DE0002AF09A95660F771F881FDAF7880F969555
:102DF000879597F90895990F0008550FAA0BE0E8F9
:102E0000FEEF16161706E807F907C0F012161306AC
:102E1000E407F50798F0621B730B840B950B39F4EC
:102E20000A2661F0232B242B252B21F408950A2652
:102E300009F4A140A6958FEF811D811D089597F992
:102E40009F6780E870E060E008959FEF80EC089550
:102E500000240A9416161706180609060895002479
:102E60000A9412161306140605060895092E0394F3
:102E7000000C11F4882352F0BB0F40F4BF2B11F467
:102E800060FF04C06F5F7F4F8F4F9F4F089557FDC6
:102E90009058440F551F59F05F3F71F04795880FC8
:102EA00097FB991F61F09F3F79F08795089512165F
:102EB00013061406551FF2CF4695F1DF08C016160B
:102EC00017061806991FF1CF8695710561050894BC
:102ED0000895E894BB2766277727CB0197F90895D3
:102EE0000E94FB1608F48FEF08950E9488170C9437
:102EF00036170E94281738F00E942F1720F09523CC
:102F000011F00C941F170C94251711240C946A17B8
:102F10000E94471770F3959FC1F3950F50E0551F1E
:102F2000629FF001729FBB27F00DB11D639FAA271E
:102F3000F00DB11DAA1F649F6627B00DA11D661F6D
:102F4000829F2227B00DA11D621F739FB00DA11D8E
:102F5000621F839FA00D611D221F749F3327A00D48
:102F6000611D231F849F600D211D822F762F6A2FE4
:102F700011249F5750409AF0F1F088234AF0EE0F49
:102F8000FF1FBB1F661F771F881F91505040A9F776
:102F90009E3F510580F00C941F170C946A175F3FF9
:102FA000E4F3983ED4F3869577956795B795F795B2
:102FB000E7959F5FC1F7FE2B880F911D969587952A
:102FC00097F9089519F416F40C9425170C942D18FC
:102FD0000E944F17B8F39923C9F3B6F39F57550BC7
:102FE00087FF0E943B180024A0E640EA9001805829
:102FF0005695979528F4805C660F771F881F20F000
:1030000026173707480730F4621B730B840B2029FF
:1030100031294A2BA69517940794202531254A2754
:1030200058F7660F771F881F20F0261737074807C5
:1030300030F4620B730B840B200D311D411DA095E4
:1030400081F7B901842F9158880F96958795089537
:103050000E94FB16880B990B08959F3F31F0915009
:1030600020F4879577956795B795880F911D96956C
:10307000879597F9089591505040660F771F881FE4
:10308000D2F70895DB018F939F930E94C818BF91D8
:10309000AF91A29F800D911DA39F900DB29F900DA7
:1030A00011240895991B79E004C0991F961708F020
:1030B000961B881F7A95C9F780950895AA1BBB1B9C
:1030C00051E107C0AA1FBB1FA617B70710F0A61B28
:1030D000B70B881F991F5A95A9F780959095BC0149
:1030E000CD010895A1E21A2EAA1BBB1BFD010DC044
:1030F000AA1FBB1FEE1FFF1FA217B307E407F507A8
:1031000020F0A21BB30BE40BF50B661F771F881F83
:10311000991F1A9469F760957095809590959B0119
:10312000AC01BD01CF010895052E97FB1EF400945C
:103130000E94AB1857FD07D00E94721807FC03D0FD
:103140004EF40C94AB1850954095309521953F4F17
:103150004F4F5F4F089590958095709561957F4F83
:103160008F4F9F4F0895EE0FFF1F0590F491E02DB4
:103170000994A29FB001B39FC001A39F700D811D50
:103180001124911DB29F700D811D1124911D089570
:103190000E94B918A59F900DB49F900DA49F800D1B
:1031A000911D11240895FB01DC0102C001900D92D4
:1031B00041505040D8F70895DC0101C06D93415053
:0A31C0005040E0F70895F894FFCFA7
:1031CA00010F00F401D00704000401FFFFFFFF0014
:1031DA00E10000000000002B032B032B032B032B21
:1031EA000301009C01B501CF01EA0107022602474B
:1031FA000269028E02B502DE020A0300C180810062
:10320A000000000000003F04BE0360045504A60449
:10321A006404820400000000030B6A0BDA08D90870
:10322A006E616E00696E66006F766600446973743B
:10323A00616E63653A002020000D0A00746F7461A4
:06324A006C64697373005F
:00000001FF
