:020000040000FA
:100000000C9476040C949E040C949E040C949E0410
:100010000C949E040C949E040C949E040C949E04D8
:100020000C949E040C949E040C949E040C949E04C8
:100030000C949E040C949E040C949E040C949E04B8
:100040000C9468140C949E040C94D8140C94B21460
:100050000C949E040C949E040C949E040C949E0498
:100060000C940A150C949E04000000002400270044
:100070002A0000000000250028002B0000000000DE
:1000800023002600290004040404040404040202DA
:100090000202020203030303030301020408102007
:1000A0004080010204081020010204081020000012
:1000B0000008000201000003040700000000000027
:1000C00000005F00030305050405061614FDFC0E81
:1000D000FC0EFE026D05BA080B200600602C012103
:1000E0000FC4253423391C2C2265C9212201220981
:1000F000A5644621E14500231B8B616429114BC493
:1001000012D961729849C412D961729849C412B166
:100110004408242149A65B1987846B924829520A16
:100120005582B643E81033464AA14AA8129195E396
:100130009020002529EEE17B35938A2641594828F5
:100140000B456511A9287D2487C6C6225134240B8E
:100150008A64C1982CA6148C4EE330002624D02546
:100160008C4B078AE420991C2493832672581D3AED
:10017000ABD984135270561D52A7B4DA21741B01F7
:100180002707A2642E7118281105A23327128D4467
:100190002399DE66B2995000291005A2332194CD2F
:1001A00064337D1A89466A002A10E7E045354A9A89
:1001B00044442349649434022B154A215C2987C89E
:1001C000217288F07030CA2172881C22042C0BE442
:1001D000602B23394446D9002D0765E034F1102EF9
:1001E0000A84202C23394424002F0FC6213CA9184F
:1001F000540C2A0615838A003013C9255C379C8C61
:100200006492997F9BC84493E10C00310BC7295C31
:10021000271C15F79F0E3215C9255C47134D66B68E
:10022000896C3C1D4FA762D5C3A1003317C9255C5B
:1002300047134D66B6896C2C9C83E41399DB4434D8
:100240002B013416C9255C1F174F1923B3D028364C
:100250008A4D829383743C2D3518C9255C73889C24
:10026000E29038240EB1C5E6E389CC6D229A950060
:100270003616C9255C575A91D924E3C988B2E66D70
:10028000229B8C8433003711C9255CF1509E8AE58E
:1002900062B97875BC11003815C9255C379449A43A
:1002A000D4E2456434858E556A4D46033917C92515
:1002B0005C37144D669299B7C98434194F6436C9B6
:1002C0006854033A0D242534233944C4924344022C
:1002D0003B0F846533233944C4924364940D003C3E
:1002E000114A215C0F111339D32174081D4287086C
:1002F0003D0BC9A45CF140473C1C083E124A215CFE
:100300002187D02174081D4226729643003F12C9EE
:1003100021545712DD6C13D958772431952C0440A1
:1003200027CF21847B1ECBE4A090AC2411299164BB
:1003300022924C449189246A2289D244249A10E55D
:10034000A0D8587C08024120CE1D741F07CB8173B2
:10035000201D1499834272486C1E1B47A7076178C1
:10036000181FC927D402421ECC21747198CD48C3EE
:10037000D170341CCD6687E0D274329D4C27D3C92E
:1003800070729001431DCC2174590AB18C25E33A57
:10039000840EA183E6A039680E89CC23E3184D5A58
:1003A00003441FCE218471980E69E3D178349FCC29
:1003B00027F3C97C329FCC27E3D17834241D8600F3
:1003C000451FCB216C71A00C2753C92C1499852291
:1003D00023E171249C0567A1C83832950C0F0746AC
:1003E0001ECB216C71A00C2753C92C149985222394
:1003F000E171249C0567C139640E995B014721CDE9
:10040000217C598A914863D158328744E690C81CB0
:1004100036874D0FE1D174349D91A8A50800481E80
:10042000CE218451AC8C47E3D178341E8D4787D2DE
:1004300078341E8D47E3D178349E140B490AC525C4
:100440004C5119ED7F294A13CA1D645B9EEF936CD2
:10045000429A9026C2916848044B1ECE2184512BAB
:100460004D8543E94C3C924FE4103BE43E218FA87C
:1004700033E29036A5D40C4C10CA2164519EEFAFE4
:1004800091696428991D0C4D2DD1219C612E916993
:10049000555A641899856691596816998546A159E7
:1004A0006C129AC526A1598C360BCE66C1D9681834
:1004B0009CD462054E21CE218441AD5067D42035B5
:1004C000584CA10543A4608C120C16A3C428313CDF
:1004D0001B8BCA21004F1DCE21846926D1C6A3F1F2
:1004E000640EB143EC103BC40EB1439647E3198947
:1004F0006C04501ECC21747110CE4843CA9032A4B3
:100500000C2933D2213807CD4173D01C3487D40154
:1005100051284E22836926D1C6A3F1640EB143EC63
:10052000103BC40EB1D026A39168269951CA76A873
:100530001C3A8983EAB01100521FCD218471A00DAD
:1005400049D3D174341D0D6787E86C381BCE68C35E
:10055000D970369C1827005316CA21644709AD0C80
:1005600025D308D97A355BCBD5D3245402541CCB80
:10057000216C7130ADCD6433D92C3887CC2173C850
:100580001C3287CC2173C8BC06551ECE218451ACC9
:100590008C47F3D83C368FCD63F3D83C368FCD6390
:1005A000F3D83C38941B015622CF1D7461AC906780
:1005B000F320353C0D4FE3B3386416074DE2B049E4
:1005C0001C3887CEC171781C005730D41D9C613116
:1005D0005568C4D9701AA4D1C2335A78460B532235
:1005E000943864129AC42193D0240EA1D161C339E6
:1005F0006C380786E3D0701800581FCF218C63AA8F
:1006000011A734F9480EB1C3E8503AAC0EB34344D5
:1006100064E174481B538A06591FCD217C61A350A5
:1006200065D3204D3A0B53E2903A680E9BC3E6B077
:10063000396C0E9B436E005A19CC216CF1102E4F71
:10064000C294289D0E9943E8AC1172645C3E1C0272
:100650005B0A04A63361D2FF13015C12C8214C214E
:10066000968BE562B9582E968BE562015D0A04A26D
:100670003341D2FF93015E0E08A14D2796126922E5
:100680002D42A2005F0749604BF140600885A43EFF
:10069000215B1461122A215C739A4D8463DA646DC4
:1006A000329B8C9806621FCC1D644107CD4173D0EC
:1006B0001C34074D88B4D174329D4C27D3C9744281
:1006C0001B496A00630F292154571A19CB5B233346
:1006D000190900641DCC216C4F07CD4173D01C3427
:1006E000A48C6694E9643A994EA693E96846A410EE
:1006F00065122A215C471C4D86C6C3413E8E0C659F
:100700002500660EC8213C4793EC3AB44DF7B1067C
:10071000671EEB215B0F924346C6D14C2813CA4695
:1007200043A31C74081E22D289583294DD00681E2F
:10073000CC216C4107CD4173D01C34074D6A24D2C3
:1007400070341C0D47C3D170349C940A690CC521C8
:1007500034335A0792F64B016A0F471633B91D8D91
:10076000B83F5A2C2212006B1DCC216C4107CD41A1
:1007700073D01C34078D4A33E1283C115F27C41124
:100780006D46A9186C0AC5213441DAFFA5006D1821
:100790003321A441A9D84825D27069B8345C1A2EF7
:1007A0000D97862BA5066E152C216C41A99148C387
:1007B000D170341C0D47C3D170522A6F0F2B2164A6
:1007C000579C4DA6BE4E66C31A00701CAC1D63310B
:1007D00022D246D3C974329D4C27D3096D3421CE21
:1007E0004173D01C5207711CAC21634712CD28D332
:1007F000C974329D4C27D3D18C489983E6A03968BF
:100800000E29720F28214C4111512423C974C71A93
:100810000073122921544509C924C388F16A2D4A5D
:100820002225007411A72144178E0A67A6E19E2293
:10083000A310050075152C216C51220D47C3D170F2
:10084000341C0D47C3115B850076142A1D4C519A48
:100850000C43C3D828388A92E972881000771B307D
:100860001D7C51294D66C3D06C181B918223529474
:100870004426D1857288500878122B2164616193D7
:1008800051A4F579554293512806791BAB21635148
:100890009B4C43D3D82C388B4EC293F81C3207455F
:1008A00065D1497C0E7A0E29215471A0D588DC8A45
:1008B000C403017B0E05A2332712EDA4281BED26ED
:1008C000147C07C2315CF1037D0F05A23321948DA6
:1008D000B60945A23DA9017E0B6A2465B572888CD4
:1008E000460000000004FFFF0000251611241FBE73
:1008F000CFEFD8E0DEBFCDBF11E0A0E0B1E0E6E68B
:10090000F5E302C005900D92AE39B107D9F723E0A7
:10091000AEE9B1E001C01D92AC3FB207E1F714E0CF
:10092000C6E7D4E004C02197FE010E94A41AC5378F
:10093000D107C9F70E941A170C94B11A0C94000041
:10094000662329F06A3019F0862F90E008958FEF22
:100950009FEF0895AF92BF92CF92DF92EF92FF92F6
:100960000F93CF93DF93EC01DA017901942F977005
:10097000E1E0F0E09F01092E01C0220F0A94EAF79E
:10098000522F6E018AE8C80ED11CF601808140E02A
:10099000823018F4422F813049F15D01F8EFAF2227
:1009A000E8ADF9AD28813981D90150968C918A9DA5
:1009B00090018B9D300D1124620F731FDF01A60F74
:1009C000B71F01111AC0EA0EFB1E8C91842B8527DC
:1009D0008D93AE15BF05C9F7DF91CF910F91FF90B1
:1009E000EF90DF90CF90BF90AF90089550E0D5CFBB
:1009F000440F550FE114F10479F33C91342B352762
:100A00003C939F5F9770E1E0EE1AF1089111F0CFEF
:100A10002CAD3DADA20FB31FF6018081823028F4CA
:100A2000813009F051E041E0E5CF51E0E3CF80E0D3
:100A3000089590E080E008958091C4039091C503EB
:100A4000892BA1F18091E4038093F0034091E503A9
:100A50004093F1039091EF03992341F1913069F4B0
:100A60009091E603891714F49093F0038091E703C3
:100A70008417E4F48093F10308953091E103209109
:100A8000E303082E000C990B622F022E000C770B4B
:100A9000630F711D37FD7A95861797071CF4320F87
:100AA0003093F003241714F42093F10308959B016D
:100AB000DC011896ED91FC9141E067E109948330E7
:100AC00081F028F4813099F08230A9F008958730C0
:100AD000A9F08830C9F08430B1F4809180008F7D16
:100AE00003C0809180008F7780938000089584B543
:100AF0008F7784BD089584B58F7DFBCF8091B00042
:100B00008F778093B00008958091B0008F7DF9CFEA
:100B1000CF93DF93282F30E0F901E255FF4F849106
:100B2000F901E656FF4FD491F901EA57FF4FC491FE
:100B3000CC23A1F081110E945F05EC2FF0E0EE0FB5
:100B4000FF1FE458FF4FA591B491EC91ED2381E094
:100B500090E009F480E0DF91CF91089580E090E08B
:100B6000FACF1F93CF93DF93282F30E0F901E2559E
:100B7000FF4F8491F901E656FF4FD491F901EA57EE
:100B8000FF4FC491CC23A9F0162F81110E945F055D
:100B9000EC2FF0E0EE0FFF1FEE58FF4FA591B49140
:100BA0008FB7F894EC91111108C0D095DE23DC9337
:100BB0008FBFDF91CF911F910895DE2BF8CFCF9398
:100BC000DF9390E0FC01E656FF4F24918A579F4F38
:100BD000FC0184918823C9F090E0880F991FFC01E3
:100BE000E859FF4FA591B491FC01EE58FF4FC59114
:100BF000D49161110DC09FB7F8948C9120958223F8
:100C00008C938881282328839FBFDF91CF910895FB
:100C1000623051F49FB7F8943C91822F80958323E2
:100C20008C93E8812E2BEFCF8FB7F894EC912E2B7D
:100C30002C938FBFEACF8E3008F08E50877080647F
:100C400080937C0080917A00806480937A00809108
:100C50007A0086FDFCCF809178009091790008950C
:100C60003FB7F8948091450290914602A0914702C7
:100C7000B091480226B5A89B05C02F3F19F00196F8
:100C8000A11DB11D3FBFBA2FA92F982F8827BC01E6
:100C9000CD01620F711D811D911D42E0660F771F0E
:100CA000881F991F4A95D1F708958F929F92AF920E
:100CB000BF92CF92DF92EF92FF926B017C010E9474
:100CC00030064B015C01C114D104E104F104B9F018
:100CD0000E943006681979098A099B09683E7340A9
:100CE0008105910580F321E0C21AD108E108F108DD
:100CF00088EE880E83E0981EA11CB11CE4CFFF9003
:100D0000EF90DF90CF90BF90AF909F908F9008951D
:100D1000AF92BF92CF92DF92EF92FF920F931F9309
:100D2000CF93DF936C017B018B01040F151FEB0147
:100D30005E01AE18BF08C017D10759F06991D601FE
:100D4000ED91FC910190F081E02DC6010995892B70
:100D500079F7C501DF91CF911F910F91FF90EF902F
:100D6000DF90CF90BF90AF900895FC01538D448DDC
:100D7000252F30E0842F90E0821B930B541710F046
:100D8000CF96089501970895FC01918D828D981753
:100D900061F0A28DAE0FBF2FB11D5D968C91928D2B
:100DA0009F5F9F73928F90E008958FEF9FEF08955C
:100DB000FC01918D828D981731F0828DE80FF11D25
:100DC000858D90E008958FEF9FEF0895FC01918D40
:100DD000228D892F90E0805C9F4F821B91098F7339
:100DE0009927089589E492E00E94E60621E0892B84
:100DF00009F420E0822F089580E090E0892B29F00B
:100E00000E94F20681110C9400000895FC01A48D4B
:100E1000A80FB92FB11DA35ABF4F2C91848D90E01C
:100E200001968F739927848FA689B7892C93A089FF
:100E3000B1898C91837080648C93938D848D981389
:100E400006C00288F389E02D80818F7D808308951C
:100E5000EF92FF920F931F93CF93DF93EC0181E00A
:100E6000888F9B8D8C8D98131AC0E889F9898081B1
:100E700085FF15C09FB7F894EE89FF896083E889E4
:100E8000F98980818370806480839FBF81E090E0D6
:100E9000DF91CF911F910F91FF90EF900895F62E63
:100EA0000B8D10E00F5F1F4F0F731127E02E8C8DFD
:100EB0008E110CC00FB607FCFACFE889F989808142
:100EC00085FFF5CFCE010E940607F1CFEB8DEC0F29
:100ED000FD2FF11DE35AFF4FF0829FB7F8940B8F5F
:100EE000EA89FB8980818062CFCFCF93DF93EC01C9
:100EF000888D8823B9F0AA89BB89E889F9898C9102
:100F000085FD03C0808186FD0DC00FB607FCF7CFBD
:100F10008C9185FFF2CF808185FFEDCFCE010E94BD
:100F20000607E9CFDF91CF9108952091F101260FB7
:100F30003327331F21323105ECF420911502FC01D7
:100F400090E080E0243069F082E00895A091F10102
:100F50002191AC014F525E4FA40FB52FB11D2C93C0
:100F60000196861798F38091F101680F6093F10163
:100F700080E0089581E0089508958FEF9FEF089530
:100F80008FEF9FEF08958091CA0190E09195819530
:100F900091090895CF93DF93CB01EA01642F0E945A
:100FA0009507CE01DF91CF910895CF93DF931F92E4
:100FB000CDB7DEB7698361E0CE0101960E94950747
:100FC00081E090E00F90DF91CF910895DC011A96B7
:100FD000ED91FC9130E020E009941F93CF93DF93D3
:100FE000EC01A881B981683109F49BC038F46431FF
:100FF00009F489C0673149F080E00EC0693109F415
:10100000D4C06032C9F76AE488C01C968C9180FD18
:101010003FC0411105C081E0DF91CF911F9108953C
:10102000F90181919F014150DFB7F894A091C80167
:10103000B091C901C091C701E091C501F091C6010D
:101040007091C4016091C30181110EC08C918C23F9
:101050008C9388E09081972B908390819623908346
:101060008150C1F7DFBFD5CF1091C20198E05C91EC
:1010700087FF0CC0512B5C935081572B5083880FF6
:10108000508156235083915091F7ECCF5C23F3CFDE
:10109000442309F4C0CFF90181919F014150DFB78A
:1010A000F894A091C801B091C901C091C701E09125
:1010B000C501F091C6016091C4017091C301811115
:1010C0000EC08C918C238C9388E090819723908321
:1010D0009081962B90838150C1F7DFBFD9CF1091BB
:1010E000C20198E05C9187FF0CC0512B5C9350814A
:1010F00057235083880F5081562B5083915091F77E
:10110000ECCF5C23F3CF11964C9169E40E94E60783
:10111000E881F9814485417060E4CE010E94E607D0
:101120007ACF4C9169E40E94E607A881B981EA85EB
:10113000FB8530E020E012964C916CE2CE010995DF
:101140008E8D90E0FC01EA57FF4FE491F0E0EE0F46
:10115000FF1FEE58FF4F259134913093C601209325
:10116000C501FC01E656FF4FE491E093C401E09510
:10117000E093C3018F8D90E0FC01EA57FF4FE491AB
:10118000F0E0EE0FFF1FEE58FF4F259134913093A2
:10119000C9012093C801FC01E656FF4FE491E0939A
:1011A000C201E095E093C70136CFEA85FB8530E0C8
:1011B00020E013964C916CE20995E881F981418118
:1011C00069E4ABCFDC011696ED91FC9130E020E0B4
:1011D00040E069E10994DC011696ED91FC9130E064
:1011E00020E040E068E109949A01DC011696ED9157
:1011F000FC91462F67E10994EF92FF920F931F93A2
:10120000CF93DF931F92CDB7DEB77C018B01D8015E
:101210006C91673129F150F46531A0F40F90DF91A2
:10122000CF911F910F91FF90EF9008956A3118F1BF
:101230006E3FA1F7F8014181498369E2C7010E942D
:10124000E6070BC0F80141814983D7011696ED915D
:10125000FC9130E020E0C70109950E5F1F4FD7CF0A
:10126000F80181818983AE014F5F5F4F61E0C70163
:101270000E94F408F2CF0F5F1F4FD7011696ED9131
:10128000FC9130E020E040E0C7010995C0CF462F37
:10129000DC011696ED91FC9130E020E066E10994C6
:1012A000462FDC011696ED91FC9130E020E065E1DF
:1012B0000994EF92FF920F931F93CF93DF93EC016A
:1012C000042F79016D3009F446C050F46B30C9F138
:1012D000693009F49FC06A3009F465C080E046C0F7
:1012E0006E3009F452C06F3099F70E94EB08F70195
:1012F0001381110F110F110F6C89160F60E4CE01CD
:101300000E945009612F62956F706061CE010E944A
:101310005009612F6F70CE010E944709F701648167
:10132000606BCE010E944709F701408151816281C3
:10133000660F660F660FCE010E94F4080150A1F7F8
:101340002EC063E171E0442311F06EE071E0CE0144
:101350000E94FC080AC0411110C067E071E00E94C1
:10136000FC08E881F98182898C8B81E0DF91CF9143
:101370001F910F91FF90EF90089560E071E00E943F
:10138000FC08E881F9818389EFCF0E94EB0861E8CE
:10139000CE010E945009602FCE010E944709CE0164
:1013A0000E94E208E2CFEA85FB8530E020E040E0E1
:1013B00068E2CE010995EE81FF8130E020E040E057
:1013C00064E1CE01099541E06BE4CE010E94E6079D
:1013D000E881F981448169E2CE010E94E60740E09C
:1013E0006BE4CE010E94E607E881F981448169E25D
:1013F000CE010E94E60741E06BE4CE010E94E607C1
:10140000E881F981458169E2CE010E94E60768E141
:1014100071E09DCF8DE491E0998388831C8AA5CFEC
:10142000CF93DF931F92CDB7DEB76983BE016F5FA5
:101430007F4F0E9457050F90DF91CF910895462F5F
:10144000DC011896ED91FC9130E020E060E2099417
:10145000EF92FF920F931F93CF93DF938C01C62FD0
:10146000D42F7901673130F46531B8F4643131F04B
:1014700080E01BC0673101F16A31D0F7D8011896BE
:10148000ED91FC9197014D2F6C2FC801DF91CF9109
:101490001F910F91FF90EF90099460E00E941F0A46
:1014A0006D2FC8010E94100A81E0DF91CF911F913A
:1014B0000F91FF90EF90089561E00E941F0ADECF28
:1014C0000F93FC01E05CFF4F0190F081E02D4E1B7B
:1014D0005F0BDC01D496ED91FC9109950F91089575
:1014E000CF93DF93FC01A081B18182AD90E09C019C
:1014F00043E0220F331F4A95E1F737AF26AF5096EE
:101500002C91509748E0249F9001112435AF24AFCF
:1015100023AD30E0B90153E0660F771F5A95E1F72C
:10152000EF01C05CDF4F7983688351964C915197EE
:10153000E901C80FD91F50E04C175D0718F4CA0124
:10154000821B930BEF01CE5BDF4F7983688322967A
:1015500023E0880F991F2A95E1F7860F971F99833B
:101560008883229654968D919C9155979983888370
:10157000E85BFF4F56968D919C9191838083DF911C
:10158000CF9108950F931F93FC01E25BFF4F0190F1
:10159000F081E02DDC01A05BBF4F0D90BC91A02D30
:1015A0004A175B0740F4E017F10748F004171507E6
:1015B00030F080E019C0E017F107C0F3FACFFC016A
:1015C000E65BFF4F40815181845B9F4FFC0180812E
:1015D00091816817790758F481E04217530720F08A
:1015E00081E02617370728F71F910F9108954217BA
:1015F0005307B0F3DECF2F923F924F925F926F92DC
:101600007F928F929F92AF92BF92CF92DF92EF9292
:10161000FF920F931F93CF93DF93CDB7DEB72A9737
:101620000FB6F894DEBF0FBECDBF9A878987865B61
:101630009F4F9A838983FC0111821082E985FA8584
:10164000EA5BFF4F4080518029853A85245B3F4FFC
:101650003C832B83F90151824082E985FA85EE5B58
:10166000FF4F2080318029853A85225B3F4F3E83A2
:101670002D83F90131822082E985FA85EC5BFF4FE9
:101680006080718029853A85205B3F4F38872F83A2
:10169000F90171826082E985FA85E85AFF4FE0809E
:1016A000F180E985FA85EC5AFF4FA080B180E98589
:1016B000FA85EA5AFF4FC080D180E985FA85EE5A53
:1016C000FF4F8080918087019501A601B401898533
:1016D0009A850E94C20A29853A852C573F4F3A873E
:1016E000298781111BC0F90110822A960FB6F89440
:1016F000DEBF0FBECDBFDF91CF911F910F91FF9045
:10170000EF90DF90CF90BF90AF909F908F907F90A1
:101710006F905F904F903F902F90089581E0E98502
:10172000FA8580838114910421F0E981FA81918204
:101730008082A414B50420F4EB81FC81B182A082E4
:101740002C143D0420F4ED81FE81D182C082E61488
:10175000F70458F6EF81F885F182E082C6CF0F9347
:10176000CF93DF93E02FDC01AC57BF4FFC91FF23F9
:1017700009F460C02115310509F45CC0223031053F
:1017800038F0023009F04AC06F5F7F4F621B730B65
:101790000E2F0170E0FD52C0FC01E25BFF4F019093
:1017A000F081E02D4E175F0708F444C0FC01E05BB8
:1017B000FF4F0190F081E02D4E175F07D8F5FC0137
:1017C000E45BFF4F0190F081E02DDC01A65BBF4F91
:1017D0000D90BC91A02D260F371F2617370738F51F
:1017E0006E177F0718F59F0121503109A217B30723
:1017F00008F56A177B0708F4BD012E173F0708F4A8
:10180000F901E61BF70BEC01AEA9BFA914960D90E8
:10181000BC91A02D9F01FD0109950CC0033009F07A
:10182000B7CF4F5F5F4F421B530BB2CFBD016E1757
:101830007F07E0F2DF91CF910F910895FC01E65B05
:10184000FF4F0190F081E02D6E177F0798F3FC01A8
:10185000E45BFF4F0190F081E02D6E177F0750F79A
:10186000FC01E05BFF4F0190F081E02DDC01A25B09
:10187000BF4F0D90BC91A02D240F351F24173507A5
:10188000A8F44E175F0788F49F0121503109A21771
:10189000B30780F64A175B0708F4AD012E173F0720
:1018A00008F4F901E41BF50BAECFAD014E175F074D
:1018B00008F6EDCF0F932091B8033091B90362176A
:1018C0007307F0F02091BA033091BB0362177307DE
:1018D000B8F42091B4033091B5038217930780F0D8
:1018E0002091B6033091B7038217930748F4AB01F8
:1018F000BC0100E021E030E08AE693E00E94AF0BFB
:101900000F910895AF92BF92CF92DF92EF92FF9224
:101910000F93CF93DF935C017B016A01E90100FF24
:1019200010C0B9016E197F09CA018A0D9B1D0E9462
:101930005A0CBE016A197B09C7018C0D9D1D0E94BE
:101940005A0C01FF10C0BE016E197F09C6018A1929
:101950009B090E945A0CBE016A197B09C6018E19A7
:101960009F090E945A0C03FF10C0BE016E0D7F1D1F
:10197000C6018A0D9B1D0E945A0CBE016A0D7B1D7B
:10198000C7018C0D9D1D0E945A0C02FF19C0BE019B
:101990006E0D7F1DC6018A199B090E945A0CBE015B
:1019A0006A0D7B1DC6018E199F09DF91CF910F91A2
:1019B000FF90EF90DF90CF90BF90AF900C945A0CB7
:1019C000DF91CF910F91FF90EF90DF90CF90BF907C
:1019D000AF9008953F924F925F926F927F928F9255
:1019E0009F92AF92BF92CF92DF92EF92FF920F93AE
:1019F0001F93CF93DF932C015B01342E8B01085F83
:101A00001F4F9C01285F3F4FAB0147505109BC015C
:101A1000675071098AE693E00E94C20A882349F15F
:101A2000032D9501A20167E070E090E080E00E9444
:101A3000820C88248394912CD12CC12C97E0E92E20
:101A4000F12C22EF622E77247A94CAEFDFEF8FEF2A
:101A5000C81AD80A82E0880E911CC80DD91D032D22
:101A60009501A201B701C6010E94820CCE14DF04C9
:101A700090F0DF91CF911F910F91FF90EF90DF9049
:101A8000CF90BF90AF909F908F907F906F905F901E
:101A90004F903F900895D7FDDACF81E0E81AF10822
:101AA00082E0680E711CC60DD71DD1CF0F931F9316
:101AB00003E210E02FE530E04DE050E065E070E03B
:101AC0008AE693E00E94C20A882309F446C042E0F5
:101AD00064E170E08CE090E00E94EA0C41E064E197
:101AE00070E087E590E00E94EA0C44E06BE170E072
:101AF0008CE090E00E94EA0C48E06BE170E087E542
:101B000090E00E94EA0C00E02AE430E04DE050E072
:101B10006DE070E08AE693E00E94AF0B2AE430E0CB
:101B200042E250E06DE070E08AE693E00E94AF0B85
:101B300001E026E030E045E150E065E070E08AE653
:101B400093E00E94AF0B26E030E045E150E06EE507
:101B500070E08AE693E00E94AF0B1F910F91089509
:101B6000213069F038F0223079F0840F911D47FD63
:101B70009A950895860F911D67FD9A950895841B87
:101B8000910947FD93950895861B910967FD9395EB
:101B90000895213069F038F0223079F0861B9109E0
:101BA00067FD93950895840F911D47FD9A950895BB
:101BB000860F911D67FD9A950895841B910947FD35
:101BC000939508953F924F925F926F927F928F927A
:101BD0009F92AF92BF92CF92DF92EF92FF920F93BC
:101BE0001F93CF93DF937C01162F442EEC01C25A32
:101BF000DF4F5E806F806C018AE8C80ED11C78844C
:101C00007518312E711608F4372C8C809D800E8546
:101C1000202F462D652D8A819B810E94B00D5C018D
:101C2000202F462D652DC4010E94C90DAC01442012
:101C300079F08C85F6018083232D30E0B501C70152
:101C40000E94AF0B171548F017196394512CD7CF8A
:101C50008B858111F7CF8D85EDCF150D1E836F829A
:101C6000DF91CF911F910F91FF90EF90DF90CF9078
:101C7000BF90AF909F908F907F906F905F904F90AC
:101C80003F900895DC011A964C911A97ED91FC91C2
:101C90001197249130E0042E02C0359527950A94BF
:101CA000E2F7842F860F883068F031961196FC9306
:101CB000EE93E49198E0941B01C0EE0F9A95EAF739
:101CC0002E2B88501A968C938FEF9FEF01C0880FB0
:101CD0006A95EAF7809582230895FC01E60FF11DCD
:101CE000849190E0982F88273196E4918E0F911D72
:101CF0000895E2ECF0E0E491E093D703E3ECF0E048
:101D0000E491E093D803E4ECF0E0E491E093D903AC
:101D1000E5ECF0E0E491E093DA03E6ECF0E0E49146
:101D2000E093DB03E7ECF0E0E491E093DC03E8EC24
:101D3000F0E0E491E093DD03E9ECF0E0E491E0937E
:101D4000DE03EAECF0E0E491E093DF03EBECF0E09B
:101D5000E491E093E003ECECF0E0E491E093E10344
:101D6000EDECF0E0E491E093E203EEECF0E0E491DE
:101D7000E093E303EFECF0E0E491E093E403E0EDC3
:101D8000F0E0E491E093E503E1EDF0E0E491E0932D
:101D9000E603E2EDF0E0E491E093E70361E182EC39
:101DA00090E00E946D0E9093E9038093E80363E155
:101DB00082EC90E00E946D0E9093EB038093EA0317
:101DC00065E182EC90E00E946D0E9093ED038093AC
:101DD000EC0308954F925F926F927F928F929F9241
:101DE000AF92BF92CF92DF92EF92FF920F931F9329
:101DF000CF93DF93EC016B018A017901FC01E45977
:101E0000FF4F8081813009F44BC008F43EC082301E
:101E100009F451C0833009F459C0FE01E05AFF4F64
:101E2000D182C0823296118300833897808191815C
:101E300047962FEFE216F10411F008F0F2C0E1E648
:101E4000EE16F10408F44DC0FE01E058FF4F20816A
:101E50003181820F931F9C012F5F3F4FF901449105
:101E6000411148C090E080E0DF91CF911F910F9128
:101E7000FF90EF90DF90CF90BF90AF909F908F90AA
:101E80007F906F905F904F900895FE01E45AFF4F4E
:101E90000190F081E02DCE010995080F191FBDCFEB
:101EA000FE01E45AFF4F0190F081E02DCE0109952B
:101EB000C81AD90AB2CFFE01E45AFF4F0190F0814F
:101EC000E02DCE010995081B190BA7CFFE01E45A9E
:101ED000FF4F0190F081E02DCE010995C80ED91E6B
:101EE0009CCFF1E4EF16F10408F4B5CFFE01E258FF
:101EF000FF4FADCFFC0144914E151F0409F08CC07B
:101F00000296009709F4AECF7E01FEE5EF0EF11CBC
:101F1000F70191838083128673966081C7010E94C6
:101F2000420EF701808774966081C7010E94420EBD
:101F3000982EF70181875E01FAE8AF0EB11CF5011A
:101F40009081F701948781E0911180E0F701858706
:101F5000FE01ED58FF4FC0806C2DC7010E94420E5C
:101F6000582EFE01EC58FF4FD0806D2DC7010E9406
:101F7000420E482EFE01EB58FF4F1081612FC70122
:101F80000E94420E9FEF910F01E010E0980101C006
:101F9000220F9A95EAF7882E821AF70160841614A8
:101FA0000CF0ADC0CA94C80101C0880FCA94EAF70A
:101FB000581A7684490CDA94A80101C0440FDA94C7
:101FC000EAF7F42FF4194F2E272D4F2F652DF70127
:101FD000828193810E94B00D6C01F701938382830B
:101FE000272D442D652D848195810E94C90DF7010F
:101FF00095838483F1E07F1609F485C07F1608F489
:102000003FC022E0721609F48DC0E3E07E1609F4A9
:102010009DC0BC0196013EC0F9012491820F911D23
:102020001ACFFE01EE57FF4F00811181080F191FD3
:10203000680160E0C6010E946D0E080F191F62E082
:10204000C6010E946D0EF4E0CF0ED11C8E159F05C7
:1020500080F3F801849190E0982F88273196E491DD
:102060008E2B009709F4FECEE816F90619F4C80184
:10207000039647CFF8013296E4910E0F111DE9CF78
:102080009601260D311D67FC3A95BC01690D711D45
:1020900097FC7A958B01AC01B601CE010E94C20A71
:1020A000882369F1F701168217828E0101591F4FAB
:1020B0006E01F0E7CF0ED11CF8016081C7010E94CC
:1020C000420E682EF6016081C7010E94420E782EF2
:1020D00040E0662DCE010E94E20D41E0672DCE0169
:1020E0000E94E20D61E0C7010E94420E8111F0CF13
:1020F000F7018781891504F38485F5018083882D94
:10210000880C990BB1CE0919110997FC139596010A
:102110002F5F3F4FBC01660D711D67FC7A95C00EA5
:10212000D11EB8CFA8014619510967FC53959601F5
:102130002F5F3F4F0919110997FC1395BC016F5F81
:102140007F4F800F911FC40ED51EA4CF9601290D7D
:10215000311D97FC3A950619110967FC1395BC01CE
:102160006F5F7F4F800F911F95CFCF92DF92EF92DD
:10217000FF920F931F93CF93DF93109282036C0112
:10218000F12CE12C00E210E0CAE0D0E0F601619110
:102190006F01E0916C03F0916D038AE693E009957D
:1021A0008F3F980719F18E3F2FEF920779F39C012B
:1021B000A801BE018AE693E00E94EA0E2091D603B0
:1021C000213059F038F0223059F0233061F0E80E18
:1021D000F91EDCCFC80FD91FFACF080F191FF7CF90
:1021E000C81BD90BF4CF081B190BF1CFC701DF9126
:1021F000CF911F910F91FF90EF90DF90CF900895B6
:10220000CF93DF93EC016BAFEEA9FFA90190F081B2
:10221000E02D0995EEA9FFA90280F381E02DCE0102
:10222000DF91CF910994AF92BF92CF92DF92EF925C
:10223000FF920F931F93CF93DF9300D000D01F9294
:10224000CDB7DEB78C01DC01DA96AC90DA97DB967D
:10225000EC90DB97ED91FC91B188FE2CD12CC12C38
:10226000D801ED91FC9111978089D8962D913C91E0
:102270001C82FD828B83B8E08B9FC00111248C9D52
:10228000A0018D9D500D9C9D500D1124240F351FD4
:102290003A832983D8011496ED91FC919E012F5F1A
:1022A0003F4F41E06FE0C8010995F3948F2D8E19DF
:1022B0008A1528F4BFEFCB1ADB0AFB1488F20F90C3
:1022C0000F900F900F900F90DF91CF911F910F9172
:1022D000FF90EF90DF90CF90BF90AF9008950F9355
:1022E0001F93CF93DF938C01C62F642FCC32E8F479
:1022F000CA3208F041C0C83271F1C93209F442C093
:1023000080E0C034D0F1CF73F801EC0FF11D868D61
:102310008F3F91F1C031E0F00E94880521E0892BC8
:1023200009F420E0F801218F27C0CD3289F140F374
:1023300084EB8C0F823020F7CF73C00FD12FD11DCB
:102340008E8D411133C061E00E94DF0560E08E8D0B
:102350000E94B10511C0025E1F4FD0E0F8018191CB
:102360008F018F3F31F061E0D03108F062E00E94D0
:10237000DF05DF5FD63191F781E0DF91CF911F91CB
:102380000F91089570E090E080E00E945506F4CF30
:1023900085E090E0433010F082E090E0880F991FD4
:1023A000880F991F05970197F1F7E6CF62E00E9429
:1023B000DF05E2CFCF92DF92EF92FF920F931F9350
:1023C000CF93DF936C01EB017B01E40EF51E10E06F
:1023D00000E0CE15DF0561F06991D601ED91FC9129
:1023E0000190F081E02DC6010995080F191FF1CF6A
:1023F000C801DF91CF911F910F91FF90EF90DF9077
:10240000CF900895CF92DF92EF92FF920F931F9398
:10241000CF93DF93EC016C0124E0C20ED11CFC01D0
:10242000E057FF4F0190F081E02DC60109958E3FE6
:10243000EFEF9E07D8F48E010C561F4FF801408134
:1024400051817E01F2E9EF0EF11CF701608171818B
:102450009C01C6010E94EA0EC059DF4F288121303D
:10246000C1F078F02230B9F02330E9F081E090E05B
:10247000DF91CF911F910F91FF90EF90DF90CF9060
:102480000895F70120813181820F931F918380830A
:10249000EDCFF801F7CFF70120813181281B390BEF
:1024A00031832083E3CFF801F7CF089590E080E0F7
:1024B0000895FB0101900020E9F73197AF01461B19
:1024C000570BDC01ED91FC910280F381E02D099422
:1024D0008F929F92AF92BF92EF92FF920F931F93B2
:1024E000CF93DF93CDB7DEB7A1970FB6F894DEBFD9
:1024F0000FBECDBF7C01FA01CB0119A2223008F436
:102500002AE08E010F5D1F4F822E912CB12CA12C41
:10251000BF01A50194010E94821AF901CA016A3023
:102520000CF5605DD8016E938D01232B242B252B98
:1025300079F790E080E0109721F0BD01C7010E947B
:102540005912A1960FB6F894DEBF0FBECDBFDF9132
:10255000CF911F910F91FF90EF90BF90AF909F9000
:102560008F900895695CDECF2F923F924F925F92D9
:102570006F927F928F929F92AF92BF92CF92DF9293
:10258000EF92FF921F93CF93DF93EC016A017B01DF
:10259000722EAB019601CB01B6010E947D1A69E84B
:1025A00071E0811126C046015701E894B7F82FEF7A
:1025B0003FEF4FE75FE7C501B4010E947D1A81112B
:1025C0000CC02FEF3FEF4FE75FE7C501B4010E945A
:1025D000B3186DE871E0181664F02FEF3FEF4FE786
:1025E0005FE4C701B6010E940B1A1816B4F461E942
:1025F00071E0CE01DF91CF911F91FF90EF90DF90BE
:10260000CF90BF90AF909F908F907F906F905F9092
:102610004F903F902F900C9459122FEF3FEF4FE7C0
:102620005FECC701B6010E94B31887FDE0CF20E040
:1026300030E0A901C701B6010E94B318312C212C4A
:1026400087FF0DC0E881F9810190F081E02D6DE2F6
:10265000CE0109951C01F7FAF094F7F8F09410E018
:1026600060E070E080E09FE3711641F020E030E030
:1026700040E251E40E94B8181F5FF6CFA70196010F
:102680000E9447182B013C010E942A194B015C0152
:102690002AE0BC01A401CE010E9468127C01E20C78
:1026A000F31C1123E1F1C501B4010E9459199B01EA
:1026B000AC01C301B2010E9446184B015C01E881E4
:1026C000F9810190F081E02D6EE2CE010995E80ECE
:1026D000F91E115020F120E030E040E251E4C50144
:1026E000B4010E94101A2B013C010E942A194B01CF
:1026F000B12CA12C2AE0B501A401CE010E946812E0
:10270000E80EF91EC501B4010E9459199B01AC01E4
:10271000C301B2010E9446184B015C01DACFC70128
:10272000DF91CF911F91FF90EF90DF90CF90BF90FE
:10273000AF909F908F907F906F905F904F903F9061
:102740002F9008951F93CF93DF9385ED8093BC0066
:102750008091CD019091CE01A091CF01B091D00197
:102760000796A11DB11D23E0B695A795979587956E
:102770002A95D1F72091BC0024FD03C010921502C8
:1027800052C04091CD015091CE016091CF01709126
:10279000D001452B462B472B69F30097A105B105C6
:1027A00041F02AE22A95F1F700C00197A109B10989
:1027B000E1CF8091CC01C1E0C093CB01882399F196
:1027C000D091B8001091BA008091BC008A7B8093B0
:1027D000BC0060E082E10E94B10560E083E10E94FC
:1027E000B10510921502C09317021092160261E013
:1027F00082E10E94B10561E083E10E94B105809110
:10280000B9008E7F8093B9008091B9008D7F80934D
:10281000B90088E48093B80085E48093BC001093ED
:10282000BA00D093B800DF91CF911F910895FC01B9
:10283000A081B18150962C9182AD38E0839FC00178
:102840001124289FA001299F500D112470E060E001
:1028500080AD91AD0C94AA1A1F93CF93DF93EC0136
:102860000E9413111BAD8AAD180FE881F98181898F
:10287000181768F0EC81FD8130E020E040E060E175
:10288000CE01099580E0DF91CF911F910895FE015F
:10289000E557FF4F8081882319F0CE010E9417145D
:1028A000612FCE010E94001181E0EDCFCF93DF9325
:1028B000EC01FC01E557FF4F8081882319F0CE0120
:1028C0000E94171460E0CE01DF91CF910C940011AB
:1028D0001F920F920FB60F9211242F933F938F9355
:1028E0009F93AF93BF938091410290914202A09138
:1028F0004302B09144023091400223E0230F2D3770
:1029000058F50196A11DB11D20934002809341020C
:1029100090934202A0934302B093440280914502F7
:1029200090914602A0914702B09148020196A11DE4
:10293000B11D8093450290934602A0934702B09345
:102940004802BF91AF919F918F913F912F910F902E
:102950000FBE0F901F90189526E8230F0296A11D19
:10296000B11DD2CF1F920F920FB60F9211242F9349
:102970003F934F935F936F937F938F939F93AF9307
:10298000BF93EF93FF9389E492E00E940607FF91C3
:10299000EF91BF91AF919F918F917F916F915F91D7
:1029A0004F913F912F910F900FBE0F901F90189550
:1029B0001F920F920FB60F9211242F938F939F9314
:1029C000EF93FF93E0915902F0915A028081E091D8
:1029D0005F02F091600282FD1BC0908180916202D3
:1029E0008F5F8F7320916302821741F0E091620242
:1029F000F0E0E75BFD4F958F80936202FF91EF91CE
:102A00009F918F912F910F900FBE0F901F9018954F
:102A10008081F4CF1F920F920FB60F9211242F9343
:102A20003F934F935F936F937F938F939F93AF9356
:102A3000BF93EF93FF938091B900887F803609F4AC
:102A40004AC0F0F5883209F4A5C018F5803109F4C0
:102A500099C0B8F4882309F4F5C0883009F492C00D
:102A6000FF91EF91BF91AF919F918F917F916F9166
:102A70005F914F913F912F910F900FBE0F901F903C
:102A80001895883109F486C0803251F7809314027A
:102A900014C0803409F49BC040F48033B9F3883308
:102AA000F9F68093140285ECAEC0803509F483C03A
:102AB000883509F494C0883499F60E94A213D0CFC7
:102AC000883909F48AC038F5883729F050F48836F7
:102AD00011F0803729F683E08093150210921302DB
:102AE00055C0883809F479C0803919F0803809F068
:102AF000B7CF80911302803208F06FC0E0911302CB
:102B000081E08E0F809313028091BB00F0E0ED50C6
:102B1000FE4F80833BC0803B39F0D0F4803A09F40B
:102B200077C0883A09F09CCF84E080931502109218
:102B3000F2011092F101F0E0E0E009958091F101DD
:102B400081110FC081E08093F1011092D10109C081
:102B5000803C09F4A8CF883C09F4A5CF883B09F054
:102B60007FCFE091F20181E08E0F8093F201F0E0DF
:102B7000EF52FE4F80818093BB009091F2018091D3
:102B8000F10129C080913A028093BB0085EC8093CB
:102B9000BC0066CF9091390280913802981758F5A1
:102BA000E091390281E08E0F80933902F0E0E85E17
:102BB000FD4F8081E9CFE091390281E08E0F809353
:102BC00039028091BB00F0E0E85EFD4F8083909178
:102BD0003902809138029817C8F285E8D8CFE09181
:102BE000390281E08E0F809339028091BB00F0E0C2
:102BF000E85EFD4F80838091170281115ECF81E0F6
:102C00008093160284EA8093BC001092150228CFAC
:102C100085EC8093BC0010921502809113028032E3
:102C200030F4E0911302F0E0ED50FE4F108260911D
:102C3000130270E083EF91E0F0E0E0E0099510927C
:102C400013020ECF1092140238CF10924C02109241
:102C50004B0288EE93E0A0E0B0E080934D029093A9
:102C60004E02A0934F02B093500289E691E09093F8
:102C70004A028093490285EC90E09093560280933B
:102C8000550284EC90E0909358028093570280ECB8
:102C900090E090935A028093590281EC90E09093D7
:102CA0005C0280935B0282EC90E090935E028093E2
:102CB0005D0286EC90E09093600280935F02109238
:102CC00062021092630210926402109265021092E6
:102CD00069031092680380EA94E09093F70380936D
:102CE000F6031092F9031092F8031092FB0310926E
:102CF000FA03109282038BE791E09093670380932D
:102D0000660310926B0310926A0310927F03109275
:102D100076031092770310927803109279038FEF65
:102D20008093800380938403E8E8F3E08EE993E0E6
:102D30002FEF21938E179F07E1F789E599E0909394
:102D40006F0380936E0388E29AE0909371038093FF
:102D500070038DEE97E090937303809372038FE678
:102D600091E1909375038093740330E020E040E09C
:102D700069E08AE693E00E9459091092C503109217
:102D8000C4038AEA94E090939F0380939E0386EEA7
:102D900092E09093A3038093A20381E08093A40325
:102DA0001092A5031092D3031092F3031092EF0335
:102DB0008093F4038093F50383E891E09093A1035B
:102DC0008093A0038AE693E00E94700A1092BD03EC
:102DD0001092BC031092C1031092C0038FEF9FEFBB
:102DE0009093BF038093BE039093C3038093C20369
:102DF000E091A003F091A1030280F381E02D8AE627
:102E000093E0099589E195E09093C7038093C60309
:102E10001092D6038DE0809388038BE08093890322
:102E20008AE08093910389E08093920388E0809305
:102E300093030895789484B5826084BD84B58160DD
:102E400084BD85B5826085BD85B5816085BD809175
:102E50006E00816080936E001092810080918100ED
:102E600082608093810080918100816080938100E5
:102E7000809180008160809380008091B1008460A7
:102E80008093B1008091B00081608093B000809108
:102E90007A00846080937A0080917A0082608093C7
:102EA0007A0080917A00816080937A0080917A0024
:102EB000806880937A001092C100E0915902F091ED
:102EC0005A0282E08083E0915502F091560210820E
:102ED000E0915702F09158028FEC808310926102CA
:102EE000E0915D02F0915E0286E08083E0915B02FA
:102EF000F0915C02808180618083E0915B02F091BF
:102F00005C02808188608083E0915B02F0915C02CA
:102F1000808180688083E0915B02F0915C02808117
:102F20008F7D8083E0916E03F0916F0330E020E0AD
:102F300040E06AE08AE693E009958AE693E00E9421
:102F400056148AE693E00E942C148111FACF60E0B7
:102F50008AE693E00E940011E0916E03F0916F0306
:102F600030E020E040E06BE08AE693E0099560E025
:102F700087E00E94DF05C7E3D0E000E210E080EACE
:102F8000E82E84E0F82E90E0C92E90E0D92E992406
:102F9000939422ECA22E20E0B22E87E00E948805B6
:102FA000019741F490923B0265E971E089E492E077
:102FB0000E94591287E00E948805892B61F4809154
:102FC0003B02882341F010923B0267E971E089E4FB
:102FD00092E00E9459128AE693E00E9456148EE015
:102FE0000E941B06BC01990F880B990B0E945B196C
:102FF0002AE038E240EA5BE30E94101A60933C0248
:1030000070933D0280933E0290933F028091C403EF
:103010009091C503825C904041F0B092C503A092AC
:10302000C4030E94790E0E941C050E94560DD09385
:10303000F903C093F8031093FB030093FA03409144
:103040003C0250913D0260913E0270913F0222E0AD
:1030500086E693E00E94B412F0926D03E0926C0356
:1030600089E991E00E94B5108AE693E00E942C1451
:103070008111B5CFC114D10409F48FCF0E94F2069B
:10308000882309F48ACF0E94000087CF5058BB27BD
:10309000AA270E945E180C94D1190E94C31938F017
:1030A0000E94CA1920F039F49F3F19F426F40C94B9
:1030B000C0190EF4E095E7FB0C94BA19E92F0E94B1
:1030C000E21958F3BA17620773078407950720F0CF
:1030D00079F4A6F50C94041A0EF4E0950B2EBA2F91
:1030E000A02D0B01B90190010C01CA01A00111240E
:1030F000FF27591B99F0593F50F4503E68F11A16BA
:10310000F040A22F232F342F4427585FF3CF46954A
:1031100037952795A795F0405395C9F77EF41F166C
:10312000BA0B620B730B840BBAF09150A1F0FF0F36
:10313000BB1F661F771F881FC2F70EC0BA0F621F22
:10314000731F841F48F4879577956795B795F79512
:103150009E3F08F0B0CF9395880F08F09927EE0FA7
:103160009795879508950E94961908F481E008952F
:103170000E94CC180C94D1190E94CA1958F00E94D0
:10318000C31940F029F45F3F29F00C94BA1951118A
:103190000C94051A0C94C0190E94E21968F3992343
:1031A000B1F3552391F3951B550BBB27AA27621743
:1031B0007307840738F09F5F5F4F220F331F441F50
:1031C000AA1FA9F335D00E2E3AF0E0E832D0915084
:1031D0005040E695001CCAF72BD0FE2F29D0660F71
:1031E000771F881FBB1F261737074807AB07B0E8B4
:1031F00009F0BB0B802DBF01FF2793585F4F3AF0BA
:103200009E3F510578F00C94BA190C94051A5F3F53
:10321000E4F3983ED4F3869577956795B795F7953F
:103220009F5FC9F7880F911D9695879597F9089527
:10323000E1E0660F771F881FBB1F621773078407C3
:10324000BA0720F0621B730B840BBA0BEE1F88F7D2
:10325000E09508950E94EA1988F09F5798F0B92FD9
:103260009927B751B0F0E1F0660F771F881F991FBB
:103270001AF0BA95C9F714C0B13091F00E94041A3F
:10328000B1E008950C94041A672F782F8827B85F4F
:1032900039F0B93FCCF3869577956795B395D9F713
:1032A0003EF490958095709561957F4F8F4F9F4F1D
:1032B0000895E89409C097FB3EF490958095709529
:1032C00061957F4F8F4F9F4F9923A9F0F92F96E972
:1032D000BB279395F695879577956795B795F111E7
:1032E000F8CFFAF4BB0F11F460FF1BC06F5F7F4F84
:1032F0008F4F9F4F16C0882311F096E911C0772396
:1033000021F09EE8872F762F05C0662371F096E89E
:10331000862F70E060E02AF09A95660F771F881F6D
:10332000DAF7880F9695879597F90895990F000811
:10333000550FAA0BE0E8FEEF16161706E807F90787
:10334000C0F012161306E407F50798F0621B730B22
:10335000840B950B39F40A2661F0232B242B252BA3
:1033600021F408950A2609F4A140A6958FEF811D46
:10337000811D089597F99F6780E870E060E00895E7
:103380009FEF80EC089500240A941616170618067D
:103390000906089500240A94121613061406050659
:1033A0000895092E0394000C11F4882352F0BB0FEA
:1033B00040F4BF2B11F460FF04C06F5F7F4F8F4F4D
:1033C0009F4F089557FD9058440F551F59F05F3F88
:1033D00071F04795880F97FB991F61F09F3F79F037
:1033E00087950895121613061406551FF2CF4695B9
:1033F000F1DF08C0161617061806991FF1CF86953B
:103400007105610508940895E894BB27662777271E
:10341000CB0197F908950E94961908F48FEF08954B
:103420000E94231A0C94D1190E94C31938F00E94EB
:10343000CA1920F0952311F00C94BA190C94C019F4
:1034400011240C94051A0E94E21970F3959FC1F3A0
:10345000950F50E0551F629FF001729FBB27F00D42
:10346000B11D639FAA27F00DB11DAA1F649F662797
:10347000B00DA11D661F829F2227B00DA11D621FE6
:10348000739FB00DA11D621F839FA00D611D221FA0
:10349000749F3327A00D611D231F849F600D211D84
:1034A000822F762F6A2F11249F5750409AF0F1F007
:1034B00088234AF0EE0FFF1FBB1F661F771F881F70
:1034C00091505040A9F79E3F510580F00C94BA19D5
:1034D0000C94051A5F3FE4F3983ED4F386957795F4
:1034E0006795B795F795E7959F5FC1F7FE2B880F16
:1034F000911D9695879597F908950E949619880BC6
:10350000990B0895A1E21A2EAA1BBB1BFD010DC049
:10351000AA1FBB1FEE1FFF1FA217B307E407F50783
:1035200020F0A21BB30BE40BF50B661F771F881F5F
:10353000991F1A9469F760957095809590959B01F5
:10354000AC01BD01CF010895EE0FFF1F0590F4916E
:10355000E02D0994DC0101C06D9341505040E0F72B
:103560000895F894FFCF1815A015C019FF1815A1DC
:1035700015C819FF1815AE19FF1815AF19FF181542
:10358000AE15D5168015A8163F15D3160015401593
:103590008D16141520160015A115C815DA1612156A
:1035A0008116CF15D916F115DB1640152E15A41569
:1035B000A619FF0001140A6464323200127A000076
:1035C0000428961008000080004000000000002839
:1035D000078806B5067507E606C406D8060000008B
:1035E000000212DA1156125512700AFB0A600A6EB6
:1035F000616E00696E66006F76660061006200565B
:04360000203D000069
:107E0000112484B714BE81FFF0D085E080938100F7
:107E100082E08093C00088E18093C10086E0809377
:107E2000C20080E18093C4008EE0C9D0259A86E02C
:107E300020E33CEF91E0309385002093840096BBD3
:107E4000B09BFECF1D9AA8958150A9F7CC24DD24C4
:107E500088248394B5E0AB2EA1E19A2EF3E0BF2EE7
:107E6000A2D0813461F49FD0082FAFD0023811F036
:107E7000013811F484E001C083E08DD089C08234E0
:107E800011F484E103C0853419F485E0A6D080C0E4
:107E9000853579F488D0E82EFF2485D0082F10E0AE
:107EA000102F00270E291F29000F111F8ED06801E7
:107EB0006FC0863521F484E090D080E0DECF843638
:107EC00009F040C070D06FD0082F6DD080E0C81688
:107ED00080E7D80618F4F601B7BEE895C0E0D1E017
:107EE00062D089930C17E1F7F0E0CF16F0E7DF06D8
:107EF00018F0F601B7BEE89568D007B600FCFDCFD4
:107F0000A601A0E0B1E02C9130E011968C91119780
:107F100090E0982F8827822B932B1296FA010C0160
:107F200087BEE89511244E5F5F4FF1E0A038BF0790
:107F300051F7F601A7BEE89507B600FCFDCF97BE46
:107F4000E89526C08437B1F42ED02DD0F82E2BD052
:107F50003CD0F601EF2C8F010F5F1F4F84911BD097
:107F6000EA94F801C1F70894C11CD11CFA94CF0C13
:107F7000D11C0EC0853739F428D08EE10CD085E9AC
:107F80000AD08FE07ACF813511F488E018D01DD067
:107F900080E101D065CF982F8091C00085FFFCCF94
:107FA0009093C60008958091C00087FFFCCF809118
:107FB000C00084FD01C0A8958091C6000895E0E648
:107FC000F0E098E1908380830895EDDF803219F02E
:107FD00088E0F5DFFFCF84E1DECF1F93182FE3DFCA
:107FE0001150E9F7F2DF1F91089580E0E8DFEE27F6
:047FF000FF270994CA
:027FFE00040479
:00000001FF
